:020000041000EA
:1000000000200008EB0000100D0000004D01001062
:1000100000000000000000000000000000000000E0
:100020000000000000000000000000004901001076
:10003000000000000000000049010010490100100C
:100040004901001049010010490100104901001048
:100050004901001049010010490100104901001038
:100060004901001049010010490100104901001028
:100070004901001049010010490100104901001018
:1000800010B5064C2378002B07D1054B002B02D06E
:10009000044800E000BF0123237010BDB003000836
:1000A0000000000014150010044B10B5002B03D005
:1000B0000349044800E000BF10BDC0460000000036
:1000C000B4030008141500100230800803D001307A
:1000D0000238FCD1C046C0467047EFF3108072B6BC
:1000E000704780F3108870477047FFF7FDFF72B6C6
:1000F0000F4C104DAC4209DA21686268A368043BDA
:1001000002DBC858D050FAE70C34F3E70A490B4A2F
:100110000020521A02DD043A8850FCDC08480949E4
:100120000860BFF34F8F00F0FFFE00F0AFFEFEE768
:100130002015001038150010B0030008C80500088D
:100140000000000808ED00E0FEE7FEE700B504202F
:100150007146084202D0EFF3098001E0EFF3088016
:10016000043000F093FCFEE7014B18607047C04676
:10017000C4050008044B1B681A00BA3212881B6AB7
:100180005043C0187047C046C40500081D4B984234
:100190000FD010D840282FD005D8002830D01028F4
:1001A00028D019481EE0802828D080235B00984280
:1001B000F7D1144816E0154B984214D008D8A02364
:1001C0001B0698421CD0124B9842EAD1A0200BE0AB
:1001D000104B98420AD0104B984209D00F4B9842CE
:1001E000DFD10F487047A420C003FBE70D48F9E7B3
:1001F0000D48F7E70D48F5E70D48F3E70D48F1E73F
:100200000020EFE706005200FF005200010000F05E
:10021000090000A0040000F0050000F0030000F059
:100220000100520002005200030052000100500081
:10023000020050000500520010B50020FFF79AFFA1
:100240000A4B1C682300BC331B68C0180368002BD2
:100250000ADB074B1868FFF799FF012263689A6071
:100260009A68002AFCD110BD0248FCE7C4050008CA
:10027000CC03000802005000064B1B68BC331B680F
:10028000C3181B68002B03DA89B241600020704755
:100290000148FCE7C405000801008A000368002B40
:1002A00004DA89B2C2608160002070470048FCE730
:1002B00001008A00064B1B68BC331B68C3181B680F
:1002C000002B03DAC36800200B6070470148FCE78D
:1002D000C405000801008A00024B1A68002A00D1F8
:1002E00018607047E0030008F0B52C246043154CFB
:1002F0001F0024681D0A2018FF2425402740124CA7
:100300001B0C26680760346A45608360BA363688FD
:1003100077433F1907612F0080376D017F01E7198F
:1003200064190A4D47611F043B436419236000238D
:100330008361059BC2610162002B01D01B88838110
:10034000F0BDC046E0030008C40500080810000026
:10035000F0B5836885B002AD2B80154B02681B6831
:10036000066A1B8F476A9B186B8043680095826AF8
:10037000C16A040003930369C068FFF7B5FF002159
:100380003B000A0000913000FFF7AEFF216B280010
:1003900000F030FB0022AB5E002B06DB1F22134077
:1003A0001E3A9A401300034A136005B0F0BDC046E0
:1003B000C405000800E100E0F7B52C25134C6843A4
:1003C000266869433418256901937118002D19D0E6
:1003D0008869002818D12E68002E15DA6768012474
:1003E00026004B689E40B44613689EB263461B04C9
:1003F0001E431660EA608C61BC40019BA4B24B6254
:10040000AC60FEBD0248FCE70248FAE7E0030008E2
:1004100004028A0007028A0073B5002642690400BC
:10042000D56801962B0CB34221D01B0413601368CE
:10043000194B00691B68BC331B68C3181B68B342A7
:1004400015DA01A9FFF736FFB0420CD10198E26935
:1004500003681E0CDBB29A4205D9226A9B009B58A6
:10046000002B00D0984731002069FFF705FFADB29F
:10047000002D09D063691D6000251B68636AAB42CB
:1004800005D098476562A56163691B6873BDA36A5F
:10049000002BF8D09847F6E7C40500082C2310B5C8
:1004A0004343034A1068C018FFF7B6FF10BDC046AB
:1004B000E0030008F8B5194B0F001B681A0033322F
:1004C0001278824227D9002925D01F250A681540B5
:1004D00021D11900BA310C88114E60431C6AD20830
:1004E000041929007868346000F07EFF290020009C
:1004F000FFF7C2FE3A0029003068FFF7CFFE041E66
:1005000007D101003068FFF7B7FE03002000002B81
:1005100000D00448F8BD0448FCE7C046C405000804
:10052000E403000801018A0003018A0010B5002AD3
:100530000DD1002914D10B4B1A681300BA331B8854
:100540005843136AC018084B1860080010BD0029F2
:1005500006D0064B196019005A60FFF7ABFFF5E7AC
:100560000348F3E7C4050008E40300087803000823
:1005700003018A00F7B5184F04003B680191DE685B
:100580003368834226D90025A94202D1FFF7A5FD91
:10059000050038680368002B1ADA1F220123224065
:1005A000934064097268A4001419226813420DD0A4
:1005B0009A43226000240021FFF75EFE019B002B7E
:1005C00002D12800FFF78DFD2000FEBD034CF2E7AD
:1005D000034CF3E7034CF7E7E4030008020188004B
:1005E0000301880004018A000A4B1B68DB681A6853
:1005F00082420DD959681F23420918401E3B83408F
:10060000920050581840431E9841034BC018704741
:100610000248FCE7E40300080001880004018A00A6
:10062000054B1B681A0088321B6812689B181868F3
:10063000000AC0B27047C046C4050008044B1B68DE
:100640001A0088321B6812689B181868000E7047E1
:10065000C4050008024B18694007C00F7047C04628
:1006600000002740A6220549D2008B580220DB4318
:100670009B0702D00123885818407047000026408D
:1006800010B5FFF7EFFF0023022801D1014B1B68D3
:10069000180010BDEC030008094A83009B18D02203
:1006A0009200985807221040042807D1C0229200D7
:1006B00098581F2303408020400018437047C046CD
:1006C0000000264010B5FFF7E7FF02281CD005D830
:1006D000002824D0012814D0002014E01223FF3376
:1006E000984214D01423FF33984215D0033B98420C
:1006F000F2D10C4A0C4BD358002BEDDA80200002CB
:1007000001E00A4B186810BDFFF7BAFFFBE7FFF7DF
:10071000A1FF0028E0D0F1E7024A054BEBE70548CE
:10072000F1E7C046000026400C050000E803000881
:100730003C05000000127A00B023154ADB00D358B4
:1007400010B59903DB01DB0F890BC371114B0160FD
:10075000D3580F24D904DB01DB0D0381B123DB0067
:10076000D358C90C81801900214081721909214098
:10077000C172D9029B009B0F8373074BC90CD358DE
:1007800081815A05DB01520FDB0D8271038210BD9E
:1007900000002640840500008C05000010B5104BB9
:1007A000421E1B683F331B78934216D97F221F24B9
:1007B0008030FF300B4B8000C3581A400A701A0C6F
:1007C0002240180A8A701A012040E2404870002036
:1007D0009B009B0FCA700B7110BD0348FCE7C0461D
:1007E000C40500080000264001004A00F0B589B0A9
:1007F00003AC14220021200000F0F6FD2000FFF7DA
:100800009BFFB0231A4ADB00D25800239A4203DA36
:10081000A37B023B5A1E9341E57900266A1E95414F
:100820000135B34221D0A488B4421ED0039B3000CE
:100830000193FFF747FF2A00330007003100200033
:1008400000F0BCFC0C0005003300019A31003800B8
:1008500000F0B4FCE6076A08324363088018594187
:100860002A00230000F08AFC0600300009B0F0BD29
:1008700000002640F0B50026244B85B01B68070019
:100880003F331B78B3423ED0B0423CD083423AD390
:100890000522310002A800F0A7FD02A93800FFF7E9
:1008A0007DFF3B008033FF33194A9B009B58B342C6
:1008B00029DA02AB1B79022B25D002AB5C78B4425B
:1008C00021D09D78B5421ED01B7838000193FFF7E8
:1008D000F9FE2A00330007003100200000F06EFC12
:1008E0000C0005003300019A3100380000F066FC6E
:1008F000E6076A0832436308801859412A0023003A
:1009000000F03CFC0600300005B0F0BDC405000856
:100910000000264010B5041E04D1FFF767FF002831
:1009200006D008E0064B1B683F331B78834203D296
:100930002000FFF7C7FE10BDFFF79CFFEFE7C046A2
:10094000C4050008E02210B50124094B8000920084
:10095000C018835880589B069B0F9C400F2318405B
:10096000FFF7D8FF63081818210000F07BFB10BDCB
:1009700000002640144B30B51A68072413002C33AE
:100980001B781F2B15D883081D00A5432C1E0FD1E3
:1009900003342040A040814012689B002032D318CD
:1009A0000A00FF2181401C686240114061401960CB
:1009B00030BD802320401B06184380239B01126812
:1009C000C91889008850F3E7C4050008064B9A68E7
:1009D0000300064810339B00824202D19858995078
:1009E0007047034AD058FBE700ED00E00000000824
:1009F00000000010F8B506000D0000283AD00023D2
:100A0000C05E002828DB7188FFF7B4FF0024FF22B6
:100A1000032794460023F05E716883B21F40FF00F5
:100A20006646BA4089013140D243B940002815DBFF
:100A3000114E83089B009B19C026B6009F593A406F
:100A4000114399510D4B9A680D4B9A4202D12900DE
:100A5000FFF7BCFF2000F8BD0A4CD8E70F26334053
:100A6000083B064E9B089B009B19DE6932401143F0
:100A7000D961E7E7034CEDE700E100E000ED00E0BD
:100A80000000000801005600FEE7000002680A4B63
:100A900010B51A6042685A6082689A60C268DA606B
:100AA00002691A6142695A6182699A61C269DA61AE
:100AB000FFF7EAFF10BDC04690030008B0235B05B6
:100AC0005A782120002A01D05878C0B27047B0234C
:100AD0005B059A89002A02D0988980B270478020ED
:100AE0004000FBE77FB5274B86000D00F458042932
:100AF00001D0012927D100200FE0A3682B420BD1A0
:100B0000E36829001A685B6802920193039302A8C4
:100B1000236898471C4B1C606469002C0BD01B4B4E
:100B20009842EAD1012DE8D1174B18481A68184BA2
:100B30009A5104B070BD012DFBD1144B9842F3D0F3
:100B4000134B9C51F5E7022906D10F4B1B68181E69
:100B5000EFD01C6903E01C006369002BFBD100206F
:100B6000002CE6D0A3682B4209D1E36829001A685B
:100B70005B6802920193039302A823689847246953
:100B8000EEE7C046300400082C040008FF004200D5
:100B9000180400081A4B1B68190088311A68096884
:100BA00051180968016219008C31096852181268DD
:100BB00042621A0046321278002A1FD09A68E03248
:100BC0001268D2061AD5F222DB68D2019A58026066
:100BD000F022D2019A5842600A4A9A5882600A4A20
:100BE0009A58C260094A9A580261094A9A58426161
:100BF000084A9A588261084A9B58C3617047C046A8
:100C0000C405000804780000087800000C78000093
:100C10001078000014780000187800001A4B1B6848
:100C20001A008832196812688A18016A11601A005D
:100C30008C32196812688A18416A11601A004632AB
:100C40001278002A1ED09A68E0321268D20619D5AE
:100C5000F0224168DB68D201995081680B4A9950B3
:100C6000C1680B4A995001690A4A995041690A4A78
:100C700099508169094A9950C169094A9950016896
:100C8000E83299507047C046C40500080478000057
:100C9000087800000C78000010780000147800003C
:100CA00018780000F7B50700FFF708FF664D06004B
:100CB0006B68002B00D07DE0FFF70FFA6B680090A7
:100CC000002B00D089E0614C22681300BA331988E8
:100CD00007234B43126A9B181A68002AFCDADB6868
:100CE000DA0021D51B0F1B0759480193FFF752FF6C
:100CF0005849212E00D075E02268902013008833D7
:100D00001C68136800011C1923680B40034323600F
:100D100013008C3312681B68D3181A6811400843FB
:100D200018604B4B019A13438022484E920531685C
:100D300013430A00BA321088072200244243096A8A
:100D40005218D36054605368FFF7C1FE80235B00E4
:100D500098425DD1380000F05BFB32681300BA3373
:100D6000198807234B43126A9B181A68002AFCDA79
:100D7000DF68FB0003D538010009FFF74FFF364B52
:100D800032681F401300BA33198807234B43126A95
:100D900000989B180022DF605A60FFF7A2F9002C30
:100DA0000FD16B68002B03D008210120FFF79AFEBA
:100DB0002000FEBD01210800FFF794FE041E00D1B3
:100DC0007AE76B68002B03D002210120FFF78AFE2F
:100DD000224B9C42ECD0224CEAE704210120FFF791
:100DE00081FE70E720688022030088331C68036856
:100DF00052001C1923680B401343236003008C33FB
:100E000000681B68C318186801400A431A6088E725
:100E100033681A00BC32196A126852181168002926
:100E200010DBBA331B889A181368002B0ADB0423E3
:100E30000C4A11690B431361012F01D030BF8CE7BD
:100E400020BF8AE7054C88E730040008C405000885
:100E5000F0030008FF00FFFFFFFFFFDF0500420077
:100E6000FF00420000ED00E0C02280200649520051
:100E70008B58C0059B009B0803438B5080238858E8
:100E80001B0603438B5070470000264010B562B626
:100E9000034800F0C1F80020FFF704FFFBE7C0465D
:100EA0000020001010B50020FFF7F8FA10BD7047C1
:100EB00010B50020FFF746FD041E25D0134B186027
:100EC000FFF7BCFB411C200000F0CCF8104B0400E5
:100ED0001860FFF7A5FB411C200000F0C3F80D4B84
:100EE000441E18600C49200000F0BCF8FA210B4B9E
:100EF000013018708900200000F0B4F8084B013070
:100F00001860084BC003186010BDC046840000087C
:100F1000880000088000000840420F00940000088C
:100F2000900000088C00000810B52048FFF71CF95D
:100F3000B022E02130201E4CD200A35889005B0073
:100F40005B08A35063588343635080235B04A35022
:100F5000184B194AE250A02204339201E250FF22BA
:100F6000164BE250FFF780FFC02201215200A35828
:100F70008B43A350FFF79BFFFFF79AFF104B032013
:100F80001A681300BA33198807234B43126A802169
:100F90009B180022DA605A600A4AFFF7C7FA0A482B
:100FA000FFF79AF90948FFF7D3F910BD2014001094
:100FB0000000264084050000010002008C050000AE
:100FC000C40500088003000844040008E014001071
:100FD0009023034A5B01D058032318407047C04652
:100FE0000000204010B59024FFF777F8074B64010C
:100FF0001A5907491140074A0A431A5110225968E1
:101000001142FCD0FFF76DF810BDC0460000204033
:10101000FCFF00000100FA05F8B590250E4C6D01AB
:101020000700FFF75AF863590600DB439B0701D11D
:10103000FFF7D8FF80239B00E7506359074A1A4007
:10104000074B13436351102362681A42FCD03000EF
:10105000FFF747F8F8BDC04600002040FCFF000045
:101060000300FA05002243088B4274D303098B4224
:101070005FD3030A8B4244D3030B8B4228D3030C68
:101080008B420DD3FF22090212BA030C8B4202D30A
:101090001212090265D0030B8B4219D300E0090A32
:1010A000C30B8B4201D3CB03C01A5241830B8B423B
:1010B00001D38B03C01A5241430B8B4201D34B0324
:1010C000C01A5241030B8B4201D30B03C01A524189
:1010D000C30A8B4201D3CB02C01A5241830A8B420E
:1010E00001D38B02C01A5241430A8B4201D34B02F7
:1010F000C01A5241030A8B4201D30B02C01A52415B
:10110000CDD2C3098B4201D3CB01C01A524183090E
:101110008B4201D38B01C01A524143098B4201D348
:101120004B01C01A524103098B4201D30B01C01A73
:101130005241C3088B4201D3CB00C01A52418308ED
:101140008B4201D38B00C01A524143088B4201D31A
:101150004B00C01A5241411A00D20146524110467A
:101160007047FFE701B5002000F006F802BDC04659
:101170000029F7D076E770477047C046002B11D1A1
:10118000002A0FD1002900D1002802D00021C94334
:10119000081C07B4024802A14018029003BDC046D3
:1011A000D9FFFFFF03B4684601B5029800F030F89C
:1011B000019B9E4602B00CBC7047C046F0B5CE46BF
:1011C000474615042D0C2E0080B50704140C3F0C67
:1011D0009946030C7E435D43674363437F19340C98
:1011E000E4199C46A54203D980235B029846C44477
:1011F0004B4643435143250C36046544360C2404C6
:10120000A4195B19591820000CBC90469946F0BDF2
:10121000F0B54F464646D646C0B5040082B00D0034
:10122000914698468B422FD82CD04146484600F034
:10123000CFF829000600200000F0CAF8331A9C46B7
:10124000203B9A4600D576E04B46524693401F001D
:101250004B46624693401E00AF4228D825D05346E5
:10126000A41BBD41002B00DA7BE00022002300928A
:101270000193012352469340019301236246934018
:10128000009318E08242D0D90022002300920193FB
:101290000A9B002B01D01C605D600098019902B090
:1012A0001CBC90469946A246F0BDA342D7D9002265
:1012B0000023009201936346002BE9D0FB07984678
:1012C000414672080A437B0866460EE0AB4201D1F4
:1012D000A2420CD8A41A9D41012024196D4100217D
:1012E000013E24184D41002E06D0AB42EED9013EFE
:1012F00024196D41002EF8D1009801995346001928
:101300006941002B23DB2B005246D3402A00644660
:10131000E2401C0053461500002B2DDB26005746EB
:10132000BE40330026006746BE403200801A994115
:1013300000900191ACE7624620239B1A4A46DA40AE
:101340006146130042468A4017001F4380E7624609
:1013500020239B1A2A0066469A402300F340134339
:10136000D4E76246202300219B1A002200910192BB
:101370000122DA40019280E72023624626009B1A70
:10138000DE402F00B0466646B74046463B0033433A
:10139000C8E7C0461C2101231B04984201D3000C5E
:1013A00010391B0A984201D3000A08391B099842D8
:1013B00001D30009043902A2105C40187047C046EE
:1013C000040302020101010100000000000000000E
:1013D00010B5002903D1FFF7DDFF203002E0081C23
:1013E000FFF7D8FF10BDC04603001218934200D18A
:1013F000704719700133F9E7F8B5C046F8BC08BC6E
:101400009E467047F8B5C046F8BC08BC9E4670477B
:1014100001B40248844601BC604700BF6102000875
:1014200000002040000024400000004000000000B8
:1014300000002340000030400000314000009F4089
:10144000000022400000104000009D40202020208D
:1014500020101010101D1D8017007500FF030602DC
:1014600006003604102000007FC0000000040000C9
:10147000000000000019324B647D00000000008075
:101480004000080B100000000000FF012002001FB8
:1014900000800004FF081018001000140018001C41
:1014A0004044484C500000000810000008000000B4
:1014B00004000000041000000012000004210000DD
:1014C000002100000016000040114002C413001368
:1014D0008013A01340138813A81320001C000000E1
:1014E00003000000010000000100000000000000F7
:1014F000050360000400000001000000000000007F
:10150000010000000604600008000000A4050008B7
:10151000A50E001000000000F8FCFF7F0100000095
:1015200000000010000000088000000040150010BE
:1015300080000008F8020000B00300081802000054
:1015400000093D0000127A0000093D000000D007AC
:10155000A00F000004000000A9000010810000108E
:1015600080B230B5C00020D0104B07221C68230089
:10157000BA331B885A43236AD31819680029FCDA46
:101580003E210B4B062519600A4B0B491960A3211C
:101590000A4BC9005D500A4958505858206A121821
:1015A000002050605A58002AFCDA30BDC4050008FB
:1015B00004012640080126401E1F000000002640AE
:1015C0001C05000010B54378FF2B11D100F0ECF89A
:1015D0000400032000F0F8F8C3685A68012311687A
:1015E0001943116011681942FCD1200000F00CF978
:1015F00010BDF7B500900020019100F0E5F83F4DD7
:1016000006002B681A005033BC3214681B7804198A
:10161000002B5AD000F0E0F8070003281BD000F0A0
:10162000C3F8374A374B0500D358002B3EDA364A09
:101630000121300000F0F0F8002837D10198FFF7C1
:101640008FFF009B002B3ED02368002BFCDB00F0BB
:10165000B3F804002BE0062000F0B6F82B68BC338A
:101660001B68C0180368002B02DA284C2000FEBD5E
:10167000002000F0B9F8264B9842F6D00023254A06
:1016800019001268012000F0B7F80025A842ECD13B
:10169000002000F0A9F81E4A1F4B904203D09D4243
:1016A000E3D00135F4E79D42B9D1DEE7174C032FB3
:1016B00005D10121002000F0B7F80028F9D1280059
:1016C00000F0A2F8D2E7154CF1E700F06DF80E4AF1
:1016D00005000121300000F09FF8002809D1009B8F
:1016E000002B08D02368002BFCDB00F065F8040019
:1016F000E5E7064CE3E7094CE1E7C046C40500080E
:10170000000026401C050000CC0300080500520024
:1017100001018800DC030008F049020001005000CC
:10172000184BF7B51B68184A5C68042311690B4312
:101730001361012824D030BF2300FC331B69002B28
:101740001DD1A320114B1249124AC0000F681E5828
:1017500015680195104D0D6006251D503E20106046
:101760000E483E351D501D58002DFCDA0C48FC3447
:1017700020610F60A321C9005E50019B1360F7BD7B
:1017800020BFD9E7C405000800ED00E000002640B6
:1017900008012640040126401E1F00001C05000011
:1017A000AAAAAAAA0000000001B40248844601BC0B
:1017B000604700BFDB00001001B40248844601BC52
:1017C000604700BF3902001001B40248844601BCE2
:1017D000604700BF7501001001B40248844601BC97
:1017E000604700BFD10F001001B40248844601BC1D
:1017F000604700BFE905001001B40248844601BCFF
:10180000604700BFB903001001B40248844601BC20
:10181000604700BFE300001001B40248844601BCE9
:10182000604700BF9D02001001B40248844601BC1D
:10183000604700BF750500100000000000000000B8
:101840000000000000000000000000000000000098
:020000041000EA
:1020000000F80F08E72300100D0000003324001033
:10201000352400103724001039240010000000007F
:102020000000000000000000000000003B24001041
:102030003D240010000000003F2400104124001047
:1020400043240010432400104324001043240010B4
:1020500043240010432400104324001043240010A4
:102060004324001043240010432400104324001094
:102070004324001043240010432400104324001084
:1022E00000F002F800F06EF80AA090E8000C8244BA
:1022F0008344AAF10107DA4501D100F063F8AFF297
:10230000090EBAE80F0013F0010F18BFFB1A43F0D3
:102310000103184734320000643200000A4410F808
:10232000014B14F00F0508BF10F8015B240908BF2A
:1023300010F8014B6D1E05D010F8013B6D1E01F821
:10234000013BF9D1641E03D0641E01F8015BFBD18F
:102350009142E4D370470000103A24BF78C878C196
:10236000FAD8520724BF30C830C144BF04680C609B
:10237000704700000023002400250026103A28BFE3
:1023800078C1FBD8520728BF30C148BF0B607047E7
:10239000642900F02981002070471FB502F052FE29
:1023A0000448054900F0D0FB00F01EFA00F082F965
:1023B0001FBD0000A028000800E80F0810B500F0BD
:1023C0007CFA10BDDFF80CD0FFF7E7FF02F026FD26
:1023D00000F08EFB00F80F0803B4FFF7EFFF03BC1B
:1023E00002F031FA7047FFF7FDFF72B61549164843
:1023F0004FF438720B680360001D091D521E002A3D
:10240000F8D1114811490860BFF34F8F1048804739
:1024100010488047FEE7FEE7FEE7042071460842C9
:1024200003D0EFF3098000F002F8EFF3088001F029
:10243000E7FCF2E7F1E7F0E7EFE7FEE7FEE7FEE7AC
:10244000FEE7FEE7002000100020000808ED00E095
:1024500001430010E1220010801C800803D0401CC2
:10246000801EFCD100BF7047EFF3108072B670473A
:1024700080F310887047704753EA020C00F06980BF
:102480002DE9F04B4FF00006002B1FBFB3FA83F588
:1024900003FA05F424FA05F65E4012BF1643B2FAB9
:1024A00082F502FA05F4C5F120051EBF22FA05FCEB
:1024B00044EA0C04203556EA044C4FEA144418BF91
:1024C000641C4FF000084FF00009904271EB030CC0
:1024D00039D3002919BFB1FA81F701FA07F6B0FA2A
:1024E00080F700FA07F6C7F120071EBF20FA07FCA5
:1024F00046EA0C062037B6FBF4FCA7EB0507103FB5
:1025000007F01F0BCBF120062CFA06F60CFA0BFB9A
:1025100044BFB3460026202FA4BF5E464FF0000BF9
:102520005BEA060C08BF4FF0010B19EB0B0948EBF7
:102530000608ABFB027C06FB02CC0BFB03CCC01BEA
:1025400071EB0C01C1E70B46024641464846BDE827
:10255000F08B13B5084318BF4FF0FF300146AFF3BF
:102560000080BDE81C4070470FB4044910B503AAB1
:10257000029800F00BF910BC5DF814FB3C24000835
:102580002DE9F0410E460446002020622046E16815
:10259000884730B3252805D0D4E901219047206A27
:1025A000401CF2E7E168204600278847050018D064
:1025B000A5F14100192802D820354FF400673246B2
:1025C000294620462760FFF7E3FE40B1012804D0EA
:1025D000F61D26F007060836D8E7361DD6E728464A
:1025E000DAE7206ABDE8F0812DE9F04106460024D3
:1025F00010687529314616A510D0AFF30080002869
:1026000002DA404213A507E031688A0701D512A516
:1026100002E0490704D511A5012401E0AFF30080D1
:1026200000210A2206F1240709E0B0FBF2FCB0FB0E
:10263000F2F302FB1C00303078541846491C002885
:10264000F3D123462A463046BDE8F04100F045B8B4
:10265000000000002D0000002B0000002000000002
:102660004FF0000200B5134694469646203922BF2B
:10267000A0E80C50A0E80C50B1F12001BFF4F7AF76
:10268000090728BFA0E80C5048BF0CC05DF804EB58
:10269000890028BF40F8042B08BF704748BF20F8C6
:1026A000022B11F0804F18BF00F8012B70477047C4
:1026B0007047704770B5064C7C44064D7D4404E07D
:1026C0002046016808448047241DAC42F8D170BD03
:1026D000BC2E0000BC2E000070472DE9F0470D46CF
:1026E00099469246044600F124080168880604D5FC
:1026F000E06921F01001216000E00120A84201DD25
:10270000471B00E00027A1697A1902EB0900081AAB
:10271000A0612078C00602D42046AFF300800026D6
:1027200008E0D4E901211AF806009047206A401C0D
:10273000761C20624E45F4DB2078C0060AD5204680
:10274000AFF3008006E0D4E9012130209047206AF1
:10275000401C2062381EA7F10107F4DC07E0D4E931
:10276000012118F805009047206A401C2062281EAD
:10277000A5F10105F3DC2046AFF3008020780006C8
:1027800002D50220BDE8F0870120FBE7074B70B5BA
:102790000D467B4400F011F80446284600F020F86E
:1027A00010B14FF0FF3070BD204670BD23220000F5
:1027B00001694A1C02610878704700B58FB0CDE905
:1027C00001310021059105497944CDE903101146F5
:1027D0006846FFF7D5FE0FB000BD0000E5FFFFFF24
:1027E000007B00F08000704710B542485421FFF78D
:1027F00037FF41485421FFF733FF40485421FFF78A
:102800002FFF3F493B483C4A3F4B08603D490A6027
:102810003A491960531C0365481C1065012008657E
:102820003B48344A39A1784400F0C4F820B938480C
:1028300078440A3800F065F937482F4A35A17844C2
:1028400000F0B8F820B9344878440A3800F059F953
:1028500032482A4A2FA1784400F0ACF820B92F481A
:1028600078440A3800F04DF940232248DC0000216A
:10287000224600F07CF820B125487844543800F016
:1028800040F91D4822464023002100F070F820B195
:1028900021487844543800F034F91848224610236F
:1028A000002100F064F8002806D01C487844BDE8F8
:1028B0001040563800F025B910BD104870B5006DB5
:1028C00020F001040B4800F0EDF80B4800F0EAF8A6
:1028D0000A4800F0E7F809E0206D20F001052046E5
:1028E00000F0E0F8204600F01BF82C46002CF3D155
:1028F00070BD0000E82300083C2400089024000874
:10290000EC220008F0220008F42200087200000007
:102910003428000077000000202800000C28000068
:1029200070B50446051F00F0F3F80068002C14BFD2
:10293000446870BD002C18BFAC423CBF20466468A0
:10294000F8D301680A18AA4218BF456003D12A6863
:1029500005461144016028684119A1421CBF6C6002
:1029600070BD6168696021680844286070BD70B5F9
:10297000C468A50713D0650211D4B2F5807F09D0D1
:10298000B2F5007F06D0B2F5806F08D1012300F1C7
:10299000240106E05D1E6FF07F46B54201D30120A1
:1029A00070BD0161C361416024F470611143C16075
:1029B000002070BD2DE9F0410C461646070047D0B7
:1029C000104600F06FF82078611C61280AD0722848
:1029D00002D077283CD102E00125002405E0022541
:1029E000042402E0082448F2020511F8010B2B2808
:1029F00006D0622809D011F8010C74280AD00BE027
:102A000045F0030544F00204EFE745F0040544F007
:102A10000104EAE744F010043846214601F018FFAB
:102A2000411C15D00021316171604FF40071F560D7
:102A3000F1617061200704D530460222002100F0C8
:102A4000E1F8306D40F0010030653046BDE8F081BE
:102A50000020FBE72DE9F0410D460646104C206DA5
:102A6000C10704D0410804D020F00104F7E7224652
:102A70000EE0542000F097F807000ED0206D47F0CC
:102A800001010843542120653846FFF7E9FD3A4625
:102A900029463046BDE8F0418CE70020D6E700002B
:102AA000E82300082DE9F04704464FF000094FF0F5
:102AB000FF37C568D4E90486A80707D0204600F090
:102AC00051F9304601F0BDFE002802DA3846BDE873
:102AD000F087280502D54046FFF722FF4C2120460B
:102AE000FFF7BEFD206D20F0010020654846EEE7AF
:102AF00010B50446AFF300802046BDE81040FFF754
:102B00006BBC10B500F078F9BDE8104000F06EB96C
:102B100000487047EC2400087047704770477047C2
:102B200038B504460A4600206946AFF30080002805
:102B300008BF38BD02460099204600F085F9012003
:102B400038BD012000F072B9F8B5AFF3008005463A
:102B500000200C46102000BF0646A819A0420DD93F
:102B6000324669460020AFF30080070008BF00F03E
:102B70005DF90098A04218BF0546C419FFF7C8FFC9
:102B800005600746F01D20F007004619284600F0B2
:102B900054F9B44208BFF8BDA21B31463868BDE8FD
:102BA000F84000F051B970B50646FFF7B1FF05686F
:102BB00006F10B0020F00704B4429CBF002070BD5A
:102BC0002B466A68BAB11068A04210D304F108011C
:102BD00088423CBF5068586007D351681019416063
:102BE0001168091B016058601460101D70BD134608
:102BF0005268002AE7D121462846FFF791FF0028B6
:102C0000DED170BD2DE9F041044616460D464769F8
:102C1000007B80072ED0384601F018FE50BB3EB333
:102C2000012E02D0022E25D104E0204600F026F924
:102C300005441DE0384601F007FEE168002841F038
:102C40001001E16005DA204600F058F80120BDE8E7
:102C5000F081C9030BD56268E16A914200D8114640
:102C6000A26911442269891A814200DD084605449F
:102C7000002D01DA0220EAE7E16A6068E268814239
:102C800006D29103E06203D522F4003141F0100234
:102C9000A6690027AE4213DCE16A814201D90B46E6
:102CA00000E0034603EB060C2369ACEB030CAC45D8
:102CB00006DD814201D98C4600E084469C4505D161
:102CC000A760276042F02000A5620DE0AD1BE66919
:102CD000AE1B8142A66000D90846C01A281A20609F
:102CE0005819606022F0200003490840E06000208D
:102CF00084F84870ABE70000BFCFD7FFC16821F46C
:102D0000001141F08001C1600021816001607047C5
:102D10002DE9F047814614460E464FF0FF38324801
:102D2000D5685769054209D03846A16901F092FD7E
:102D3000002811DB2C48C0430540E5602B46324695
:102D40004946384601F089FDA16920F00042B21AD7
:102D500011440028A16103D02046FFF7CFFF404671
:102D6000BDE8F08770B504460569C06A61688842AD
:102D700000D80846E16821F42011E160C90312D5AA
:102D8000A84208D02246411B2846FFF7C1FF10B1D8
:102D90004FF0FF3070BD0020E562C4E90150E068EB
:102DA00020F48030E060002070BD10B50446C0689B
:102DB00020F02000E060A16AA06988420DD0204682
:102DC000FFF7D0FFE06820F4405040F01000E060D2
:102DD000A06AA0612069E062606044F24001E0689E
:102DE0008843E06010BD000010000200002801D000
:102DF00001F029BD7047000010B5014602A000F0A7
:102E00005EF8012010BD000053494752545245441A
:102E10003A2052656469726563743A2063616E2773
:102E200074206F70656E3A200000000010B500F04D
:102E30005FF8BDE81040FFF7D9BF00210160C0E98D
:102E40000110704710207047034640688C460028E8
:102E500018BF88423CBF03464068F8D3186818443E
:102E6000884207D00CF1030020F00700001D411A32
:102E7000521A0146081D0A60FFF752BD10B50146FF
:102E8000C268900703D0900607D5886A0AE000F070
:102E900057F801210160881E10BD8B6948681844ED
:102EA0000B69C01A91F848301BB191F84910401ACB
:102EB00010BD1103FCD50028FADD401E10BD70B511
:102EC00005460C460A2000E06D1C01F0C8FC35B137
:102ED00028780028F8D102E0641C01F0C0FC14B18D
:102EE00020780028F8D1BDE870400A2001F0B7BC76
:102EF00010B5012805D0002103A0FFF7E0FF012055
:102F000010BD09A1F8E7000053494752544D454D03
:102F10003A204F7574206F662068656170206D657A
:102F20006D6F7279000000003A2048656170206D75
:102F3000656D6F727920636F72727570746564006D
:102F400000487047E424000801F044BDF8B5154678
:102F5000069A1C460E46074600F09EF801213A6884
:102F600004F00100B140B04022EA0101DB4A08430D
:102F70000F213860B0001268814092F88120D35947
:102F800023EA010105F00F0303FA00F00843D051D2
:102F9000F8BD00BF2DE9F84304463848002C6BD03B
:102FA0001546002A68D0DFF88C8D01200E4600FA05
:102FB00001F91020D8F8002000EB410003218140E6
:102FC00092F8832041EA0901135923EA0101D5E966
:102FD000063703F00103B340194307F0030303FA74
:102FE00000F008433146105120466A6800F048F866
:102FF0002A7A2046314600F04FF8EA6820463146EA
:1030000000F06AF8A069D5E9041201F0010120EA94
:103010000900B14008433146A061204600F068F83D
:10302000D8F800004FF47E7205F1200702EA860E00
:1030300090F8840050F804C0C8CFD5E90B1203F013
:103040000103520101F0030166F3410307F0010699
:10305000D2B243EA860343EAC10111442CF0FF02D5
:1030600001FA0EF11143015108212868002808BF18
:10307000042144F801900020BDE8F88301005A00C3
:10308000B0B5E54C89000F2302F00F0201F0BDF945
:1030900094F8814001F08CB910B5DF4B02F01F02AB
:1030A0001B68D3E90543C01A6FF00F0303EAD00091
:1030B000042920446FF01F0404EBC10428BF04302E
:1030C000036838BFCC001F21A240A14023EA0101C0
:1030D0001143016010BD00BFB0B5DA4C49000323B5
:1030E00002F0030201F091F994F8804001F060B918
:1030F000B0B5E54C012302F0010201F086F994F825
:10310000824001F055B900BFDF4A1268D2F8BC20F6
:103110001258B2F1FF3FCFBF0F4889B24160002083
:10312000704700BFD84A1268D2F8BC201258B2F1DA
:10313000FF3FCFBF0848C06808600020704700BF4D
:103140000368B3F1FF3FC4BF0348704789B2C26050
:1031500081600020704700BF01008A003C490A6876
:1031600002B1704708607047F0B5394E2C24DFB2C9
:1031700000FB04F5366800FB0460C34C77512568FA
:103180002E6AB5F8BA5007FB0565C3F3072605613B
:103190001D0CC0E901650025C0E9065222680162E4
:1031A000116AC3EA234201EB461101F580514161E6
:1031B0008A60059909B109888181F0BD7CB5044612
:1031C000002001906069C668B6F5803F24D34FF6B1
:1031D000FF7126EA010101600068ED480068D0F83F
:1031E000BC1020690958B1F1FF3F15DC01A9FFF7B8
:1031F00099FF08B100250BE001980268D1B2150CC7
:10320000E2698A4204D9226A52F8211001B1884742
:1032100020692946FFF778FFB0B268B16269616A38
:103220001060106819B188470020606202E0A06A4F
:1032300000B180470020A061606900687CBD00BFCC
:1032400003492C22096800FB0210FFF7B7BF00BF3B
:10325000542700082DE9FF41D84E87690446D0E97C
:103260000358006AD4E90932E16A36680397A78AED
:10327000368F3E44ADF8086002AF0097FFF774FF49
:10328000002000210022434600902846FFF76CFFF3
:10329000216B384600F070FDBDF9080001F054F9CB
:1032A000BDE8FF8159B952B9C449002309680A6AC7
:1032B000B1F8BA1001FB00202149086008E0054B75
:1032C00031B12AB1044BC3E90012194600F008B825
:1032D0001846704703018A00E422000850270008BE
:1032E000F8B5B64A154E0C4601461268B01C92F865
:1032F00033308B4203D914B12368DD0600D0F8BD0A
:10330000106AB2F8BA200E4F02FB01056068D908B6
:103310003D60FFF7A5F9284601F050F83868002114
:103320002246FFF70DFF00283046E8D1386801F04B
:1033300045F8002818BF3046F8BD00BF01018A00DB
:10334000F42700089D490860704700BF9B49096841
:10335000096901EB80204FF48041405800F00F00D4
:10336000704700BF026812054FF0800258BF40222C
:10337000D0F808326FF35F239A420EBF0020C0F8E6
:10338000401201207047000002490A6860F30922D8
:103390000A60704700002740884800680168D0F83C
:1033A0008C004058C0F30720704700BF834909686C
:1033B0000A68D1F88C1001F017B800BFB0B52249E7
:1033C00051F8202051F82000C2F30114012200F02E
:1033D0000F0002FA04F500F041F800EB5500E04060
:1033E000B0BD00BF184951F8200000F00F00704731
:1033F0000246624803290DD8704B1B6893F8403091
:10340000934207D9104850F8223061F3051340F871
:1034100022300020704700BF50270008024657485E
:103420000F290ED8EE4B1B6893F84030934208D911
:10343000054850F8223023F00F03194340F82210BA
:1034400000207047502700088003264002490A6880
:1034500060F301020A6070470005264010B504467B
:1034600048B1DF48006890F83F00A04207D32046EB
:1034700000F0E2FB01E000F021FA00B110BD2046AF
:10348000BDE8104000F012B850270008D34A02EB04
:103490008001096C01F00701042904D152F82010C1
:1034A000082060F35F1188B2704700BF1E4901EB2E
:1034B00080021E48105800F00700042804D11C4860
:1034C0001058082262F35F1040F21312904215D098
:1034D000012815D0022809D0B0F5887F13D040F21A
:1034E0001111884215D0E0B913487047486A00F0BE
:1034F0000300032814D1B748C0687047086B03E085
:10350000B4488068704708684FF4004101EA1040F1
:10351000704708484FF40041006801EA40307047A6
:10352000486A0020704700BF0C05264034FEFFFFAC
:10353000F4FDFFFF1000274000127A000246A84861
:10354000006890F83E300D48934215D9052905D200
:10355000A24801F0070100EB82000BE0A1F58073A7
:10356000132B09D801F01F009C4941F8220001EB00
:103570008200042101640020704700BF01004A005E
:10358000974800680168D0F888004058000E7047DE
:1035900050270008924909680A68D1F888108B58AA
:1035A00023F07F4343EA0060885070478C490968E4
:1035B0000A68D1F8881000F017BF00BF5027000834
:1035C0002DE9F04F824A0139072902F1FD0000F28E
:1035D000FC80DFE811F008001200FA001700FA0082
:1035E000FA00FA007C007B490A78002A40F0ED805E
:1035F000012048700020BDE8F08F76490020487017
:10360000BDE8F08F7648754CDFF8C8814FF0000CAC
:103610004FF002094FF0010E00270026D0F800A05D
:1036200004F1400504F53F71C8F802C09AF83F0064
:10363000431C0020B342DDD03EB104EB8602D2F839
:10364000FC22B2F1FF3F40DC03E0D4F88022002AE4
:103650003BD555F8262002F00702022A0BD0042A97
:1036600008BF54F8262086BBD4F8882269F31D725F
:10367000C4F8882229E0BEB151F8262012F0405F3C
:1036800006D051F8262002F04052B2F1805F04D1FA
:103690000EFA06F21043A8F8040051F8262069F348
:1036A0001D7241F8262005E0D4F8882269F31D72C6
:1036B000C4F888229AF83E2096420EFA06F238BFE5
:1036C00045F826C01743A8F802700136B2E7414D0D
:1036D0001046B5F80280B8F1000F0DD03E4B3F4CBC
:1036E000D4F8301201F0030103291ED0D4F83012AF
:1036F000002B68D0013BF3E73849D1F88022B2F1C2
:10370000FF3F10DC374BD1F890421A461BB1531CD7
:1037100014F00104F7D0002A55D0D1F8880240F007
:103720004050C1F8880200204DE0002B4BD0EC49FE
:10373000B5F804E04FF00109D1F800A09AF83F1065
:1037400001F1010B002159453CD009FA01F515EAB8
:10375000080F35D09AF83E60B1423EBF04EB8106B7
:1037600002223264013351B104F550764F1E56F8EF
:1037700027C0013B0AD01CF00102F8D006E0D4F8C3
:103780009062013B02D016F00106F8D07BB181B106
:10379000481E04F5407656F8207015EA0E0F0CBF4F
:1037A00047F0405227F0405246F8202007E000231F
:1037B00006E0D4F8880240F04050C4F888020020A7
:1037C0000131C0E7034D00216970BDE8F08F00BFF3
:1037D000020042004425000840420F00000326403A
:1037E00050270008C0BDF0FF68480222816862F3DC
:1037F0001D718160016821F000410160C16821F004
:103800000041C16000207047F8B5604D044626466F
:10381000E86840F00040E860286936B110F0040024
:1038200003D100F0CEFD013EF6E7A868022161F366
:103830001D70A86004B11EB1286840F000402860E7
:1038400000272869BE4206D010F0010003D100F025
:10385000B8FD0137F5E72CB1BE4203D1FFF7C4FF35
:103860000348F8BDA86840F04050A8600020F8BDAB
:1038700002004A0045490A68C2F300636FF39F42A1
:10388000C37102604A68C2F308436FF35F32038179
:1038900082808A68C2F301738373C2F30C2383812D
:1038A00002F00F03D2B212098372C272C968C1F367
:1038B0000842C1F302210282817170472DE9F04173
:1038C00086B001AC14212046FEF7CAFE2046FFF761
:1038D000D1FF2E4801680020B1F1FF3F1FDC9DF8A9
:1038E000121002291BD0BDF80810C1B19DF80B00C1
:1038F0000222002808BF0122A2FB0145DDF8048056
:103900005FEA55064FEA34070020FFF7CFFDE0FBE2
:10391000087622462B4638463146FEF7ADFD06B006
:10392000BDE8F08110B519490A68002A2CD4036853
:10393000C2796FF39F43002A18BF03F180730B60B5
:10394000838802896FF35F3362F318434B60104B37
:103950008289847A03EA0222C37A04F00F0463F3B3
:103960000714837B224403F0030342EA03728A6054
:103970008279CB6862F30A23CB60008ACA6860F35D
:1039800018420020CA6010BD0A4810BD80052640BC
:1039900000FF1F0006490E484158C9071CBF0548D3
:1039A0007047016821F0004101600020704700BFAE
:1039B00074FCFFFF03004A00054800F021BD00BF72
:1039C00003490A6822F0010210440860704700BFF2
:1039D0000C05264080B5FFF7EFFF0120BDE88040D1
:1039E000FFF7EEBFB0B50346D348032914D8D14C36
:1039F000246894F842509D420ED909B9082A0CD384
:103A0000012901D1102A08D3022901D1042A04D3A3
:103A1000032908BF002A00D0B0BD94F8750001FA50
:103A200000F094F8741011400843A16801EB830181
:103A3000C1F8000C0020B0BD0246BF48032A0ED8D2
:103A40000AB908290CD3012A01D1102908D3022A66
:103A500001D1042904D3032A08BF002900D07047EC
:103A6000B448006890F87430194090F87530806858
:103A70009A40114341F08041C0F800140020704783
:103A8000B0B5AD4A032829D808B908290BD30128B5
:103A900001D1102907D3022801D1042903D3032817
:103AA00008BF00291AD1A34A0325126892F877406B
:103AB00092F87430194005FA04F4214392F87640E4
:103AC000A340194392F8753098400843916800224A
:103AD00040F00040C1F80004D1F800041046B0BD29
:103AE0005027000803469448012B05D01BB907292D
:103AF00098BFFF2A11D970470F29FCD80023B3EBD8
:103B0000124FF8D18B480068B0F87A3080681844BA
:103B100050F8213062F3172309E086480068B0F8B6
:103B200078308068184450F8213062F30F2340F851
:103B300021300020704700BFB0B5441E7D480068AA
:103B400090F83F00844224BF7B48B0BD7B4D0221EA
:103B500055F8240061F31D7045F8240000F031FC95
:103B600055F8240020F0004045F824000020B0BDA6
:103B70002DE9F843461E6F480F46006890F83F1045
:103B80006D488E422AD26D4980463D4651F8260046
:103B9000894601F1400440F0004041F8260054F805
:103BA000260035B110F0010003D100F00AFC013D00
:103BB000F5E759F826004C4697B18DB9022161F31B
:103BC0001D7044F8260000F0FCFB54F8260020F09D
:103BD000004044F82600404608F10100BDE8F883A3
:103BE00000F04050B0F1005F05D154F8260040F0DD
:103BF000405044F826000020BDE8F883EF4A013821
:103C0000126892F83F20904224BF4B4870474B4ABD
:103C100052F82000C0F301720A71C0F3C062CA708A
:103C2000C0F304428A70C0F3042200F07F000870E1
:103C300000204A70704700BF2DE9FE43002498B36E
:103C40000546DE48006890F83F0068B30024A842AB
:103C50002AD38DF80840019401A92846FFF7CEFF2A
:103C6000134850F82500B0F1FF3F1DDC9DF8080017
:103C7000022819D09DF80500B0B19DF8061099B141
:103C8000A1FB00489DF8049028465FEA58074FEAD8
:103C90003406FFF70BFCE0FB09672246434630463B
:103CA0003946FEF7E9FB04462046BDE8FE8300BF27
:103CB000FC052640F0B50246C048006890F83F3049
:103CC0001D48934233D31D4B013A53F82240002C38
:103CD0002ED48C78022C2AD3102C28D84D7835B3CA
:103CE000122D24D891F803C013260F78BCF1000FD1
:103CF00008BF1626BE421AD83826BCF1000F08BFEE
:103D00007026BE4213D30879022809D0290241EA5D
:103D100004410B4C3944214041EACC6143F8221064
:103D200053F8221060F31D71002043F82210F0BDFB
:103D30000230F0BD5027000801004A00000626406E
:103D40007F1F1F00B0B50A4D0446286840F00800E8
:103D50002860286934B110F0040003D100F031FB71
:103D6000013CF6E70348002C18BF0020B0BD00BF9F
:103D70000000274002004A00B0B5C8B1B0F90020E9
:103D8000164D0D4B02F00F04043C2C441034B2F1DC
:103D9000FF3FC8BFD4180279114B520122702A6824
:103DA0009A4203D1B0F9000000F008F80020B0BD3D
:103DB0000048B0BD0100560000E400E000F1100230
:103DC0000648074B0068984219BF064850F8220081
:103DD00053F8220043F82210704700BF08ED00E0BE
:103DE00000200008002000100120FFF729BA000081
:103DF000024909784843FEF72FBB00BFF8220008AC
:103E00002DE9F043234A00F1080ED0E90094D0F8E0
:103E10001C8021499EE8E05053680B6293684B6216
:103E20001368C1E90094C1F81C808B6201F108039A
:103E300083E8E0501369CB6252690A63F1EE102AFD
:103E400012F0900F21D0026A4A63426A8A63826A42
:103E5000CA63C26A0A64026B4A64426B8A64826BF8
:103E6000CA64C26B0A65026C4A65426C8A65826CE0
:103E7000CA65C26C0A66026D4A66426D8A66826DC8
:103E8000CA66C26D0A67006E4867BDE8F04300F07D
:103E900031B800BF24ED00E028280008034801885D
:103EA00009B1008870474FF4807070470C0000160D
:103EB0000348017809B1007870472120704700BF9E
:103EC0000100001609490A4A08681268120618BF5C
:103ED00040F480204A68120418BF40F480304968DA
:103EE000B1F5803F28BF40F40030704700082640FD
:103EF00004002640FEE7704704484FF0004101608F
:103F00000349006801EAE070704700BF480027409D
:103F10000300460070B56422002818BF1922002350
:103F20008A42C44A38BF012312681468B2F8AC5000
:103F3000665926F003061E4466511468665926F435
:103F400040766651B2F8AE4015682E5926F0030649
:103F500033442B5113681D5925F440751D5138B158
:103F60000220222938BF0120112938BF00201DE07E
:103F700092F85500884212D292F85600884210D228
:103F800092F8570088420ED292F8580088420CD21C
:103F900092F8593004208B4238BF052006E00020FB
:103FA00004E0012002E0022000E0032051680A68DA
:103FB00022F00F021044086070BD00BF50270008B7
:103FC0002DE9F041054600F0ADF958B16D4C6F4E4A
:103FD0006B4FFEF749FA804635B100F08BF870B1AF
:103FE00050200EE0194E2DE0002030600120247892
:103FF00000F0CEF8064610BB00F01CFA0DE0624857
:10400000006830600B216478386861F30400386020
:104010000320FFF7EDFE00F01DFA386864F304009A
:1040200038604DB10720FFF7E3FE00F0F3F9002000
:1040300000F0AEF8064602E000F024FA0026404602
:10404000FEF716FA3046BDE8F08100BF03004200DB
:104050000B48016801F47F41B1F5685F05D1016843
:10406000024A114001F5685101607047FFC5FFDF4A
:1040700003483A22016862F30F210160704700BFD4
:1040800044002740B0B518B3C16809B30168F9B15D
:104090000179174A02EB81029368DBB1194683422A
:1040A00008D05C6934B1037E257E9D4298BF2146CD
:1040B0002346F4E783420BD00B6983B90B7E047E61
:1040C0009C420CD20023C0E90431086190600CE0EE
:1040D0000020B0BD00219060C0E9041105E04A69EC
:1040E0000161426102B1106148610120B0BD00BFB1
:1040F000582500081F4906480A68120258BF00F1F7
:10410000807009680140081AB0FA80F040097047D1
:104110000000045210B5174C17492068C00D60F319
:1041200018612068084020600820FFF761FE6FF0EA
:1041300063012268084619B1411CB2F1FF3FF8DC67
:10414000A8B1206820F0806020600120FFF750FEB9
:104150002068000209D40A480A49006800F04BF9B7
:1041600003D00948094900680860002010BD0348D1
:1041700010BD00BF00002640FFFFFBAC0200420064
:104180001CFF26404007001610180016307F2640FE
:10419000F8B50546FFF78CFE0746FFF77FFE06469B
:1041A0000E20FFF7D3F8222F0ED8B6F5807F0BD163
:1041B00050B9C3484FF218010024006840684258C3
:1041C00065F31862425005E0194C232F02D3B6F56F
:1041D000807F02D0B6F5807F27D017481749002D81
:1041E00008BF00F1105100F1020204BF0122C0F625
:1041F0000042B6F5807FB24E08BF0A463068B0F87C
:10420000BA10006A451801212846FEF799FF60B9E7
:104210003068D0F8BC0029580029FCD4E86800F0C8
:104220007F40B0F1204008BF04462046F8BD00BFE3
:1042300004004200502700080100000C010100307A
:104240002D48016841F002010160016841F001015F
:104250000160704701480068704700BF18E000E047
:1042600010B5194A0C4600210023052B03D042F853
:1042700023100133F9E70A490A4ACA6300F026F815
:104280001D4924F07F40486000208860086840F0A5
:1042900002000860086840F00100086010BD00BF1F
:1042A00000200008A9420010B0B513480068C00300
:1042B00000D4B0BD044D0024052CFAD055F82400DC
:1042C00000B180470134F7E7B42500080A49042803
:1042D00003D1086840F004000CE04FF0407202EA9D
:1042E0000060774A12681368D2F8A420D05008689A
:1042F00020F004000860704710E000E07047000004
:1043000080B5FEF7B1F806490A6842F470020A6007
:10431000BFF34F8FBFF36F8FBDE88040FEF7A8B8A3
:1043200088ED00E0B0B5664D28680168D0F89C00C3
:104330004458FFF7B3FDB0F5807F0ED10E20FFF794
:1043400005F80446FFF7B4FD00212228B4FA84F0F2
:1043500088BF012140090843B0BD28680168D0F832
:104360009C20535823F4406353504FF4406102683B
:10437000D0F89C30A1439D58294399500168D0F84A
:104380009C004058604010F4406018BF0120B0BD50
:10439000416812681368D2F89C40E5582D0A65F30D
:1043A0000921E1501168D2F8A02000685050B0BD3A
:1043B000255825EA030319432150B0BD0021FEF71B
:1043C000A3BE0120FFF714BD00680168D0F89C204F
:1043D000535864F3030353500168D0F8A0004258C7
:1043E00064F303024250B0BD8B5823F47F4343EA89
:1043F000002088507047097800F01F0088427047FD
:10440000016841F00041016070478B4002FA01F100
:1044100024687047B0B5FFF741FDB0F5807F03D148
:1044200027480324FFF7D0BF0148254AFFF7B0BF54
:1044300020180016B0B5FFF731FDB0F5807F03D12D
:104440001F480224FFF7C0BF01481D4AFFF7A0BF65
:1044500044180016B0B5FFF721FDB0F5807F0AD1F2
:104460001748042300680168D0F89C00425863F3A1
:104470000E324250B0BD0248114AFFF789BF00BF5B
:104480004C18001610B5FFF709FDB0F5807F04D178
:104490004FF4C0406FF4E04105E008484FF440712C
:1044A000006820F44070064A12681368D2F89C2015
:1044B000D45821400843D05010BD00BF1C1800162E
:1044C00050270008B0B50020FEF778FFE0B10F4D8F
:1044D0000446A860FFF754F80130B4FBF0F0E86040
:1044E000FEF75AFF0130D04A4FF47A71B4FBF0F076
:1044F00068600138B0FBF1F1B0FBF2F0013001313E
:104500002870C803C5E90410B0BD00BFF822000838
:1045100080B50A48FEF716FFFFF7F0FEFFF7D2FF5F
:10452000032000210022FEF7BDFE0548FEF716FE1F
:104530000448BDE88040FEF78DBE00BFDC5200108D
:10454000C8250008A8520010002808D400F01F0158
:104550000122400902FA01F1014A42F82010704795
:1045600000E100E02DE9F04716460D460746042815
:104570001E48984602BF0E460D2505271C2F8FBFEB
:1045800040F23114791CC9B230F8114030F817A04C
:1045900001201749B84008421CD0384600F046F8C0
:1045A000A8F80040A0B18146384600F025F88542C1
:1045B0000ED219F805100AEB060211446A1C824259
:1045C000A8F800100AD219F802000AEB000405E06E
:1045D000214603E00AEB0501A8F80010A2B289B257
:1045E0000448914238BF0020BDE8F087CE53001048
:1045F000280B000C000102040146C21E0120082AFB
:1046000007D8DFE802F0050A0E0A0A050C0A1000B6
:1046100070471A2903D01B29FAD0002070470220C6
:1046200070471A207047102070470000C11E0829EB
:1046300009D80D48DFE801F00E0D050D0D0F110D25
:1046400013000F4870471A280BD01B2804BF0948D5
:104650007047002070470948704707487047044872
:1046600070470248704700BF9C530010CA530010A7
:10467000BA530010CC530010B8530010B7530010B9
:104680009D53001001480078704700BF482700087C
:1046900070B514460D460646AE4208BF70BD33687D
:1046A00053B130792040A04206D17079800703D4FD
:1046B000B268204602219847F668EDE72DE9F041FF
:1046C0001C4615468846064640F28977BE4216D0FB
:1046D000336893B130792840A8420ED170792040D8
:1046E000A0420AD0B268284621469847611E18BFEA
:1046F0000121084388F8000001D0F668E6E730465B
:10470000BDE8F0812DE9F84F4068454C8846012905
:10471000C6B208BF022E2BD0404600F089F80746EB
:104720000120A3468DF803009348011D022F03D0FA
:10473000082F01D09049081D04680D680DF1030190
:1047400032463B462046FFF7B9FF81469DF80300FD
:1047500098B10DF10301284632463B46FFF7AEFF04
:1047600001469DF80300B0FA80F04FEA501A07E0C6
:104770002C484088002850D1CEE74FF0010A294646
:10478000012F0CD1BAF1000F09D028463246FFF7AD
:104790007FFF204649463246FFF77AFF1BE0102E86
:1047A00008BF042F0ED0082E5C4608BF082F13D177
:1047B0000020FEF703FE1C49B0FBF1F10020FFF7DB
:1047C000A9FB09E00020FEF7F9FD1749B0FBF1F164
:1047D0000120FFF79FFB5C46BAF1000F1DD1022EAE
:1047E00018BF012E18D1B8F1080F0DD0B8F1040F81
:1047F00012D10E480B4A01681378194051700BD042
:10480000016821F0010106E00648407820B1074820
:10481000016841F00101016000242046BDE8F88FE5
:10482000FF004200B025000840420F0010E000E009
:10483000082818BF042800D17047022818BF01209B
:10484000704700207047FEE7002070470020704747
:10485000012070474FF0FF307047002070477047CD
:10486000B0B500EB011100220431102A08BFB0BD21
:1048700004688B5CA55C6B40A3540132F5E7000033
:1048800010B500F01EF8044618B900F057F80446B9
:1048900018B100F0BDF8204610BD002040F6E441FC
:1048A00000F070F800F0B4F80348FFF7EBFB034C9E
:1048B000002818BF0024EEE7CC2300080000020601
:1048C000FEE7002070470000F8B50646FDF7CCFD76
:1048D000044630787178B2786B46FFF743FE0546A0
:1048E00010BBBDF80000134FC0F3C70100F0070074
:1048F000795C21FA00F0C00701D00F4D14E0307848
:104900007178B2780DF10203FFF72CFE054658B915
:10491000BDF802000123C0F3C70100F007007A5C74
:1049200003FA00F0104378542046FDF7A1FD284615
:10493000F8BD00BF002800080101020410B50E4CAC
:1049400004F10800FFF79EFBA0B104F12400FFF77B
:1049500099FB78B104F14000FFF794FB50B104F1EA
:104960005C00FFF78FFB28B10448FFF78BFB08B111
:10497000002010BD024810BD10230008B02300081D
:1049800001170204014A42F8201070474C27000822
:10499000B0B50C460546FFF775FE08B10548B0BD39
:1049A000002020B928682146FEF7DCFCF9E700204A
:1049B000B0BD00BF0317020410B50446C1B20448DD
:1049C000FFF7E6FF002818BF4FF0FF34204610BD68
:1049D0005827000870B500210446FFF741FF012663
:1049E000204600F09FFA204600F075FAF5B20A2D35
:1049F00008D2204600F024FA20462946FFF730FF6F
:104A00000136EDE720460A21BDE87040FFF728BFD8
:104A100080B500F09BF800F009F800F08FF800F086
:104A20001BF8BDE8804000F01DB8000080B50020F4
:104A30000021FFF701F800200021FF22FFF752F8C4
:104A400000200021FFF71CF80248BDE88040FFF776
:104A50003BBF00BF795000102F2000210022FEF73D
:104A6000C1BF0000F8B51E4C1E4A1F4E0021A4F520
:104A700040752846B0471D48A64FB8471C4A2846EF
:104A80000121B0471B48B8471B48B8471B4A20467E
:104A90000421B0471A48B8471A4A20460621B047B1
:104AA0001948B847194A20460721B0471848B8475F
:104AB0001848B8471848B8471848B8471848B8477A
:104AC0001848B8471848B8471848B8471848B8476A
:104AD0001848B84718483946BDE8F840084700BFAD
:104AE0000003314038510010952F00106C51001018
:104AF00070510010A45100108B5000100051001094
:104B000034510010C8500010FC500010905000109C
:104B1000C45000106A5000106D500010705000100A
:104B200073500010765000107C5000107F50001021
:104B30008250001085500010885000100248332128
:104B400001608160704700BF08203040BCB5002084
:104B50009621FFF7DFF9FFF7B5F9A0B9634C256897
:104B6000FFF7CAF940B10120FFF742F96048006839
:104B7000B0F1FF3F40F3B78005F03F002060FEF743
:104B800009FFFEF727FF0120FFF71AFAFFF7C2FA25
:104B9000FFF76EFAFFF75CFA00200021FEF728FC11
:104BA0000020FEF703FC0120FEF7F4FC0020FEF7D6
:104BB000FDFC5048006890F83F4024B12046FEF7C5
:104BC000BBFF013CF9E7012000210025FEF7B6FC00
:104BD0000020FEF707FC50B90020FEF757FC40F21A
:104BE0001111884203D100200121FEF717FCFEF7C6
:104BF000FBFD00200021FEF7A1FC00200021FEF7B4
:104C00000DFC3D4C00210022002300952046FEF7BC
:104C10009DF920460121002200230095FEF796F918
:104C20003648FFF78FF800285AD10120FEF70EFC16
:104C30000020FEF7BBFB0020FEF7ACFC0020FEF7D7
:104C4000B5FC2F4C01200021A04700200021A047E7
:104C500002200021A04703200021A04704200021BA
:104C6000A04705200021A0472648FEF75BFE88BB31
:104C70002548FEF7C9FD68BB00200021FEF7CEFBEA
:104C800000200021FEF7B4FB20490120FFF712F8B5
:104C900018BB012042F21071FEF76AFFE8B900204C
:104CA000FEF772FBFEF796FE00206421FFF732F953
:104CB000FFF708FC1648174CA0471748A0471748AD
:104CC000A0471748A0471748A04717482146BDE806
:104CD000BC4008470420FFF7F3FD0320FFF7F0FD79
:104CE0000520FFF7EDFD0620FFF7EAFD00FF274056
:104CF00048002740502700080000314040420F0084
:104D00003D3500100C550010400D030032550010C9
:104D100020550010C94800102355001026550010DA
:104D2000295500102C5500102F5500102DE9F84F73
:104D30000021102915D0D0F8B4204318525C1A7104
:104D4000D0F8B4200A4452785A71D0F8B4200A44FA
:104D500092789A71D0F8B4200A440431D278DA718A
:104D6000E7E700F110014FF004086D46B8F12C0F91
:104D700008BFBDE8F88F4FEA880C0022042A03D050
:104D80008B5CAB540132F9E79DF800E09DF801B06F
:104D90009DF802A09DF803905FEA887219D1674AD6
:104DA0004FEA980312F80E7012F8094012F80A60E0
:104DB00012F80BE0184AD35CB946A246B3468DF808
:104DC00003708DF802408DF801608EEA030E8DF8B5
:104DD00000E0071D043108F1010807EB0C0414F88A
:104DE000102C14F80F3C14F80E6C14F80D4C82EAD9
:104DF0000E0207F80C208BEA03024CF00103FA5470
:104E00008AEA06024CF00203FA5489EA04024CF0E2
:104E10000303FA54AAE700BFA751001080B504208D
:104E20006FF07F41FFF71CFAFFF70AFAFFF728FD42
:104E300000F086F88248FDF797FB002080BD00BF98
:104E40002DE9F04300224FF01B0CD2B20F2A88BF8D
:104E5000BDE8F083056802F1010915F8028015F834
:104E6000094084EA080461B288EA44070CEAD111D7
:104E700087EA010E971CE95D6140D41C2B5D594007
:104E80008EEA0103AB540432036813F80950DE5D67
:104E90006E404D4085EA460576B20CEAD61675405E
:104EA00003F809500368DD5D1E5D6E404D4085EAE4
:104EB000460576B20CEAD6167540DD5503681D5DD1
:104EC00085EA0806694075B281EA46010CEAD51503
:104ED00069401955B9E7B0B501684B794A784C7A01
:104EE0004D7B4B7001684C7101684D7201684A73CB
:104EF00001688C7A8A788B798D7B8C7001688D71D2
:104F000001688A7201688B730168CD7BCA78CB799E
:104F1000CC7ACD700168CA710168CB720068C47325
:104F2000B0BD000010B5054A0021102908BF10BD12
:104F300003685C5C145D5C540131F6E70A540010B0
:104F40002DE9F041ECB02B4868902AA0D0E901127D
:104F5000C0686B902B48CDE96912649029A0D0E914
:104F60000112C068CDE96512679036ACB021201DF2
:104F7000FDF776FB68A8639064A836902046FFF79B
:104F8000D5FE244FB84705462046FDF7DDFFB8475C
:104F9000DFF88480214C291A4046A04720486D46FE
:104FA00032901FA0D0E90112C06835902048CDE9A9
:104FB00033122E901EA0D0E90112C068CDE92F1245
:104FC0003190281DB021FDF74BFB32A82D902EA863
:104FD00000902846FFF7AAFEB84706462846FDF788
:104FE000B3FFB847311A4046A0471548A0476CB0F8
:104FF000BDE8F0812B7E151628AED2A6ABF715883A
:1050000009CF4F3CAE2D8A571E03AC9C9EB76FACA8
:1050100045AF8E51554200104555001069250010CE
:105020001BDE151628AED2A6ABF7158809CF4F3C6C
:1050300051AE2D8A571E03AC9C9EB76FAC45AF8E08
:1050400037550010F1EE100A4FF6FF71C0F2C03173
:1050500020EA010040F04070E1EE100A70473A7417
:1050600074003A7474003A7474000B07010B070261
:105070000B07070B08010B08020500000B08030BC8
:1050800008040B08050B08060B08070B01000000BD
:10509000010000000B0000001D00000000000000E7
:1050A00000000000000000000000000001000000FF
:1050B00000000000000000000000000000000000F0
:1050C000000000000B060700010000000A000000BD
:1050D0001D000000000000000000000000000000B3
:1050E00000000000010000000000000000000000BF
:1050F0000000000000000000000000000B06060099
:1051000001000000060000001D000000000000007B
:10511000000000000000000000000000010000008E
:10512000000000000000000000000000000000007F
:10513000000000000B060400010000000000000059
:10514000000000000000000000000000000000005F
:10515000000000000100000000000000000000004E
:105160000000000000000000000000000B00000034
:10517000010000000000000000000000000000002E
:10518000000000000000000000000000010000001E
:10519000000000000000000000000000000000000F
:1051A000000000000B00018D010204081020408067
:1051B0001B366CD8AB4D9A2F5EBC63C697356AD44C
:1051C000B37DFAEFC5913972E4D3BD61C29F254A20
:1051D000943366CC831D3A74E8CB8D010204081029
:1051E0002040801B366CD8AB4D9A2F5EBC63C697AF
:1051F000356AD4B37DFAEFC5913972E4D3BD61C28B
:105200009F254A943366CC831D3A74E8CB8D010206
:105210000408102040801B366CD8AB4D9A2F5EBC22
:1052200063C697356AD4B37DFAEFC5913972E4D37A
:10523000BD61C29F254A943366CC831D3A74E8CB86
:105240008D01020408102040801B366CD8AB4D9AAB
:105250002F5EBC63C697356AD4B37DFAEFC591392A
:1052600072E4D3BD61C29F254A943366CC831D3A54
:1052700074E8CB8D01020408102040801B366CD8E6
:10528000AB4D9A2F5EBC63C697356AD4B37DFAEFF7
:10529000C5913972E4D3BD61C29F254A943366CC6F
:1052A000831D3A74E8CB00000300000001000000F9
:1052B0000100000000000000050360000400000081
:1052C0000100000000000000010000000604600072
:1052D0000800000028270008E93D001000002040D9
:1052E00000002440000000400000000000002340B7
:1052F000000030400000314000009F40000022408C
:105300000000104000009D402020202020101010A0
:10531000101D1D8017007500FF03060206003604ED
:10532000102000007FC0000000040000000000000A
:105330000019324B647D0000000000804000080B23
:10534000100000000000FF012002001F0080000488
:10535000FF081018001000140018001C4044484CAE
:1053600050000000081000000800000004000000C9
:1053700004100000001200000421000000210000C1
:105380000016000040114002C41300138013A01344
:1053900040138813A81320001C0000000000081808
:1053A0001C1D1E1F202122232425262C2D2F3031A9
:1053B0003738393A3B3C3D00001D000810182028C2
:1053C000303840485058606870780008000000008D
:1053D000010001000100010001003F004000400009
:1053E00044007E007E00F600F800F800F800F900A6
:1053F000F900FB00FD00FD00FF00000101010E01AE
:1054000010011001300130013001637C777BF26BB9
:105410006FC53001672BFED7AB76CA82C97DFA59BA
:1054200047F0ADD4A2AF9CA472C0B7FD9326363F1F
:10543000F7CC34A5E5F171D8311504C723C318960C
:10544000059A071280E2EB27B27509832C1A1B6EAE
:105450005AA0523BD6B329E32F8453D100ED20FC50
:10546000B15B6ACBBE394A4C58CFD0EFAAFB434D53
:10547000338545F9027F503C9FA851A3408F929DF0
:1054800038F5BCB6DA2110FFF3D2CD0C13EC5F97E0
:105490004417C4A77E3D645D197360814FDC222AE6
:1054A000908846EEB814DE5E0BDBE0323A0A49061D
:1054B000245CC2D3AC629195E479E7C8376D8DD591
:1054C0004EA96C56F4EA657AAE08BA78252E1CA669
:1054D000B4C6E8DD741F4BBD8B8A703EB5664803C9
:1054E000F60E613557B986C11D9EE1F8981169D94C
:1054F0008E949B1E87E9CE5528DF8CA1890DBFE6CF
:10550000426841992D0FB054BB160000F401000011
:10551000140004010A0009050800030063010000EB
:105520000400000401000402000403000404000459
:1055300005001E0105000045434220656E63727937
:1055400070743A20002564007C550010E0220008A9
:105550000801000058230010845600102828000875
:10556000780000005823001084560010E82300083B
:10557000400400007423001099EFFFFF01000000B9
:10558000000000000000000000000000000000001B
:10559000000000000800000000127A0000127A00EB
:1055A00000093D00401F00000000A00F8907000017
:1055B00089070000054700100000000000000000FF
:1055C000A023000800000000000000000A00000006
:1055D00005470010010000000000000088230008BB
:1055E00000000000000000000A0000000547001055
:1055F00002000000000000009023000800000000EE
:10560000000000000A000000054700100300000031
:1056100000000000982300080000000000000000C7
:105620000A0000000000000002000000000000006E
:10563000040000000000000008000000000000005E
:1056400001000000000000001000000005470010ED
:105650000400000000000000A82300080000000073
:10566000000000000A000000C13500100100000029
:1056700000000000F8270008000000000000000003
:10568000FF0000000000000000000000000000001B
:10569000000000000000000000000000000000000A
:1056A00000000000000000000000000000000000FA
:1056B00000000000000000000000000000000000EA
:1056C00000000000000000000000000000000000DA
:1056D00000000000000000000000000000000000CA
:1056E00000000000000000000000000000000000BA
:0C56F000000000000000000000000000AE
:04000005100022E1E4
:00000001FF
