:020000041000EA
:1000000000200008EB0000100D0000004D01001062
:1000100000000000000000000000000000000000E0
:100020000000000000000000000000004901001076
:10003000000000000000000049010010490100100C
:100040004901001049010010490100104901001048
:100050004901001049010010490100104901001038
:100060004901001049010010490100104901001028
:100070004901001049010010490100104901001018
:1000800010B5064C2378002B07D1054B002B02D06E
:10009000044800E000BF0123237010BDB003000836
:1000A0000000000014150010044B10B5002B03D005
:1000B0000349044800E000BF10BDC0460000000036
:1000C000B4030008141500100230800803D001307A
:1000D0000238FCD1C046C0467047EFF3108072B6BC
:1000E000704780F3108870477047FFF7FDFF72B6C6
:1000F0000F4C104DAC4209DA21686268A368043BDA
:1001000002DBC858D050FAE70C34F3E70A490B4A2F
:100110000020521A02DD043A8850FCDC08480949E4
:100120000860BFF34F8F00F0FFFE00F0AFFEFEE768
:100130002015001038150010B0030008C80500088D
:100140000000000808ED00E0FEE7FEE700B504202F
:100150007146084202D0EFF3098001E0EFF3088016
:10016000043000F093FCFEE7014B18607047C04676
:10017000C4050008044B1B681A00BA3212881B6AB7
:100180005043C0187047C046C40500081D4B984234
:100190000FD010D840282FD005D8002830D01028F4
:1001A00028D019481EE0802828D080235B00984280
:1001B000F7D1144816E0154B984214D008D8A02364
:1001C0001B0698421CD0124B9842EAD1A0200BE0AB
:1001D000104B98420AD0104B984209D00F4B9842CE
:1001E000DFD10F487047A420C003FBE70D48F9E7B3
:1001F0000D48F7E70D48F5E70D48F3E70D48F1E73F
:100200000020EFE706005200FF005200010000F05E
:10021000090000A0040000F0050000F0030000F059
:100220000100520002005200030052000100500081
:10023000020050000500520010B50020FFF79AFFA1
:100240000A4B1C682300BC331B68C0180368002BD2
:100250000ADB074B1868FFF799FF012263689A6071
:100260009A68002AFCD110BD0248FCE7C4050008CA
:10027000CC03000802005000064B1B68BC331B680F
:10028000C3181B68002B03DA89B241600020704755
:100290000148FCE7C405000801008A000368002B40
:1002A00004DA89B2C2608160002070470048FCE730
:1002B00001008A00064B1B68BC331B68C3181B680F
:1002C000002B03DAC36800200B6070470148FCE78D
:1002D000C405000801008A00024B1A68002A00D1F8
:1002E00018607047E0030008F0B52C246043154CFB
:1002F0001F0024681D0A2018FF2425402740124CA7
:100300001B0C26680760346A45608360BA363688FD
:1003100077433F1907612F0080376D017F01E7198F
:1003200064190A4D47611F043B436419236000238D
:100330008361059BC2610162002B01D01B88838110
:10034000F0BDC046E0030008C40500080810000026
:10035000F0B5836885B002AD2B80154B02681B6831
:10036000066A1B8F476A9B186B8043680095826AF8
:10037000C16A040003930369C068FFF7B5FF002159
:100380003B000A0000913000FFF7AEFF216B280010
:1003900000F030FB0022AB5E002B06DB1F22134077
:1003A0001E3A9A401300034A136005B0F0BDC046E0
:1003B000C405000800E100E0F7B52C25134C6843A4
:1003C000266869433418256901937118002D19D0E6
:1003D0008869002818D12E68002E15DA6768012474
:1003E00026004B689E40B44613689EB263461B04C9
:1003F0001E431660EA608C61BC40019BA4B24B6254
:10040000AC60FEBD0248FCE70248FAE7E0030008E2
:1004100004028A0007028A0073B5002642690400BC
:10042000D56801962B0CB34221D01B0413601368CE
:10043000194B00691B68BC331B68C3181B68B342A7
:1004400015DA01A9FFF736FFB0420CD10198E26935
:1004500003681E0CDBB29A4205D9226A9B009B58A6
:10046000002B00D0984731002069FFF705FFADB29F
:10047000002D09D063691D6000251B68636AAB42CB
:1004800005D098476562A56163691B6873BDA36A5F
:10049000002BF8D09847F6E7C40500082C2310B5C8
:1004A0004343034A1068C018FFF7B6FF10BDC046AB
:1004B000E0030008F8B5194B0F001B681A0033322F
:1004C0001278824227D9002925D01F250A681540B5
:1004D00021D11900BA310C88114E60431C6AD20830
:1004E000041929007868346000F07EFF290020009C
:1004F000FFF7C2FE3A0029003068FFF7CFFE041E66
:1005000007D101003068FFF7B7FE03002000002B81
:1005100000D00448F8BD0448FCE7C046C405000804
:10052000E403000801018A0003018A0010B5002AD3
:100530000DD1002914D10B4B1A681300BA331B8854
:100540005843136AC018084B1860080010BD0029F2
:1005500006D0064B196019005A60FFF7ABFFF5E7AC
:100560000348F3E7C4050008E40300087803000823
:1005700003018A00F7B5184F04003B680191DE685B
:100580003368834226D90025A94202D1FFF7A5FD91
:10059000050038680368002B1ADA1F220123224065
:1005A000934064097268A4001419226813420DD0A4
:1005B0009A43226000240021FFF75EFE019B002B7E
:1005C00002D12800FFF78DFD2000FEBD034CF2E7AD
:1005D000034CF3E7034CF7E7E4030008020188004B
:1005E0000301880004018A000A4B1B68DB681A6853
:1005F00082420DD959681F23420918401E3B83408F
:10060000920050581840431E9841034BC018704741
:100610000248FCE7E40300080001880004018A00A6
:10062000054B1B681A0088321B6812689B181868F3
:10063000000AC0B27047C046C4050008044B1B68DE
:100640001A0088321B6812689B181868000E7047E1
:10065000C4050008024B18694007C00F7047C04628
:1006600000002740A6220549D2008B580220DB4318
:100670009B0702D00123885818407047000026408D
:1006800010B5FFF7EFFF0023022801D1014B1B68D3
:10069000180010BDEC030008094A83009B18D02203
:1006A0009200985807221040042807D1C0229200D7
:1006B00098581F2303408020400018437047C046CD
:1006C0000000264010B5FFF7E7FF02281CD005D830
:1006D000002824D0012814D0002014E01223FF3376
:1006E000984214D01423FF33984215D0033B98420C
:1006F000F2D10C4A0C4BD358002BEDDA80200002CB
:1007000001E00A4B186810BDFFF7BAFFFBE7FFF7DF
:10071000A1FF0028E0D0F1E7024A054BEBE70548CE
:10072000F1E7C046000026400C050000E803000881
:100730003C05000000127A00B023154ADB00D358B4
:1007400010B59903DB01DB0F890BC371114B0160FD
:10075000D3580F24D904DB01DB0D0381B123DB0067
:10076000D358C90C81801900214081721909214098
:10077000C172D9029B009B0F8373074BC90CD358DE
:1007800081815A05DB01520FDB0D8271038210BD9E
:1007900000002640840500008C05000010B5104BB9
:1007A000421E1B683F331B78934216D97F221F24B9
:1007B0008030FF300B4B8000C3581A400A701A0C6F
:1007C0002240180A8A701A012040E2404870002036
:1007D0009B009B0FCA700B7110BD0348FCE7C0461D
:1007E000C40500080000264001004A00F0B589B0A9
:1007F00003AC14220021200000F0F6FD2000FFF7DA
:100800009BFFB0231A4ADB00D25800239A4203DA36
:10081000A37B023B5A1E9341E57900266A1E95414F
:100820000135B34221D0A488B4421ED0039B3000CE
:100830000193FFF747FF2A00330007003100200033
:1008400000F0BCFC0C0005003300019A31003800B8
:1008500000F0B4FCE6076A08324363088018594187
:100860002A00230000F08AFC0600300009B0F0BD29
:1008700000002640F0B50026244B85B01B68070019
:100880003F331B78B3423ED0B0423CD083423AD390
:100890000522310002A800F0A7FD02A93800FFF7E9
:1008A0007DFF3B008033FF33194A9B009B58B342C6
:1008B00029DA02AB1B79022B25D002AB5C78B4425B
:1008C00021D09D78B5421ED01B7838000193FFF7E8
:1008D000F9FE2A00330007003100200000F06EFC12
:1008E0000C0005003300019A3100380000F066FC6E
:1008F000E6076A0832436308801859412A0023003A
:1009000000F03CFC0600300005B0F0BDC405000856
:100910000000264010B5041E04D1FFF767FF002831
:1009200006D008E0064B1B683F331B78834203D296
:100930002000FFF7C7FE10BDFFF79CFFEFE7C046A2
:10094000C4050008E02210B50124094B8000920084
:10095000C018835880589B069B0F9C400F2318405B
:10096000FFF7D8FF63081818210000F07BFB10BDCB
:1009700000002640144B30B51A68072413002C33AE
:100980001B781F2B15D883081D00A5432C1E0FD1E3
:1009900003342040A040814012689B002032D318CD
:1009A0000A00FF2181401C686240114061401960CB
:1009B00030BD802320401B06184380239B01126812
:1009C000C91889008850F3E7C4050008064B9A68E7
:1009D0000300064810339B00824202D19858995078
:1009E0007047034AD058FBE700ED00E00000000824
:1009F00000000010F8B506000D0000283AD00023D2
:100A0000C05E002828DB7188FFF7B4FF0024FF22B6
:100A1000032794460023F05E716883B21F40FF00F5
:100A20006646BA4089013140D243B940002815DBFF
:100A3000114E83089B009B19C026B6009F593A406F
:100A4000114399510D4B9A680D4B9A4202D12900DE
:100A5000FFF7BCFF2000F8BD0A4CD8E70F26334053
:100A6000083B064E9B089B009B19DE6932401143F0
:100A7000D961E7E7034CEDE700E100E000ED00E0BD
:100A80000000000801005600FEE7000002680A4B63
:100A900010B51A6042685A6082689A60C268DA606B
:100AA00002691A6142695A6182699A61C269DA61AE
:100AB000FFF7EAFF10BDC04690030008B0235B05B6
:100AC0005A782120002A01D05878C0B27047B0234C
:100AD0005B059A89002A02D0988980B270478020ED
:100AE0004000FBE77FB5274B86000D00F458042932
:100AF00001D0012927D100200FE0A3682B420BD1A0
:100B0000E36829001A685B6802920193039302A8C4
:100B1000236898471C4B1C606469002C0BD01B4B4E
:100B20009842EAD1012DE8D1174B18481A68184BA2
:100B30009A5104B070BD012DFBD1144B9842F3D0F3
:100B4000134B9C51F5E7022906D10F4B1B68181E69
:100B5000EFD01C6903E01C006369002BFBD100206F
:100B6000002CE6D0A3682B4209D1E36829001A685B
:100B70005B6802920193039302A823689847246953
:100B8000EEE7C046300400082C040008FF004200D5
:100B9000180400081A4B1B68190088311A68096884
:100BA00051180968016219008C31096852181268DD
:100BB00042621A0046321278002A1FD09A68E03248
:100BC0001268D2061AD5F222DB68D2019A58026066
:100BD000F022D2019A5842600A4A9A5882600A4A20
:100BE0009A58C260094A9A580261094A9A58426161
:100BF000084A9A588261084A9B58C3617047C046A8
:100C0000C405000804780000087800000C78000093
:100C10001078000014780000187800001A4B1B6848
:100C20001A008832196812688A18016A11601A005D
:100C30008C32196812688A18416A11601A004632AB
:100C40001278002A1ED09A68E0321268D20619D5AE
:100C5000F0224168DB68D201995081680B4A9950B3
:100C6000C1680B4A995001690A4A995041690A4A78
:100C700099508169094A9950C169094A9950016896
:100C8000E83299507047C046C40500080478000057
:100C9000087800000C78000010780000147800003C
:100CA00018780000F7B50700FFF708FF664D06004B
:100CB0006B68002B00D07DE0FFF70FFA6B680090A7
:100CC000002B00D089E0614C22681300BA331988E8
:100CD00007234B43126A9B181A68002AFCDADB6868
:100CE000DA0021D51B0F1B0759480193FFF752FF6C
:100CF0005849212E00D075E02268902013008833D7
:100D00001C68136800011C1923680B40034323600F
:100D100013008C3312681B68D3181A6811400843FB
:100D200018604B4B019A13438022484E920531685C
:100D300013430A00BA321088072200244243096A8A
:100D40005218D36054605368FFF7C1FE80235B00E4
:100D500098425DD1380000F05BFB32681300BA3373
:100D6000198807234B43126A9B181A68002AFCDA79
:100D7000DF68FB0003D538010009FFF74FFF364B52
:100D800032681F401300BA33198807234B43126A95
:100D900000989B180022DF605A60FFF7A2F9002C30
:100DA0000FD16B68002B03D008210120FFF79AFEBA
:100DB0002000FEBD01210800FFF794FE041E00D1B3
:100DC0007AE76B68002B03D002210120FFF78AFE2F
:100DD000224B9C42ECD0224CEAE704210120FFF791
:100DE00081FE70E720688022030088331C68036856
:100DF00052001C1923680B401343236003008C33FB
:100E000000681B68C318186801400A431A6088E725
:100E100033681A00BC32196A126852181168002926
:100E200010DBBA331B889A181368002B0ADB0423E3
:100E30000C4A11690B431361012F01D030BF8CE7BD
:100E400020BF8AE7054C88E730040008C405000885
:100E5000F0030008FF00FFFFFFFFFFDF0500420077
:100E6000FF00420000ED00E0C02280200649520051
:100E70008B58C0059B009B0803438B5080238858E8
:100E80001B0603438B5070470000264010B562B626
:100E9000034800F0C1F80020FFF704FFFBE7C0465D
:100EA0000020001010B50020FFF7F8FA10BD7047C1
:100EB00010B50020FFF746FD041E25D0134B186027
:100EC000FFF7BCFB411C200000F0CCF8104B0400E5
:100ED0001860FFF7A5FB411C200000F0C3F80D4B84
:100EE000441E18600C49200000F0BCF8FA210B4B9E
:100EF000013018708900200000F0B4F8084B013070
:100F00001860084BC003186010BDC046840000087C
:100F1000880000088000000840420F00940000088C
:100F2000900000088C00000810B52048FFF71CF95D
:100F3000B022E02130201E4CD200A35889005B0073
:100F40005B08A35063588343635080235B04A35022
:100F5000184B194AE250A02204339201E250FF22BA
:100F6000164BE250FFF780FFC02201215200A35828
:100F70008B43A350FFF79BFFFFF79AFF104B032013
:100F80001A681300BA33198807234B43126A802169
:100F90009B180022DA605A600A4AFFF7C7FA0A482B
:100FA000FFF79AF90948FFF7D3F910BD2014001094
:100FB0000000264084050000010002008C050000AE
:100FC000C40500088003000844040008E014001071
:100FD0009023034A5B01D058032318407047C04652
:100FE0000000204010B59024FFF777F8074B64010C
:100FF0001A5907491140074A0A431A5110225968E1
:101000001142FCD0FFF76DF810BDC0460000204033
:10101000FCFF00000100FA05F8B590250E4C6D01AB
:101020000700FFF75AF863590600DB439B0701D11D
:10103000FFF7D8FF80239B00E7506359074A1A4007
:10104000074B13436351102362681A42FCD03000EF
:10105000FFF747F8F8BDC04600002040FCFF000045
:101060000300FA05002243088B4274D303098B4224
:101070005FD3030A8B4244D3030B8B4228D3030C68
:101080008B420DD3FF22090212BA030C8B4202D30A
:101090001212090265D0030B8B4219D300E0090A32
:1010A000C30B8B4201D3CB03C01A5241830B8B423B
:1010B00001D38B03C01A5241430B8B4201D34B0324
:1010C000C01A5241030B8B4201D30B03C01A524189
:1010D000C30A8B4201D3CB02C01A5241830A8B420E
:1010E00001D38B02C01A5241430A8B4201D34B02F7
:1010F000C01A5241030A8B4201D30B02C01A52415B
:10110000CDD2C3098B4201D3CB01C01A524183090E
:101110008B4201D38B01C01A524143098B4201D348
:101120004B01C01A524103098B4201D30B01C01A73
:101130005241C3088B4201D3CB00C01A52418308ED
:101140008B4201D38B00C01A524143088B4201D31A
:101150004B00C01A5241411A00D20146524110467A
:101160007047FFE701B5002000F006F802BDC04659
:101170000029F7D076E770477047C046002B11D1A1
:10118000002A0FD1002900D1002802D00021C94334
:10119000081C07B4024802A14018029003BDC046D3
:1011A000D9FFFFFF03B4684601B5029800F030F89C
:1011B000019B9E4602B00CBC7047C046F0B5CE46BF
:1011C000474615042D0C2E0080B50704140C3F0C67
:1011D0009946030C7E435D43674363437F19340C98
:1011E000E4199C46A54203D980235B029846C44477
:1011F0004B4643435143250C36046544360C2404C6
:10120000A4195B19591820000CBC90469946F0BDF2
:10121000F0B54F464646D646C0B5040082B00D0034
:10122000914698468B422FD82CD04146484600F034
:10123000CFF829000600200000F0CAF8331A9C46B7
:10124000203B9A4600D576E04B46524693401F001D
:101250004B46624693401E00AF4228D825D05346E5
:10126000A41BBD41002B00DA7BE00022002300928A
:101270000193012352469340019301236246934018
:10128000009318E08242D0D90022002300920193FB
:101290000A9B002B01D01C605D600098019902B090
:1012A0001CBC90469946A246F0BDA342D7D9002265
:1012B0000023009201936346002BE9D0FB07984678
:1012C000414672080A437B0866460EE0AB4201D1F4
:1012D000A2420CD8A41A9D41012024196D4100217D
:1012E000013E24184D41002E06D0AB42EED9013EFE
:1012F00024196D41002EF8D1009801995346001928
:101300006941002B23DB2B005246D3402A00644660
:10131000E2401C0053461500002B2DDB26005746EB
:10132000BE40330026006746BE403200801A994115
:1013300000900191ACE7624620239B1A4A46DA40AE
:101340006146130042468A4017001F4380E7624609
:1013500020239B1A2A0066469A402300F340134339
:10136000D4E76246202300219B1A002200910192BB
:101370000122DA40019280E72023624626009B1A70
:10138000DE402F00B0466646B74046463B0033433A
:10139000C8E7C0461C2101231B04984201D3000C5E
:1013A00010391B0A984201D3000A08391B099842D8
:1013B00001D30009043902A2105C40187047C046EE
:1013C000040302020101010100000000000000000E
:1013D00010B5002903D1FFF7DDFF203002E0081C23
:1013E000FFF7D8FF10BDC04603001218934200D18A
:1013F000704719700133F9E7F8B5C046F8BC08BC6E
:101400009E467047F8B5C046F8BC08BC9E4670477B
:1014100001B40248844601BC604700BF6102000875
:1014200000002040000024400000004000000000B8
:1014300000002340000030400000314000009F4089
:10144000000022400000104000009D40202020208D
:1014500020101010101D1D8017007500FF030602DC
:1014600006003604102000007FC0000000040000C9
:10147000000000000019324B647D00000000008075
:101480004000080B100000000000FF012002001FB8
:1014900000800004FF081018001000140018001C41
:1014A0004044484C500000000810000008000000B4
:1014B00004000000041000000012000004210000DD
:1014C000002100000016000040114002C413001368
:1014D0008013A01340138813A81320001C000000E1
:1014E00003000000010000000100000000000000F7
:1014F000050360000400000001000000000000007F
:10150000010000000604600008000000A4050008B7
:10151000A50E001000000000F8FCFF7F0100000095
:1015200000000010000000088000000040150010BE
:1015300080000008F8020000B00300081802000054
:1015400000093D0000127A0000093D000000D007AC
:10155000A00F000004000000A9000010810000108E
:1015600080B230B5C00020D0104B07221C68230089
:10157000BA331B885A43236AD31819680029FCDA46
:101580003E210B4B062519600A4B0B491960A3211C
:101590000A4BC9005D500A4958505858206A121821
:1015A000002050605A58002AFCDA30BDC4050008FB
:1015B00004012640080126401E1F000000002640AE
:1015C0001C05000010B54378FF2B11D100F0ECF89A
:1015D0000400032000F0F8F8C3685A68012311687A
:1015E0001943116011681942FCD1200000F00CF978
:1015F00010BDF7B500900020019100F0E5F83F4DD7
:1016000006002B681A005033BC3214681B7804198A
:10161000002B5AD000F0E0F8070003281BD000F0A0
:10162000C3F8374A374B0500D358002B3EDA364A09
:101630000121300000F0F0F8002837D10198FFF7C1
:101640008FFF009B002B3ED02368002BFCDB00F0BB
:10165000B3F804002BE0062000F0B6F82B68BC338A
:101660001B68C0180368002B02DA284C2000FEBD5E
:10167000002000F0B9F8264B9842F6D00023254A06
:1016800019001268012000F0B7F80025A842ECD13B
:10169000002000F0A9F81E4A1F4B904203D09D4243
:1016A000E3D00135F4E79D42B9D1DEE7174C032FB3
:1016B00005D10121002000F0B7F80028F9D1280059
:1016C00000F0A2F8D2E7154CF1E700F06DF80E4AF1
:1016D00005000121300000F09FF8002809D1009B8F
:1016E000002B08D02368002BFCDB00F065F8040019
:1016F000E5E7064CE3E7094CE1E7C046C40500080E
:10170000000026401C050000CC0300080500520024
:1017100001018800DC030008F049020001005000CC
:10172000184BF7B51B68184A5C68042311690B4312
:101730001361012824D030BF2300FC331B69002B28
:101740001DD1A320114B1249124AC0000F681E5828
:1017500015680195104D0D6006251D503E20106046
:101760000E483E351D501D58002DFCDA0C48FC3447
:1017700020610F60A321C9005E50019B1360F7BD7B
:1017800020BFD9E7C405000800ED00E000002640B6
:1017900008012640040126401E1F00001C05000011
:1017A000AAAAAAAA0000000001B40248844601BC0B
:1017B000604700BFDB00001001B40248844601BC52
:1017C000604700BF3902001001B40248844601BCE2
:1017D000604700BF7501001001B40248844601BC97
:1017E000604700BFD10F001001B40248844601BC1D
:1017F000604700BFE905001001B40248844601BCFF
:10180000604700BFB903001001B40248844601BC20
:10181000604700BFE300001001B40248844601BCE9
:10182000604700BF9D02001001B40248844601BC1D
:10183000604700BF750500100000000000000000B8
:101840000000000000000000000000000000000098
:020000041000EA
:1020000000F80F08E72300100D0000003324001033
:10201000352400103724001039240010000000007F
:102020000000000000000000000000003B24001041
:102030003D240010000000003F2400104124001047
:1020400043240010432400104324001043240010B4
:1020500043240010432400104324001043240010A4
:102060004324001043240010432400104324001094
:102070004324001043240010432400104324001084
:1022E00000F002F800F06EF80AA090E8000C8244BA
:1022F0008344AAF10107DA4501D100F063F8AFF297
:10230000090EBAE80F0013F0010F18BFFB1A43F0D3
:1023100001031847383F0000683F00000A4410F8E6
:10232000014B14F00F0508BF10F8015B240908BF2A
:1023300010F8014B6D1E05D010F8013B6D1E01F821
:10234000013BF9D1641E03D0641E01F8015BFBD18F
:102350009142E4D370470000103A24BF78C878C196
:10236000FAD8520724BF30C830C144BF04680C609B
:10237000704700000023002400250026103A28BFE3
:1023800078C1FBD8520728BF30C148BF0B607047E7
:10239000642900F02981002070471FB503F0FAFC82
:1023A0000448054900F0D0FB00F01EFA00F082F965
:1023B0001FBD000034290008FCE70F0810B500F02D
:1023C0007CFA10BDDFF80CD0FFF7E7FF03F006FC46
:1023D00000F08EFB00F80F0803B4FFF7EFFF03BC1B
:1023E00003F012F97047FFF7FDFF72B61549164862
:1023F0004FF438720B680360001D091D521E002A3D
:10240000F8D1114811490860BFF34F8F1048804739
:1024100010488047FEE7FEE7FEE7042071460842C9
:1024200003D0EFF3098000F002F8EFF3088002F028
:10243000F3F9F2E7F1E7F0E7EFE7FEE7FEE7FEE7A3
:10244000FEE7FEE7002000100020000808ED00E095
:10245000894E0010E1220010801C800803D0401C2F
:10246000801EFCD100BF7047EFF3108072B670473A
:1024700080F310887047704753EA020C00F06980BF
:102480002DE9F04B4FF00006002B1FBFB3FA83F588
:1024900003FA05F424FA05F65E4012BF1643B2FAB9
:1024A00082F502FA05F4C5F120051EBF22FA05FCEB
:1024B00044EA0C04203556EA044C4FEA144418BF91
:1024C000641C4FF000084FF00009904271EB030CC0
:1024D00039D3002919BFB1FA81F701FA07F6B0FA2A
:1024E00080F700FA07F6C7F120071EBF20FA07FCA5
:1024F00046EA0C062037B6FBF4FCA7EB0507103FB5
:1025000007F01F0BCBF120062CFA06F60CFA0BFB9A
:1025100044BFB3460026202FA4BF5E464FF0000BF9
:102520005BEA060C08BF4FF0010B19EB0B0948EBF7
:102530000608ABFB027C06FB02CC0BFB03CCC01BEA
:1025400071EB0C01C1E70B46024641464846BDE827
:10255000F08B13B5084318BF4FF0FF300146AFF3BF
:102560000080BDE81C4070470FB4044910B503AAB1
:10257000029800F00BF910BC5DF814FB3C24000835
:102580002DE9F0410E460446002020622046E16815
:10259000884730B3252805D0D4E901219047206A27
:1025A000401CF2E7E168204600278847050018D064
:1025B000A5F14100192802D820354FF400673246B2
:1025C000294620462760FFF7E3FE40B1012804D0EA
:1025D000F61D26F007060836D8E7361DD6E728464A
:1025E000DAE7206ABDE8F0812DE9F04106460024D3
:1025F00010687529314616A510D0AFF30080002869
:1026000002DA404213A507E031688A0701D512A516
:1026100002E0490704D511A5012401E0AFF30080D1
:1026200000210A2206F1240709E0B0FBF2FCB0FB0E
:10263000F2F302FB1C00303078541846491C002885
:10264000F3D123462A463046BDE8F04100F045B8B4
:10265000000000002D0000002B0000002000000002
:102660004FF0000200B5134694469646203922BF2B
:10267000A0E80C50A0E80C50B1F12001BFF4F7AF76
:10268000090728BFA0E80C5048BF0CC05DF804EB58
:10269000890028BF40F8042B08BF704748BF20F8C6
:1026A000022B11F0804F18BF00F8012B70477047C4
:1026B0007047704770B5064C7C44064D7D4404E07D
:1026C0002046016808448047241DAC42F8D170BD03
:1026D000C03B0000C03B000070472DE9F0470D46AD
:1026E00099469246044600F124080168880604D5FC
:1026F000E06921F01001216000E00120A84201DD25
:10270000471B00E00027A1697A1902EB0900081AAB
:10271000A0612078C00602D42046AFF300800026D6
:1027200008E0D4E901211AF806009047206A401C0D
:10273000761C20624E45F4DB2078C0060AD5204680
:10274000AFF3008006E0D4E9012130209047206AF1
:10275000401C2062381EA7F10107F4DC07E0D4E931
:10276000012118F805009047206A401C2062281EAD
:10277000A5F10105F3DC2046AFF3008020780006C8
:1027800002D50220BDE8F0870120FBE7074B70B5BA
:102790000D467B4400F011F80446284600F020F86E
:1027A00010B14FF0FF3070BD204670BD3B300000CF
:1027B00001694A1C02610878704700B58FB0CDE905
:1027C00001310021059105497944CDE903101146F5
:1027D0006846FFF7D5FE0FB000BD0000E5FFFFFF24
:1027E000007B00F08000704710B542485421FFF78D
:1027F00037FF41485421FFF733FF40485421FFF78A
:102800002FFF3F493B483C4A3F4B08603D490A6027
:102810003A491960531C0365481C1065012008657E
:102820003B48344A39A1784400F0C4F820B938480C
:1028300078440A3800F065F937482F4A35A17844C2
:1028400000F0B8F820B9344878440A3800F059F953
:1028500032482A4A2FA1784400F0ACF820B92F481A
:1028600078440A3800F04DF940232248DC0000216A
:10287000224600F07CF820B125487844543800F016
:1028800040F91D4822464023002100F070F820B195
:1028900021487844543800F034F91848224610236F
:1028A000002100F064F8002806D01C487844BDE8F8
:1028B0001040563800F025B910BD104870B5006DB5
:1028C00020F001040B4800F0EDF80B4800F0EAF8A6
:1028D0000A4800F0E7F809E0206D20F001052046E5
:1028E00000F0E0F8204600F01BF82C46002CF3D155
:1028F00070BD0000E82300083C2400089024000874
:10290000EC220008F0220008F42200087200000007
:102910008435000077000000703500005C35000051
:1029200070B50446051F00F0F3F80068002C14BFD2
:10293000446870BD002C18BFAC423CBF20466468A0
:10294000F8D301680A18AA4218BF456003D12A6863
:1029500005461144016028684119A1421CBF6C6002
:1029600070BD6168696021680844286070BD70B5F9
:10297000C468A50713D0650211D4B2F5807F09D0D1
:10298000B2F5007F06D0B2F5806F08D1012300F1C7
:10299000240106E05D1E6FF07F46B54201D30120A1
:1029A00070BD0161C361416024F470611143C16075
:1029B000002070BD2DE9F0410C461646070047D0B7
:1029C000104600F06FF82078611C61280AD0722848
:1029D00002D077283CD102E00125002405E0022541
:1029E000042402E0082448F2020511F8010B2B2808
:1029F00006D0622809D011F8010C74280AD00BE027
:102A000045F0030544F00204EFE745F0040544F007
:102A10000104EAE744F010043846214602F0FAFDCA
:102A2000411C15D00021316171604FF40071F560D7
:102A3000F1617061200704D530460222002100F0C8
:102A4000E1F8306D40F0010030653046BDE8F081BE
:102A50000020FBE72DE9F0410D460646104C206DA5
:102A6000C10704D0410804D020F00104F7E7224652
:102A70000EE0542000F097F807000ED0206D47F0CC
:102A800001010843542120653846FFF7E9FD3A4625
:102A900029463046BDE8F0418CE70020D6E700002B
:102AA000E82300082DE9F04704464FF000094FF0F5
:102AB000FF37C568D4E90486A80707D0204600F090
:102AC00051F9304602F09EFD002802DA3846BDE892
:102AD000F087280502D54046FFF722FF4C2120460B
:102AE000FFF7BEFD206D20F0010020654846EEE7AF
:102AF00010B50446AFF300802046BDE81040FFF754
:102B00006BBC10B500F078F9BDE8104000F06EB96C
:102B100000487047EC2400087047704770477047C2
:102B200038B504460A4600206946AFF30080002805
:102B300008BF38BD02460099204600F085F9012003
:102B400038BD012000F072B9F8B5AFF3008005463A
:102B500000200C46102000BF0646A819A0420DD93F
:102B6000324669460020AFF30080070008BF00F03E
:102B70005DF90098A04218BF0546C419FFF7C8FFC9
:102B800005600746F01D20F007004619284600F0B2
:102B900054F9B44208BFF8BDA21B31463868BDE8FD
:102BA000F84000F051B970B50646FFF7B1FF05686F
:102BB00006F10B0020F00704B4429CBF002070BD5A
:102BC0002B466A68BAB11068A04210D304F108011C
:102BD00088423CBF5068586007D351681019416063
:102BE0001168091B016058601460101D70BD134608
:102BF0005268002AE7D121462846FFF791FF0028B6
:102C0000DED170BD2DE9F041044616460D464769F8
:102C1000007B80072ED0384602F0FAFC50BB3EB352
:102C2000012E02D0022E25D104E0204600F026F924
:102C300005441DE0384602F0E9FCE168002841F057
:102C40001001E16005DA204600F058F80120BDE8E7
:102C5000F081C9030BD56268E16A914200D8114640
:102C6000A26911442269891A814200DD084605449F
:102C7000002D01DA0220EAE7E16A6068E268814239
:102C800006D29103E06203D522F4003141F0100234
:102C9000A6690027AE4213DCE16A814201D90B46E6
:102CA00000E0034603EB060C2369ACEB030CAC45D8
:102CB00006DD814201D98C4600E084469C4505D161
:102CC000A760276042F02000A5620DE0AD1BE66919
:102CD000AE1B8142A66000D90846C01A281A20609F
:102CE0005819606022F0200003490840E06000208D
:102CF00084F84870ABE70000BFCFD7FFC16821F46C
:102D0000001141F08001C1600021816001607047C5
:102D10002DE9F047814614460E464FF0FF38324801
:102D2000D5685769054209D03846A16902F074FC9C
:102D3000002811DB2C48C0430540E5602B46324695
:102D40004946384602F06CFCA16920F00042B21AF4
:102D500011440028A16103D02046FFF7CFFF404671
:102D6000BDE8F08770B504460569C06A61688842AD
:102D700000D80846E16821F42011E160C90312D5AA
:102D8000A84208D02246411B2846FFF7C1FF10B1D8
:102D90004FF0FF3070BD0020E562C4E90150E068EB
:102DA00020F48030E060002070BD10B50446C0689B
:102DB00020F02000E060A16AA06988420DD0204682
:102DC000FFF7D0FFE06820F4405040F01000E060D2
:102DD000A06AA0612069E062606044F24001E0689E
:102DE0008843E06010BD000010000200002801D000
:102DF00002F00ABC7047000010B5014602A000F0C6
:102E00005EF8012010BD000053494752545245441A
:102E10003A2052656469726563743A2063616E2773
:102E200074206F70656E3A200000000010B500F04D
:102E30005FF8BDE81040FFF7D9BF00210160C0E98D
:102E40000110704710207047034640688C460028E8
:102E500018BF88423CBF03464068F8D3186818443E
:102E6000884207D00CF1030020F00700001D411A32
:102E7000521A0146081D0A60FFF752BD10B50146FF
:102E8000C268900703D0900607D5886A0AE000F070
:102E900057F801210160881E10BD8B6948681844ED
:102EA0000B69C01A91F848301BB191F84910401ACB
:102EB00010BD1103FCD50028FADD401E10BD70B511
:102EC00005460C460A2000E06D1C02F0ABFB35B154
:102ED00028780028F8D102E0641C02F0A3FB14B1AA
:102EE00020780028F8D1BDE870400A2002F09ABB93
:102EF00010B5012805D0002103A0FFF7E0FF012055
:102F000010BD09A1F8E7000053494752544D454D03
:102F10003A204F7574206F662068656170206D657A
:102F20006D6F7279000000003A2048656170206D75
:102F3000656D6F727920636F72727570746564006D
:102F400000487047E4240008B0B50D46014610461D
:102F5000144600F00FF842F69C00C0F60000046032
:102F600042F25C50C0F60000056002F0D1FD02F0B4
:102F70003BFCB0BD01394FF0FF3200BF11F801CF6B
:102F8000831801320F2A83F801C0F7D1704700007F
:102F900001BE704701BE704701BE704701BE704759
:102FA00001BE704701BE704701BE704701BE704749
:102FB00001BE704701BE704701BE704701BE704739
:102FC0002DE9F04108291F4614460E46054628BF44
:102FD000FFF7E4FF0F2C03D824F00800012801D1EB
:102FE000FFF7DCFFDDF81880022F28BFFFF7D6FFC0
:102FF000B8F1200F28BFFFF7D1FF284631464246DF
:1030000000F002F928680121B140884307F001016E
:10301000B1400843286042F2A470C0F60000006886
:10302000B20090F881000F2341599340994304F076
:103030000F0303FA02F211434151BDE8F081000091
:103040002DE9F04381B00546002840F20100C0F2AE
:103050005A0000F0B1801646002A00F0AD80082921
:10306000894628BFFFF79AFF3068022828BFFFF77C
:1030700095FF70680F2803D840F00800092801D197
:10308000FFF78CFF307A202828BFFFF787FFF06812
:10309000042828BFFFF782FF3069022828BFFFF706
:1030A0007DFF7069022828BFFFF778FF306A022889
:1030B00028BFFFF773FF706A022828BFFFF76EFF73
:1030C000B06A022828BFFFF769FFF06A042828BF0A
:1030D000FFF764FF306B082828BFFFF75FFFF06938
:1030E000042828BFFFF75AFFB069022828BFFFF75E
:1030F00055FF42F2A478C0F60008D8F8002010214D
:1031000092F88320012001EB4901032300FA09F022
:103110008B405759184327EA0000D6E9063703F0D9
:10312000010303FA09F3184307F0030303FA01F15B
:103130000843505172682846494600F041F8327AF7
:103140002846494600F060F8F2682846494600F0F3
:1031500089F832692846494600F0A4F87269284681
:10316000494600F0B5F8D8F8000006F1200790F8BD
:10317000840041598CCF21F0FF0CD6E90B1402F0EA
:10318000010263F3410207F0010342EA830201F006
:10319000030142EAC1016201D2B211444FF47E72CE
:1031A00002EA8902914041EA0C0141513268284605
:1031B000494600F0ABF8002001B0BDE8F083000004
:1031C00070B5082914460E46054628BFFFF7E6FEEF
:1031D0000F2C03D824F00800012801D1FFF7DEFEF0
:1031E00042F2A470C0F600000068B10090F88100BF
:1031F0000F2342598B409A4304F00F0303FA01F165
:103200001143415170BD000070B5082914460D46A8
:10321000064628BFFFF7C2FE14F0E00F18BFFFF705
:10322000BDFE42F2A470C0F6000000686FF00F020D
:10323000D0E90501042DA6EB010102EAD101084401
:103240006FF01F0101EBC50134BFE90004300268D3
:103250001F238B409A4304F01F0303FA01F111432B
:10326000016070BD70B5092914460E46054628BF99
:10327000FFF794FE042C28BFFFF790FE42F2A470E3
:10328000C0F600000068710090F8800003234259E6
:103290008B409A4304F0030303FA01F111434151B7
:1032A00070BD000070B5092915460C46064628BFBA
:1032B000FFF774FE022D28BFFFF770FEB0690121F1
:1032C000A140884305F00101A1400843B06170BDF1
:1032D00070B5082915460C46064628BFFFF75EFE66
:1032E000022D28BFFFF75AFE42F2A470C0F600007C
:1032F0000068012290F88200A2408159914305F0B4
:103300000102A2401143815170BD000070B508292F
:1033100014460E46054628BFFFF740FE022C28BF84
:10332000FFF73CFE0120B0400821002C08BF04211B
:10333000685070BDB0B5B1F5803F0C46054628BF5A
:10334000FFF72EFEA0B2A860B0BD000070B5B2F5C8
:10335000803F14460D46064628BFFFF723FEB5F50D
:10336000803F28BFFFF71EFEC5EA0440306030688A
:1033700070BD0000000C704780B270470068704755
:10338000C0687047B0B542F2A475C0F60005296860
:10339000044691F83410814298BFFFF703FE286875
:1033A000006A00EB441000F58050B0BDB0B542F2A9
:1033B000A475C0F600052968044691F833108142CF
:1033C00098BFFFF7EFFD2868016AB0F8BA0000FB6C
:1033D0000410B0BDB0B542F2A475C0F6000529686E
:1033E000044691F83310814298BFFFF7DDFD28684D
:1033F000016AB0F8BA0000FB0410B0BD10B542F28B
:10340000A474C0F60004206890F83300012898BF27
:10341000FFF7D2FD2068016AB0F8BA00084410BD79
:1034200042F2A471C0F600010968D1F8BC10085836
:10343000C00F704742F2A471C0F600010968D1F8CC
:10344000BC100858C00F704742F2A471C0F60001CA
:103450000968D1F8BC100858C00F704701680120F6
:10346000C0F28A00002948BF00207047B0B50C4662
:103470000546FFF7D5FF28B12846214600F02CF875
:103480000020B0BD0120C0F28A00B0BDC068704706
:10349000C0687047B0B500290C46054608BFFFF765
:1034A00081FD2846214600F001F8B0BDB0B50029E5
:1034B0000C46054608BFFFF773FD2846FFF7B0FF2F
:1034C00028B12846FFF7E2FF20600020B0BD0120B0
:1034D000C0F28A00B0BD0000B0B5B1F5803F0C4627
:1034E000054628BFFFF75CFDA0B26860B0BD0000D4
:1034F000B0B500290C46054608BFFFF755FD284624
:103500000021224600F002F8B0BD000070B516465A
:103510000C460546FFF7A2FF18B10120C0F28A0051
:1035200070BD2846314600F019F828462146FFF7BD
:1035300001FF002070BD000070B5B2F5803F144659
:103540000D46064628BFFFF72DFDB5F5803F28BF85
:10355000FFF728FDC5EA0440B06070BDC160704748
:1035600042F2A871C0F600010A68002A08BF08608C
:10357000704700002DE9F04381B042F2A874C0F614
:10358000000489462168DDF8208000291E46154682
:10359000074608BFFFF706FD21682C22F0B207FBA3
:1035A00002147A438850C6F30721320CC4E9011291
:1035B000FFF7FCFE616820610846FFF7E3FEA168A3
:1035C00060610A46FFF7B8FF0020C4E90605C4F8A9
:1035D0002090B8F1000F1CBFB8F80000A08101B026
:1035E000BDE8F08370B582B004460020002C019045
:1035F00008BFFFF7D7FC2069002808BFFFF7D2FCFF
:103600006069002808BFFFF7CDFC206A002808BFCA
:10361000FFF7C8FC6069FFF7B3FE0546FFF7AAFE97
:1036200008B3024660690021FFF790FE2069FFF7AA
:1036300001FFC0B1206901A9FFF72CFF08B10026E6
:103640000DE00198E3690268D1B28B424FEA12465D
:1036500005D9226A52F82110002918BF884720692D
:103660003146FFF703FF2846FFF786FE80B101468B
:10367000606900220025FFF769FE606A10B180478B
:10368000656203E0A06A002818BF80470020A0619F
:103690006069FFF773FE02B070BD0000B0B542F282
:1036A000A875C0F6000529680446002908BFFFF781
:1036B00079FC28682C2104FB0100FFF793FFB0BDC3
:1036C0002DE9F04383B00028044608BFFFF76AFCE9
:1036D000A069082828BFFFF765FCE06A002808BF3A
:1036E000FFF760FC206B002808BFFFF75BFC42F28D
:1036F000A471C0F600010968A78A0D8FA669D4E9F4
:103700000803A26AE16A2F44D4E90398ADF8047073
:1037100001AF02960097FFF72DFF002648460021D3
:10372000002243460096FFF725FF216B384601F043
:103730001BF8BDF9040001F01FFD03B0BDE8F083E4
:1037400080B5002908BF002A09D040F203130029E0
:10375000C0F28A0318BF002A0BD1184680BDFFF7BC
:1037600039FE42F64C01C0F60001002308601846FD
:1037700080BD42F2E423C0F60003C3E900121946FB
:1037800000F004F80346184680BD0000F0B581B093
:1037900040F201160C46C0F28A06014606F102000C
:1037A0005CB142F2A472C0F60002126892F83320B3
:1037B0008A4202D92278D20601D001B0F0BD084673
:1037C000FFF708FE42F64C07C0F6000705463860D2
:1037D000D4E90010C908FEF743FF28460021FFF78F
:1037E00045FE38682146FFF783FE00283046E4D1C5
:1037F00038680021FFF73AFE002818BF304601B0B4
:10380000F0BD000042F2A471C0F6000108607047EC
:10381000B0B542F2A475C0F6000529680446896C6B
:1038200021FA00F0C00708BFFFF7C0FB28684FF47B
:103830008041006900EB8420405800F00F00B0BDCB
:10384000006800054FF0800058BF4020704700001E
:10385000D0F808026FF35F207047000080B500F0D9
:1038600001F880BD70B50C460546FFF7E9FF064636
:103870002846FFF7EDFF864204BF002070BD2846B2
:10388000214600F003F8012070BD0000C0F840128E
:103890007047000080B5002000F002F880BD0000F5
:1038A00010B50228044628BFFFF782FB0020C4F2AF
:1038B0002700016864F30921016010BD42F2A47081
:1038C000C0F6000000680168D0F88C004058C0F3D2
:1038D0000720704780B5002000F002F880BD00008E
:1038E00042F2A471C0F6000109680A68D1F88C1090
:1038F0008B5823F47F4343EA002088507047000030
:1039000080B50020002100F05FF80020002100F0C9
:103910003FF880BD10B542F2A471C0F600010968FD
:10392000044691F84010814298BFFFF741FB40F2F6
:103930008030C4F2260050F82400C0F3011010BDFE
:1039400070B50446FFF7E6FF0546012000FA05F6CC
:10395000204600F007F800F08DF800EB5600E84034
:1039600070BD000010B542F2A471C0F600010968F4
:10397000044691F84010814298BFFFF719FB40F2CE
:103980008030C4F2260050F8240000F00F0010BD73
:1039900001220329C0F24A0213D842F2A473C0F6EE
:1039A00000031B6893F8403083420AD940F280320A
:1039B000C4F2260252F8203061F3051342F8203099
:1039C000002210467047000001220F29C0F24A026F
:1039D00013D842F2A473C0F600031B6893F840307A
:1039E00083420AD940F28032C4F2260252F82030D3
:1039F00061F3030342F820300022104670470000B4
:103A000080B5012000F002F880BD000010B5042848
:103A1000044628BFFFF7CCFA40F20050C4F226005B
:103A2000016864F30101016010BD000080B5002051
:103A3000002100F0A9F880BD80B50120002100F030
:103A4000A3F880BD80B50220002100F09DF880BD64
:103A500080B50320002100F097F880BD80B50420D8
:103A6000002100F091F880BD80B50520002100F014
:103A70008BF880BDB0B542F2A475C0F60005296888
:103A8000044691F83E10814298BFFFF791FA34B195
:103A9000286890F83F00A04204D2002005E000F022
:103AA000BDFA02E0204600F04FFD002818BFB0BD6F
:103AB000204600F021F8B0BD10B542F2A471C0F666
:103AC00000010968044691F83E10814298BFFFF753
:103AD0006FFA40F20031C4F2260101EB8400006C61
:103AE00000F00700042804D151F82400082161F3F4
:103AF0005F1080B210BD000010B542F2A471C0F694
:103B000000010968044691F83E10814298BFFFF712
:103B10004FFA2046FFF7D0FF0146B0F5887F4FF0FF
:103B2000000007DAB1B1012919D002292AD100F029
:103B3000B9F910BD16D040F2111291421CD040F2DA
:103B40001312914218BF10BD40F20C50C4F226006F
:103B5000006B0CE041F20020C0F27A0010BD00F0D2
:103B6000BDF910BD40F20C50C4F2260000684FF4BD
:103B7000004101EA104010BD00F0EEFD002818BF22
:103B80004FF4004010BD000042F2A472C0F60002E3
:103B9000126892F83E20824240F20102C0F24A02CC
:103BA00005D9052905D3A1F58073132B01D910463A
:103BB000704740F24032B1F5807FC4F2260207D34D
:103BC00001F01F0102EB800343F8401C042101E0D7
:103BD00001F0070142F82010002210467047000053
:103BE00042F2A470C0F6000000680168D0F88800B6
:103BF0004058000E7047000080B5002000F002F829
:103C000080BD000042F2A471C0F6000109680A6894
:103C1000D1F888108B5823F07F4343EA0060885026
:103C20007047000080B5002000F002F880BD000061
:103C300042F2A471C0F6000109680A68D1F8881040
:103C40008B5823F47F4343EA0020885070470000DC
:103C50002DE9F04F81B00225C0F242050139072954
:103C600005F1FD0000F21B81DFE811F008001A00E9
:103C7000190123001901190119018B0042F29D71EC
:103C8000C0F600010978002940F0098142F6980049
:103C9000C0F6000001210170002001B0BDE8F08FE6
:103CA00042F69801C0F600010020087001B0BDE89E
:103CB000F08F40F2885BC4F2260B42F2445642F287
:103CC000465842F2A475C0F600060024C0F600086B
:103CD0004FF002094FF0010A0BF17407C0F600051E
:103CE0003480A8F8004015E0DBF8000069F31D708F
:103CF000CBF8000020460021FFF746FF30880AFA83
:103D000004F108433080286890F83F00844204F1B1
:103D10000104C1D234B1204600F05CFC0028F2D08E
:103D200004E000BF00F0BCF90028ECD02046FFF70B
:103D3000C3FE02281CD1002CD6D057F8240010F066
:103D4000405F06D057F8240000F04050B0F1805F8B
:103D500006D1B8F800000AFA04F10843A8F80000F8
:103D600057F8240069F31D7047F82400C2E700BF2C
:103D7000002CC8D1DBF8000069F31D70CBF80000FF
:103D8000C1E742F24459C0F60009B9F80000002822
:103D900065D044F24128C0F20F0800BF444600F04D
:103DA0008FF8B8F1010818BF0228F7D1012C6FD0A5
:103DB00042F2A47600244FF0010BC0F6000608E0A2
:103DC0004FF00008306890F83F00844204F101048D
:103DD0005ED2B9F800000BFA04FA1AEA000FF1D02B
:103DE00020460221FFF7D0FE08F1010754B100BFC1
:103DF000204600F005FCA7F1010858B9012F4746FD
:103E0000F6D107E000F054F9A7F1010810B9012F2D
:103E10004746F7D1B8F1000FD2D0B4B142F24650C4
:103E200040F28851C0F60000C4F226010388601EEB
:103E3000783151F820201AEA030F0CBF42F04052AB
:103E400022F0405241F8202007E040F28851C4F2AD
:103E50002601086840F0405008600025B2E700F0F5
:103E60001FF9A0B14BF6C050CFF6F070044600F039
:103E70001FF91CB1002804F10100F7D044B140F251
:103E80008850C4F22600016841F0405101600025CD
:103E900042F69800C0F6000000210170284601B0EB
:103EA000BDE8F08F80B500F00BF842F68001C0F657
:103EB00000010968022818BF0021084680BD0000E3
:103EC00040F23050C4F22600016801F003010329DA
:103ED0000EBF0220006800F00100704742F2A0709F
:103EE000C0F600000068704740F28051C4F226011D
:103EF0008868022262F31D708860086820F0004024
:103F00000860C86820F000420020CA6070470000C6
:103F100070B540F28855C4F226056968044641F040
:103F200000406860A968002C204618BF012014D00A
:103F300011F00401264611D1264600BF012000F0F1
:103F400061FCA968701E18BF0120012EA6F10106B0
:103F500004D011F00401F1D000E0264629680222C5
:103F600062F31D71296004B128B155F8080C40F0C6
:103F7000004045F8080C00F09BF8002E314618BFB1
:103F800001210ED068B97642012000F03BFC00F020
:103F90008FF8B6F1FF3118BF0121013601D000289A
:103FA000F2D034B129B9FFF79FFF0220C0F24A00D6
:103FB00070BD286840F040502860002070BD0000AF
:103FC00010B50028044608BFFEF7F2FF40F280500B
:103FD000C4F226000168C1F300626FF39F412160C3
:103FE000E2714168C1F308426FF35F31A180228121
:103FF0008168CAB2120901F00F03E272C1F30C2208
:10400000C1F30171A372A281A173C068C0F3022140
:10401000C0F30840A171208210BD000070B586B0C9
:10402000002401A80594CDE90344CDE90144FFF73C
:10403000C7FF00F035F8E0B19DF81200022818D053
:10404000BDF80850ADB19DF80B40019E0020FFF770
:1040500053FD0221002C08BF0121A1FB05235FEACB
:1040600053014FEA3204E0FB06412046FEF704FA12
:104070000446204606B070BD80B546F22020C1F24D
:10408000000000F01DF840B940F64050C0F20300B7
:10409000FFF73EFF002808BF80BD042001F020FB91
:1040A00040F28050C4F226000068C00F7047000044
:1040B00040F29050C4F22600006800F00100704702
:1040C00070B50028044608BFFEF772FFFFF7E8FF4F
:1040D00018B10320C0F24A0070BD2068B0F5802FEF
:1040E00028BFFEF765FF206840F28C55E179C4F2E5
:1040F00026056FF39F40002918BF00F1807045F836
:104100000C0CA088B0F5005F28BFFEF751FF208996
:10411000B0F5007F28BFFEF74BFFA08821896FF321
:104120005F3061F3184045F8080CA07A102828BFCA
:10413000FEF73EFFE07A102828BFFEF739FFA0897E
:10414000B0F5005F28BFFEF733FFA17AE27A01F0F5
:104150000F0162F30711A2894FF60076A37BC0F22C
:104160001F06A07906EA0222114403F0030241EA85
:104170000271052845F8041C28BFFEF719FF208AA4
:104180000026B0F5007FC0F2FF1628BFFEF710FF33
:104190002868A17961F30A2028602868218A6FF3D2
:1041A000184006EA014108442860002070BD000064
:1041B00040F20C504FF67441C4F22600CFF6FF7166
:1041C0004158C9071EBF0320C0F24A00704701686A
:1041D00021F00041016000207047000040F20C50C7
:1041E000C4F22600016841F0004101607047000000
:1041F00040F20C51C4F226010A6822F00102104478
:104200000860704780B5FFF7E9FF0120FFF7F0FF76
:1042100080BD000080B5844601200329C0F24A0019
:1042200019D842F2A473C0F60003D3F800E09EF858
:104230004230634598BF80BD09B9082A0CD30129D3
:1042400001D1102A08D3022901D1042A04D3032959
:1042500008BF002A00D080BD9EF875009EF874301B
:1042600001F0030101FA00F003EA0201DEF8082080
:10427000084302EB8C01C1F8000C002080BD000057
:104280000246032840F20100C0F24A0088BF70478E
:104290000AB908290CD3012A01D1102908D3022A0E
:1042A00001D1042904D3032A08BF002900D0704794
:1042B00042F2A470C0F60000006802F0030290F819
:1042C00075C090F8743002FA0CF2194011438068FE
:1042D00041F08041C0F800140020704701220328FB
:1042E000C0F24A020ED808B908290DD3012801D11D
:1042F000102909D3022801D1042905D3032808BFB6
:10430000002901D01046704710B542F2A472C0F6E1
:10431000000212684FF0030C92F877E092F87430C4
:1043200092F876400CFA0EFC03FA04FE92F87540FF
:10433000194000F0030041EA0C01A04041EA0E01DF
:104340000843916840F00040C1F80004D1F800042F
:104350000022BDE8104010467047000003460128C7
:1043600040F20100C0F24A0005D01BB9072998BFEE
:10437000FF2A15D970470F29FCD80023B3EB124F41
:1043800018BF704742F2A470C0F60000006883684E
:10439000B0F87A00184450F8213062F317230CE08B
:1043A00042F2A470C0F6000000688368B0F878009C
:1043B000184450F8213062F30F2340F821300020D8
:1043C0007047000080B546F24621C1F2000101208D
:1043D00000F02CF938B9012042F2107100F02CF8ED
:1043E000002808BF80BD032001F07AF9B0B542F281
:1043F000A471C0F600010968441E91F83F108C4278
:1044000015D240F20065C4F2260555F824000221B9
:1044100061F31D7045F82400012000F0F3F955F810
:10442000240020F0004045F824000020B0BD012009
:10443000C0F24A00B0BD00002DE9F04381B00D4646
:1044400042F2A471C0F600010968461E91F83F10BF
:1044500040F201098E42C0F24A094AD240F2006895
:10446000C4F2260858F8260008F1400740F0004042
:1044700048F8260057F82610002D284618BF0120BE
:1044800012D011F001010FD16C4200BF012000F0E9
:10449000B9F957F82610B4F1FF3018BF01200134E4
:1044A00002D011F00101F1D058F826108DB180B979
:1044B000022060F31D71012048F8261000F0A2F9D7
:1044C00058F8260009F1010920F0004048F82600BC
:1044D0000FE001F04050B0F1005F08D158F826001D
:1044E0004FF0000940F0405048F8260001E04FF03E
:1044F0000009484601B0BDE8F083000042F2A47212
:10450000C0F600021268013892F83F20904222BFA4
:104510000120C0F24A00704740F20062C4F2260255
:1045200052F8200000F07F020A70C0F304224A70A3
:10453000C0F304428A70C0F3C062C0F30170087116
:104540000020CA70704700002DE9F04182B04FF0A2
:104550000005D0B342F2A476C0F6000604463068E7
:1045600090F83F1089B390F83E00A04298BFFEF744
:104570001FFD3068002590F83F00A04225D3694612
:1045800020468DF804500095FFF7B8FF204600F054
:1045900021F8D0B19DF80400022816D09DF80160E2
:1045A0009EB19DF8027087B19DF800802046FFF70C
:1045B000A3FAA7FB06235FEA53014FEA3205E0FBAB
:1045C00008512846FDF758FF0546284602B0BDE8C9
:1045D000F081000010B542F2A471C0F60001096834
:1045E000441E91F83F108C4228BFFEF7E1FC40F2D8
:1045F0000060C4F2260050F82400C00F10BD000077
:1046000010B542F2A471C0F600010968441E91F889
:104610003F108C4228BFFEF7CBFC40F24060C4F252
:10462000260050F8240000F0010010BD70B542F2E1
:10463000A472C0F6000212680E4692F83F100124E0
:104640008142C0F24A043CD30546FFF7C3FF10B1D4
:104650000234204670BDB078811E0E2931D87178A1
:104660004A1E112A2DD896F803C096F800E01323AD
:10467000BCF1000F4FF0380208BF162308BF7022AC
:1046800073451ED872451CD3347940F20066C4F2DB
:104690002606022CA5F101050CD0090241EA0040D2
:1046A00041F67F717044C0F21F01084040EACC60BF
:1046B00046F8250056F8250064F31D70002446F8DE
:1046C0002500204670BD000010B50021C4F227016E
:1046D0000A68044642F00800086000F03DF8002C2B
:1046E000214618BF01210ED068B96442012000F0B4
:1046F00089F800F031F8B4F1FF3118BF012101341D
:1047000001D00028F2D00220C0F24A00002918BFD0
:10471000002010BDB0B582B00024C4F231040025E1
:1047200020460021002200230095FEF749FC204688
:104730000121002200230095FEF742FC44F24020B4
:10474000C0F20F00FFF7C0FF002804BF02B0B0BDE9
:10475000052000F0C5FF00001020C4F2270000680B
:10476000C0F3800070470000B0B5F8B1054640685E
:104770000C46082828BFFEF71DFCB5F90000696843
:1047800000F00AFD4EF60850CEF20000006842F23A
:104790000001C0F6000188421CBF0020B0BDB5F981
:1047A0000000214600F006F80020B0BD0120C0F254
:1047B0005600B0BD70B50C464EF60851CEF2000161
:1047C000096842F20006C0F60006B142054608D16B
:1047D000002C08BFFEF7EEFB06EB8501086C0C64AD
:1047E00070BD42F20000C1F2000000EB8500006CD9
:1047F00070BD000080B50120FEF750FF80BD0000B5
:10480000FEE7704780B542F2AC31C0F6000109788E
:104810004843FDF721FE80BD80B542F6BC0190E81B
:104820000C50C0F6000181E80C50D0E90423C1E926
:104830000423D0E90623C1E906234EF62452CEF222
:10484000000253680B6293684B6213688B621369B2
:10485000CB6252690A63F1EE102A12F0900F21D058
:10486000026A4A63426A8A63826ACA63C26A0A64E3
:10487000026B4A64426B8A64826BCA64C26B0A65CB
:10488000026C4A65426C8A65826CCA65C26C0A66B3
:10489000026D4A66426D8A66826DCA66C26D0A679B
:1048A000006E486700F04CF880BD00000C20C1F29B
:1048B00000600188002914BF00884FF480707047A1
:1048C0000120C1F200600178002914BF0078212086
:1048D0007047000040F604010422C4F22601C4F22D
:1048E000260251F8040C126812060A6818BF40F438
:1048F00080200968120418BF40F48030B1F5803F71
:1049000028BF40F4003070474820C4F227000068F8
:104910000321C0F2460101EAE07070474820C4F26A
:10492000270000680321C0F2460101EAE0707047E9
:104930004FF60070C4F22700006800F03F00704797
:1049400080B5FFF75DFF80BD80B54820C4F2270029
:104950004FF000410160FFF7E1FF80BD10B542F26A
:10496000A4726423C0F60002002818BF1923D2F8ED
:1049700000C08B42DCF800E0BCF8AC404FF0000215
:104980005EF8043038BF012223F0030313444EF8CD
:104990000430DCF800E05EF8043023F440734EF895
:1049A0000430DCF800E0BCF8AE405EF8043023F0E0
:1049B00003031A444EF80420DCF80020135923F4B2
:1049C0004073135138B10220222938BF0120112928
:1049D00038BF00201DE09CF85500884212D29CF898
:1049E0005600884210D29CF8570088420ED29CF89C
:1049F000580088420CD29CF8592004208A4238BFC3
:104A0000052006E0002004E0012002E0022000E092
:104A10000320DCF804100A6822F00F02104408603A
:104A200010BD00004FF6007100F03F00C4F22701F6
:104A3000086070474FF61C70C4F2260040F24071C7
:104A40000068C1F20061097800F01F00401A18BF29
:104A5000012070470020C4F226000068012100F404
:104A6000000081EAD05070472DE9F0410228054648
:104A700028BFFEF7A1FA00F019FAA0B14FF61C7892
:104A800047F6307640F24077C4F22608C4F2260694
:104A9000C1F20067FDF7E8FC044655B100F0AAF842
:104AA00088B1502014E00326C0F242063046BDE82B
:104AB000F081002030603F78012000F0F3F840B32F
:104AC000064666BB14E041F61000C1F200600068C3
:104AD00030607F78D8F800000B2161F30400C8F83B
:104AE00000000320FFF78EFE00F090FA0026B6B912
:104AF000D8F8000067F30400C8F8000065B107208B
:104B0000FFF780FE00F00EFA002000F0CBF806461A
:104B100005E000F041FAE9E700F0AAFA0026204695
:104B2000FDF7A6FC3046BDE8F08100004420C4F249
:104B30002700016801F47F41B1F5685F18BF704735
:104B400001684CF2FF52CDF6FF72114001F5685139
:104B5000016070474420C4F2270001683A2262F3E2
:104B60000F2101607047000010B580B3C16871B3B8
:104B7000016861B390F804E042F6840CC0F6000CC2
:104B80005CF82E202AB3111A18BF012182420FD0DF
:104B900053696BB1047E00BF197EA14298BF1A46CB
:104BA000191A18BF0121834202D05B69002BF3D18F
:104BB000A9B11169A9B9017E137E994211D20021D0
:104BC000C0E9041210614CF82E00012010BD002035
:104BD00010BD00214CF82E00C0E904110121084647
:104BE00010BD516902610029416118BF086150611F
:104BF000012010BD80B5FFF72DFF00220021C4F277
:104C00002602C5F20421126860F3186102EA01006D
:104C1000401AB0FA80F0400980BD000010B50024B1
:104C2000C4F22604FFF716FF4FF6FF722168CAF69A
:104C3000FB4202F1807200281CBF4FF6FF72CAF6D9
:104C4000FB4201EA020020600820FFF7DBFD6FF065
:104C5000630100BF0846216820B1B1F1FF3F00F1B8
:104C60000101F7DCC8B1206820F0806020600120DD
:104C7000FFF7C8FDFFF7EEFE68B1FFF7DBFE012886
:104C800009D141F61000C1F20060006847F63071AA
:104C9000C4F226010860002010BD0220C0F24200CC
:104CA00010BD0000F0B581B00228054628BFFEF710
:104CB00083F9FFF705FE0746FFF7F8FD06460E20CD
:104CC000FEF7A6FD0424222FC0F2420410D8B6F548
:104CD000807F0DD160B942F2A470C0F60000006878
:104CE0004FF2180140680024425865F318624250A0
:104CF000222F02D8B6F5807F2AD0FEF77FFB074629
:104D00000120C0F6004040F20111C3F20001821CF4
:104D1000002D08BF00F1105104BF0122C0F600426F
:104D2000B6F5807F08BF0A4638460121FEF7EEFB44
:104D300070B900BF3846FEF787FB0028FAD1384625
:104D4000FEF7A6FB00F07F40B0F1204008BF04460C
:104D5000204601B0F0BD00004EF21800CEF2000077
:104D6000002101607047000080B500F009F84EF2A4
:104D70001000CEF20000016841F00101016080BD29
:104D80004EF21000CEF20000016841F00201016015
:104D9000704700004EF21000CEF20000006800F4F0
:104DA000803070474EF21800CEF200000068704765
:104DB000B0B5B1F1807F0C46054628BFFEF7FEF87E
:104DC00042F24850C0F600000021C0E90011C0E9DD
:104DD0000211016142F2000044F6FD51C0F60000EC
:104DE000C1F20001C163284600F01EF8204600F021
:104DF00039F8FFF7B1FFFFF7B7FFB0BDB0B5FFF768
:104E0000C9FF002808BFB0BD42F248550024C0F6D3
:104E1000000500BF55F82400002818BF8047013462
:104E2000052CF7D1B0BD00004EF210010428CEF2DF
:104E3000000104D1086840F004000860704742F2A5
:104E4000A472C0F6000212684FF0407C1368D2F8DA
:104E5000A4200CEA0060D050086820F0040008602C
:104E60007047000010B5B0F1807F044628BFFEF700
:104E7000A5F84EF2140124F07F40CEF20001086044
:104E800010BD00007047000080B5FDF7EDFA4EF64A
:104E90008851CEF200010A6842F470020A60BFF342
:104EA0004F8FBFF36F8FFDF7E3FA80BDB0B542F2CD
:104EB000A475C0F6000528680168D0F89C00445825
:104EC000FFF7F4FCB0F5807F10D10E20FEF7A0FCB8
:104ED0000446FFF7F5FC2228B4FA84F04FF00001F5
:104EE0004FEA501088BF01210843B0BD286801680F
:104EF000D0F89C20535823F4406353500168D0F8F5
:104F00009C204FF440635558A3432B4353500168F2
:104F1000D0F89C004058604010F4406018BF012059
:104F2000B0BD000080B5FFF7C1FCB0F5807F15D1A2
:104F300042F2A470C0F6000000684FF0030C016854
:104F4000D0F89C2053586CF3030353500168D0F8F9
:104F5000A00042586CF30302425080BD41F6200C81
:104F600042F2A472C1F2006CC0F60002DCF8041038
:104F70001268D2F800E0D2F89C0050F80E301B0AFC
:104F800063F3092140F80E10DCF800001168D2F834
:104F9000A020505080BD000080B5FFF787FCB0F521
:104FA000807F15D142F2A470C0F6000000684FF077
:104FB000020C0168D0F89C2053586CF30303535043
:104FC0000168D0F8A00042586CF30302425080BD43
:104FD00041F6440C42F2A472C1F2006CC0F6000229
:104FE000DCF804101268D2F800E0D2F89C0050F807
:104FF0000E301B0A63F3092140F80E10DCF80000A4
:105000001168D2F8A020505080BD000080B5FFF795
:105010004DFCB0F5807F0DD142F2A470C0F60000C7
:10502000006804230168D0F89C00425863F30E32F4
:10503000425080BD41F64C0C42F2A472C1F2006CA9
:10504000C0F60002DCF804101268D2F800E0D2F8D2
:105050009C0050F80E301B0A63F3092140F80E1033
:10506000DCF800001168D2F8A020505080BD00008C
:1050700080B5FFF71BFCB0F5807F04D14FF4C04C26
:105080006FF4E04108E041F61C00C1F200600068E6
:105090004FF4407120F4407C42F2A472C0F600024A
:1050A00012681368D2F89C20D058084040EA0C00DF
:1050B000D05080BD10B50020FEF742FC002808BF8C
:1050C00010BD044642F29C30C0F600000460FEF7BA
:1050D00087FD0130B4FBF0F042F2A031C0F60001D0
:1050E0000860FEF7EBFB0130B4FBF0F04DF6836295
:1050F000411EC4F21B32A1FB022344F6D352C1F27B
:105100006202A1FB021242F2F821C0F6000108601F
:10511000012000EB934142F2AC33C0F6000319705A
:1051200042F2A83100EB9210C0F60001086042F292
:10513000A431C003C0F60001086010BD80B546F27E
:105140002C00C1F20000FEF75DFBFFF79BFEFFF7AE
:10515000B1FF032000210022FEF7F2FA42F21060B4
:10516000C0F60000FEF7FCF945F6F870C1F2000049
:10517000FEF7A6FA80BD0000002848BF704700F087
:105180001F01012202FA01F14EF200124009CEF293
:10519000000242F8201070474EF6145300F00F0240
:1051A000CEF2000349011A4400F16043B0F1FF3F21
:1051B000C8BF03F564421170704700002DE9F04745
:1051C00016460D460446042802BF0E460D2505244A
:1051D0002046994600F0A0F81C2C804605D8601C9B
:1051E000C0B200F099F8074601E040F231172046BE
:1051F00000F0ECF9D0B1204600F04EF8A9F80070AC
:10520000C0B18246204600F021F8854212D21AF839
:10521000051008EB06020A44691C8142A9F8002027
:1052200008D21AF8010008EB000703E008EB0500BC
:10523000A9F80000B9F8001040F20010BAB2C0F2AC
:105240000240914238BF0020BDE8F087C11E1829F6
:1052500016D80FF20C0000EB81020120DFE801F00C
:105260000D101710100D0E10191010101010101036
:10527000101010101010100E0D0070470220704713
:1052800080B5FDF785FE0020BDE8804070471A20FC
:105290007047102070470000C11E18291BD80FF25C
:1052A000120000EB810246F2EC00C1F20000DFE8E0
:1052B00001F018120D1212191E122D1212121212D2
:1052C00012121212121212121223280046F2ED00CC
:1052D000C1F20000704780B5FDF75AFE0020BDE81E
:1052E0008040704746F20710C1F20000704746F256
:1052F0000810C1F20000704746F21A10C1F2000017
:10530000704746F21C10C1F20000704746F20A10C6
:10531000C1F200007047000001A131F81000704791
:105320000000010001000100010001003F004000F9
:10533000400044007E007E00F600F800F800F8000F
:10534000F900F900FB00FD00FD00FF000001010174
:105350000E011001100130013001300110B582B092
:105360001C460DF10603FFF729FF08B102B010BD7E
:10537000BDF8061042F65803C1F3C702C0F6000399
:105380009A5C01F0070122FA01F101F0010121709C
:1053900002B010BD42F29070C0F600000078704775
:1053A00080B582B00DF10603FFF708FF08B102B027
:1053B00080BDBDF8061042F6580E01F00702C1F399
:1053C000C701C0F6000E4FF0010C1EF801300CFAB8
:1053D00002F21A430EF8012002B080BD70B5884277
:1053E00008BF70BD0C460546164602E0ED68A542B2
:1053F0000ED02B68002BF9D028793040B042F5D17F
:1054000068798007F2D4AA68304602219847EDE710
:1054100070BD00002DE9F04381B040F28979044667
:1054200048451CD01D461646884602E0E4684C45B7
:1054300015D02368002BF9D020793040B042F5D147
:1054400060792840A842F1D0A2686F1E30462946F4
:1054500018BF01279847384388F80000E6D1204656
:1054600001B0BDE8F08300002DE9F04F81B089461E
:1054700042F29271C0F600010988406840F2FF08CC
:10548000C0F24208C6B229B1B9F1010F02D1022E11
:1054900000F09880484600F0A5F8074601208DF8F6
:1054A000030042F2983042F2FC21C0F60000022FC5
:1054B000C0F6000109D0082F07D042F2FC2042F2CA
:1054C0009831C0F60000C0F6000104680D680DF1C7
:1054D0000301204632463B46FFF79CFF9DF8031030
:1054E00082460029294607D00DF10301284632469D
:1054F0003B46FFF78FFF01469DF803B0012F08BF21
:10550000BBF1000F08D128463246FFF767FF20465F
:1055100051463246FFF762FF102E08BF042F0CD110
:105520000020FEF70DFA4DF68361C4F21B31A0FB9B
:105530000101890C0120FFF711FA082E08BF082F7E
:105540000CD10020FEF7FCF94DF68361C4F21B314B
:10555000A0FB0101890C0020FFF700FA701E012852
:105560002BD8BBF1000F28D0B9F1080F17D0B9F133
:10557000040F22D14EF2100042F29472CEF20000DB
:10558000C0F6000201681278114042F29C72C0F627
:105590000002117011D0016821F001010CE042F20B
:1055A0009C70C0F60000007838B14EF21000CEF2C8
:1055B0000000016841F001010160BBF1000F18BF5C
:1055C0004FF00008404601B0BDE8F08F012101FA1C
:1055D00000F040F62831C0F60041084018BF012015
:1055E00070470000082805D80121814011F48B7F05
:1055F00018BF704780B5FDF7CFFC0120BDE88040A3
:105600007047000000207047FEE700000020704750
:1056100000207047012070474FF0FF3070470000B6
:10562000002070477047000010B542F69C01C0F69C
:10563000000109684FF0000EA1F1010C42F2605127
:10564000C0F6000101EB00104FF0FF33614600BFD0
:10565000C218527811F8014F01336240032B0A70CF
:10566000F6D10EF1010EBEF1040F0CF1040C00F1A5
:10567000040008BF10BDE7E780B5014642F2AC70F8
:10568000C0F6000000F090F880BD000010B500F0FA
:1056900029F8044620B144B100F0CAF8204610BDF4
:1056A00000F048F80446002CF6D1002040F6E44112
:1056B00000F06CF800F0BCF800F002F810BD00003B
:1056C00080B542F2B030C0F60000FFF74DFA00217D
:1056D000C0F20261002818BF0021084680BD00000A
:1056E000FEE700000020704770B582B00546FCF769
:1056F000BBFE2E786978AA7804460DF10703304680
:10570000FFF72CFE9DF80760002E1CBF40F201162B
:10571000C0F20246002818BF06462EB928786978DC
:10572000AA78FFF73DFE06462046FCF7A1FE30466C
:1057300002B070BD80B542F2CC30C0F60000FFF779
:1057400013FAF0B142F20030C0F60000FFF70CFA95
:10575000B8B142F21C30C0F60000FFF705FA80B184
:1057600042F23830C0F60000FFF7FEF948B142F2CD
:105770007C30C0F60000FFF7F7F900281CBF0020BE
:1057800080BD41F20170C0F2024080BDB0B500287A
:1057900004460D4618BFFDF7FDFB42F29870C0F6B7
:1057A000000040F82450B0BDB0B50C460546FFF7E8
:1057B000F1FD28B141F20370C0F20240B0BD00BF5C
:1057C00028682146FEF74AF80028F9D00020B0BD2D
:1057D00010B50446C0B2FFF74FFF002818BF4FF0C6
:1057E000FF34204610BD0000B0B500F091F9002054
:1057F000FFF71AFF012500BF00F078FA00F056FA13
:1058000000F010FAECB22046FFF70EFF092C05F16C
:105810000105F1D300F06AFA00F048FA0A20FFF718
:1058200003FFB0BD46F21D11C1F20001085C7047D4
:1058300080B500F0E3F800F007F800F0D7F800F0CA
:1058400019F800F01FF880BD80B500200021FEF798
:1058500017FD00200021FF22FEF780FD002000211F
:10586000FEF73CFD45F6C950C1F20000FFF73CFFD2
:1058700080BD000080B52F2000210022FEF7CAFC69
:1058800080BD0000B0B540F20034C4F23104A4F58C
:10589000407545F68862C1F2000228460021FDF7F6
:1058A000CFFB45F6BC60C1F20000FFF71DFF45F6D7
:1058B000C062C1F2000228460121FDF7C1FB45F696
:1058C000F460C1F20000FFF70FFF45F6DB50C1F2B4
:1058D0000000FFF709FF45F65062C1F200022046C2
:1058E0000421FDF7ADFB45F68460C1F20000FFF72F
:1058F000FBFE45F61862C1F2000220460621FDF7C4
:105900009FFB45F64C60C1F20000FFF7EDFE45F647
:10591000E052C1F2000220460721FDF791FB45F657
:105920001460C1F20000FFF7DFFE45F6BA50C1F285
:105930000000FFF7D9FE45F6BD50C1F20000FFF7A9
:10594000D3FE45F6C050C1F20000FFF7CDFE45F68C
:10595000C350C1F20000FFF7C7FE45F6C650C1F2C2
:105960000000FFF7C1FE45F6CC50C1F20000FFF782
:10597000BBFE45F6CF50C1F20000FFF7B5FE45F67D
:10598000D250C1F20000FFF7AFFE45F6D550C1F28C
:105990000000FFF7A9FE45F6D850C1F20000FFF75E
:1059A000A3FEB0BD10B5FEF795FF90B9FEF7C0FF9E
:1059B0000446FEF7C9FF28B10120FEF723FFFEF7DA
:1059C000A3FF80B92046FFF72DF8FEF7F1FBFEF7A5
:1059D00019FC0120FFF748F8FFF720F9FFF7BAF8A4
:1059E000FFF7A4F810BD0620FFF77AFE42F2080088
:1059F000C4F23000332101608160704710B500208F
:105A00009621FEF7ABFFFFF7CDFF00200021FDF749
:105A1000BFFF0020FDF764FF0120FEF7F3F8002030
:105A2000FEF706F942F2A470C0F60000006890F894
:105A30003F4024B12046FEF7D9FC013CFAD10120B9
:105A40000021FEF7A1F80020FDF78CFF50B90020DF
:105A5000FEF732F840F21111884203D100200121F3
:105A6000FDF7B2FFFEF740FA00200021FEF78CF8A8
:105A700000200021FDF7A8FFFEF74CFEFDF7C0FF58
:105A8000FDF728FFFEF7B8F8FEF7CCF8FDF7D4FFD6
:105A9000FDF7CCFFFDF7D6FFFDF7DAFFFDF7DEFFE0
:105AA000FDF7E2FFFEF7E8FAFDF72AFFFEF78AFCB2
:105AB000FDF7F0FEFEF7A6FB00206421FEF74EFF87
:105AC000FFF7F8FA46F23420C1F20000FFF70CFEAF
:105AD00046F23720C1F20000FFF706FE46F23A20F8
:105AE000C1F20000FFF700FE46F23D20C1F20000C7
:105AF000FFF7FAFD46F24020C1F20000FFF7F4FD87
:105B000046F24320C1F20000FFF7EEFD10BD000099
:105B10002DE9F04F81B042F25C50C0F60000016800
:105B200042F26058C0F60008A8F1030003390422CD
:105B3000CB78013AC37011F8043F00F8043F4B786A
:105B400043708B788370F3D1042400251CE000BFE0
:105B500018F8050099F80210784089F8100099F8B3
:105B6000010099F8032080EA0B0089F811008AEA05
:105B70000100043589F8120086EA0200A02D04F124
:105B8000010489F8130025D008EB050999F80C7079
:105B900099F80DB099F80EA099F80F60A007D7D129
:105BA0005846FFF73FFE00905046FFF73BFE834606
:105BB0003046FFF737FE82463846FFF733FE45F69C
:105BC000F762A108C1F20002515C0646009881EA22
:105BD0000007BDE701B0BDE8F08F000010B504205C
:105BE0006FF07F41FFF7E4F8FFF7BEF8FFF74EFDD7
:105BF000FFF7D8F8044600F093F8FFF7D3F8211A1E
:105C000003A0FCF7B1FC03A0FCF7AEFC002010BD24
:105C10002564000045434220656E63727970743AD2
:105C2000200000002DE9F04381B042F69C00C0F650
:105C3000000000684FF00409C41E00BF14F8040FF0
:105C400014F8018C6178A27880EA08004140C0B263
:105C500081EA020600F096F886EA0801277865785E
:105C6000484004F8010C85EA0700C0B200F08AF849
:105C700087EA0601A7784840207087EA0500C0B28D
:105C800000F080F885EA06014840607087EA080065
:105C9000C0B200F077F887EA06014840B9F101097F
:105CA000A070CBD101B0BDE8F083000042F69C00AB
:105CB000C0F6000000684178427A43794271427B25
:105CC0004173817B437083794272827A8171C17B97
:105CD00090F802C082708373C278C170C17AC379B0
:105CE00080F80AC0C173C372C2717047F0B581B049
:105CF00042F69C00C0F60000046800256FF0030621
:105D0000A7193879FFF78EFD04360C2E3871F7D1BC
:105D10000135042D04F10104F0D101B0F0BD000003
:105D200080B58CB04CF60970C3F64F400B904FF223
:105D3000AB70C8F615000A904AF62860CAF2D26025
:105D4000099047F62B60C1F2156008904AF645703D
:105D5000C5F28E1007904BF29E70CAF66F40069007
:105D600040F21E30C9F6AC40059042F6AE50C5F286
:105D70008A70049004A808A96A46FDF7E5F80CB0FB
:105D800080BD000041B21B2202EAD11181EA40002D
:105D9000C0B27047F1EE100A4FF6FF71C0F2C03189
:105DA00020EA010040F04070E1EE100A70473A74BA
:105DB00074003A7474003A7474000B07010B070204
:105DC0000B07070B08010B08020500000B08030B6B
:105DD00008040B08050B08060B08070B0100000060
:105DE000010000000B0000001D000000000000008A
:105DF00000000000000000000000000001000000A2
:105E00000000000000000000000000000000000092
:105E1000000000000B060700010000000A0000005F
:105E20001D00000000000000000000000000000055
:105E30000000000001000000000000000000000061
:105E40000000000000000000000000000B0606003B
:105E500001000000060000001D000000000000001E
:105E60000000000000000000000000000100000031
:105E70000000000000000000000000000000000022
:105E8000000000000B0604000100000000000000FC
:105E90000000000000000000000000000000000002
:105EA00000000000010000000000000000000000F1
:105EB0000000000000000000000000000B000000D7
:105EC00001000000000000000000000000000000D1
:105ED00000000000000000000000000001000000C1
:105EE00000000000000000000000000000000000B2
:105EF000000000000B00018D01020408102040800A
:105F00001B366CD8AB4D9A2F5EBC63C697356AD4EE
:105F1000B37DFAEFC5913972E4D3BD61C29F254AC2
:105F2000943366CC831D3A74E8CB8D0102040810CB
:105F30002040801B366CD8AB4D9A2F5EBC63C69751
:105F4000356AD4B37DFAEFC5913972E4D3BD61C22D
:105F50009F254A943366CC831D3A74E8CB8D0102A9
:105F60000408102040801B366CD8AB4D9A2F5EBCC5
:105F700063C697356AD4B37DFAEFC5913972E4D31D
:105F8000BD61C29F254A943366CC831D3A74E8CB29
:105F90008D01020408102040801B366CD8AB4D9A4E
:105FA0002F5EBC63C697356AD4B37DFAEFC59139CD
:105FB00072E4D3BD61C29F254A943366CC831D3AF7
:105FC00074E8CB8D01020408102040801B366CD889
:105FD000AB4D9A2F5EBC63C697356AD4B37DFAEF9A
:105FE000C5913972E4D3BD61C29F254A943366CC12
:105FF000831D3A74E8CB000003000000010000009C
:106000000100000000000000050360000400000023
:106010000100000000000000010000000604600014
:106020000800000070270008F5470010000020401D
:106030000000244000000040000000000000234059
:10604000000030400000314000009F40000022402E
:106050000000104000009D40202020202010101043
:10606000101D1D8017007500FF0306020600360490
:10607000102000007FC000000004000000000000AD
:106080000019324B647D0000000000804000080BC6
:10609000100000000000FF012002001F008000042B
:1060A000FF081018001000140018001C4044484C51
:1060B000500000000810000008000000040000006C
:1060C0000410000000120000042100000021000064
:1060D0000016000040114002C41300138013A013E7
:1060E00040138813A81320001C00000000000818AB
:1060F0001C1D1E1F202122232425262C2D2F30314C
:106100003738393A3B3C3D00001D00081018202864
:1061100030384048505860687078000800637C77D9
:106120007BF26B6FC53001672BFED7AB76CA82C995
:106130007DFA5947F0ADD4A2AF9CA472C0B7FD93CD
:1061400026363FF7CC34A5E5F171D8311504C723C5
:10615000C31896059A071280E2EB27B27509832CC3
:106160001A1B6E5AA0523BD6B329E32F8453D10099
:10617000ED20FCB15B6ACBBE394A4C58CFD0EFAAB8
:10618000FB434D338545F9027F503C9FA851A34006
:106190008F929D38F5BCB6DA2110FFF3D2CD0C13E7
:1061A000EC5F974417C4A77E3D645D197360814F0F
:1061B000DC222A908846EEB814DE5E0BDBE0323A31
:1061C0000A4906245CC2D3AC629195E479E7C837EA
:1061D0006D8DD54EA96C56F4EA657AAE08BA78256D
:1061E0002E1CA6B4C6E8DD741F4BBD8B8A703EB56D
:1061F000664803F60E613557B986C11D9EE1F898D1
:106200001169D98E949B1E87E9CE5528DF8CA18910
:106210000DBFE6426841992D0FB054BB1600000037
:10622000F4010000140004010A000905080003003D
:1062300063010000040000040100040200040300E4
:106240000404000405001E01050000008062001027
:10625000E0220008080100005823001088630010A5
:10626000A028000894000000582300108863001044
:10627000E8230008B804000074230010C1EEFFFFFB
:10628000010000000000000000000000000000000D
:10629000000000000000000000127A0089070000E2
:1062A00069540010010000000000000054230008A1
:1062B00000000000000000000A0000006954001007
:1062C00002000000000000005C2300080000000045
:1062D000000000000A0000006954001003000000E4
:1062E000000000006423000800000000000000001F
:1062F0000A00000000000000020000000000000092
:106300000400000000000000080000000000000081
:10631000010000000000000010000000695400109F
:1063200004000000000000007423000800000000CA
:10633000000000000A0000008907000000127A0037
:1063400000093D000000A00F401F000008000000F1
:10635000513C00100100000000000000502800081F
:106360000000000000000000FF0000006954001061
:1063700000000000000000006C2300080000000086
:10638000000000000A000000000000000000000003
:1063900000000000000000000000000000000000FD
:1063A00000000000000000000000000000000000ED
:1063B00000000000000000000000000000000000DD
:1063C00000000000000000000000000000000000CD
:1063D00000000000000000000000000000000000BD
:1063E00000000000000000000000000000000000AD
:1063F000000000000000000000000000000000009D
:10640000000000000000000000000000000000008C
:0C64100000000000000000000000000080
:04000005100022E1E4
:00000001FF
