:020000041000EA
:1000000000200008EB0000100D0000004D01001062
:1000100000000000000000000000000000000000E0
:100020000000000000000000000000004901001076
:10003000000000000000000049010010490100100C
:100040004901001049010010490100104901001048
:100050004901001049010010490100104901001038
:100060004901001049010010490100104901001028
:100070004901001049010010490100104901001018
:1000800010B5064C2378002B07D1054B002B02D06E
:10009000044800E000BF0123237010BDB003000836
:1000A0000000000014150010044B10B5002B03D005
:1000B0000349044800E000BF10BDC0460000000036
:1000C000B4030008141500100230800803D001307A
:1000D0000238FCD1C046C0467047EFF3108072B6BC
:1000E000704780F3108870477047FFF7FDFF72B6C6
:1000F0000F4C104DAC4209DA21686268A368043BDA
:1001000002DBC858D050FAE70C34F3E70A490B4A2F
:100110000020521A02DD043A8850FCDC08480949E4
:100120000860BFF34F8F00F0FFFE00F0AFFEFEE768
:100130002015001038150010B0030008C80500088D
:100140000000000808ED00E0FEE7FEE700B504202F
:100150007146084202D0EFF3098001E0EFF3088016
:10016000043000F093FCFEE7014B18607047C04676
:10017000C4050008044B1B681A00BA3212881B6AB7
:100180005043C0187047C046C40500081D4B984234
:100190000FD010D840282FD005D8002830D01028F4
:1001A00028D019481EE0802828D080235B00984280
:1001B000F7D1144816E0154B984214D008D8A02364
:1001C0001B0698421CD0124B9842EAD1A0200BE0AB
:1001D000104B98420AD0104B984209D00F4B9842CE
:1001E000DFD10F487047A420C003FBE70D48F9E7B3
:1001F0000D48F7E70D48F5E70D48F3E70D48F1E73F
:100200000020EFE706005200FF005200010000F05E
:10021000090000A0040000F0050000F0030000F059
:100220000100520002005200030052000100500081
:10023000020050000500520010B50020FFF79AFFA1
:100240000A4B1C682300BC331B68C0180368002BD2
:100250000ADB074B1868FFF799FF012263689A6071
:100260009A68002AFCD110BD0248FCE7C4050008CA
:10027000CC03000802005000064B1B68BC331B680F
:10028000C3181B68002B03DA89B241600020704755
:100290000148FCE7C405000801008A000368002B40
:1002A00004DA89B2C2608160002070470048FCE730
:1002B00001008A00064B1B68BC331B68C3181B680F
:1002C000002B03DAC36800200B6070470148FCE78D
:1002D000C405000801008A00024B1A68002A00D1F8
:1002E00018607047E0030008F0B52C246043154CFB
:1002F0001F0024681D0A2018FF2425402740124CA7
:100300001B0C26680760346A45608360BA363688FD
:1003100077433F1907612F0080376D017F01E7198F
:1003200064190A4D47611F043B436419236000238D
:100330008361059BC2610162002B01D01B88838110
:10034000F0BDC046E0030008C40500080810000026
:10035000F0B5836885B002AD2B80154B02681B6831
:10036000066A1B8F476A9B186B8043680095826AF8
:10037000C16A040003930369C068FFF7B5FF002159
:100380003B000A0000913000FFF7AEFF216B280010
:1003900000F030FB0022AB5E002B06DB1F22134077
:1003A0001E3A9A401300034A136005B0F0BDC046E0
:1003B000C405000800E100E0F7B52C25134C6843A4
:1003C000266869433418256901937118002D19D0E6
:1003D0008869002818D12E68002E15DA6768012474
:1003E00026004B689E40B44613689EB263461B04C9
:1003F0001E431660EA608C61BC40019BA4B24B6254
:10040000AC60FEBD0248FCE70248FAE7E0030008E2
:1004100004028A0007028A0073B5002642690400BC
:10042000D56801962B0CB34221D01B0413601368CE
:10043000194B00691B68BC331B68C3181B68B342A7
:1004400015DA01A9FFF736FFB0420CD10198E26935
:1004500003681E0CDBB29A4205D9226A9B009B58A6
:10046000002B00D0984731002069FFF705FFADB29F
:10047000002D09D063691D6000251B68636AAB42CB
:1004800005D098476562A56163691B6873BDA36A5F
:10049000002BF8D09847F6E7C40500082C2310B5C8
:1004A0004343034A1068C018FFF7B6FF10BDC046AB
:1004B000E0030008F8B5194B0F001B681A0033322F
:1004C0001278824227D9002925D01F250A681540B5
:1004D00021D11900BA310C88114E60431C6AD20830
:1004E000041929007868346000F07EFF290020009C
:1004F000FFF7C2FE3A0029003068FFF7CFFE041E66
:1005000007D101003068FFF7B7FE03002000002B81
:1005100000D00448F8BD0448FCE7C046C405000804
:10052000E403000801018A0003018A0010B5002AD3
:100530000DD1002914D10B4B1A681300BA331B8854
:100540005843136AC018084B1860080010BD0029F2
:1005500006D0064B196019005A60FFF7ABFFF5E7AC
:100560000348F3E7C4050008E40300087803000823
:1005700003018A00F7B5184F04003B680191DE685B
:100580003368834226D90025A94202D1FFF7A5FD91
:10059000050038680368002B1ADA1F220123224065
:1005A000934064097268A4001419226813420DD0A4
:1005B0009A43226000240021FFF75EFE019B002B7E
:1005C00002D12800FFF78DFD2000FEBD034CF2E7AD
:1005D000034CF3E7034CF7E7E4030008020188004B
:1005E0000301880004018A000A4B1B68DB681A6853
:1005F00082420DD959681F23420918401E3B83408F
:10060000920050581840431E9841034BC018704741
:100610000248FCE7E40300080001880004018A00A6
:10062000054B1B681A0088321B6812689B181868F3
:10063000000AC0B27047C046C4050008044B1B68DE
:100640001A0088321B6812689B181868000E7047E1
:10065000C4050008024B18694007C00F7047C04628
:1006600000002740A6220549D2008B580220DB4318
:100670009B0702D00123885818407047000026408D
:1006800010B5FFF7EFFF0023022801D1014B1B68D3
:10069000180010BDEC030008094A83009B18D02203
:1006A0009200985807221040042807D1C0229200D7
:1006B00098581F2303408020400018437047C046CD
:1006C0000000264010B5FFF7E7FF02281CD005D830
:1006D000002824D0012814D0002014E01223FF3376
:1006E000984214D01423FF33984215D0033B98420C
:1006F000F2D10C4A0C4BD358002BEDDA80200002CB
:1007000001E00A4B186810BDFFF7BAFFFBE7FFF7DF
:10071000A1FF0028E0D0F1E7024A054BEBE70548CE
:10072000F1E7C046000026400C050000E803000881
:100730003C05000000127A00B023154ADB00D358B4
:1007400010B59903DB01DB0F890BC371114B0160FD
:10075000D3580F24D904DB01DB0D0381B123DB0067
:10076000D358C90C81801900214081721909214098
:10077000C172D9029B009B0F8373074BC90CD358DE
:1007800081815A05DB01520FDB0D8271038210BD9E
:1007900000002640840500008C05000010B5104BB9
:1007A000421E1B683F331B78934216D97F221F24B9
:1007B0008030FF300B4B8000C3581A400A701A0C6F
:1007C0002240180A8A701A012040E2404870002036
:1007D0009B009B0FCA700B7110BD0348FCE7C0461D
:1007E000C40500080000264001004A00F0B589B0A9
:1007F00003AC14220021200000F0F6FD2000FFF7DA
:100800009BFFB0231A4ADB00D25800239A4203DA36
:10081000A37B023B5A1E9341E57900266A1E95414F
:100820000135B34221D0A488B4421ED0039B3000CE
:100830000193FFF747FF2A00330007003100200033
:1008400000F0BCFC0C0005003300019A31003800B8
:1008500000F0B4FCE6076A08324363088018594187
:100860002A00230000F08AFC0600300009B0F0BD29
:1008700000002640F0B50026244B85B01B68070019
:100880003F331B78B3423ED0B0423CD083423AD390
:100890000522310002A800F0A7FD02A93800FFF7E9
:1008A0007DFF3B008033FF33194A9B009B58B342C6
:1008B00029DA02AB1B79022B25D002AB5C78B4425B
:1008C00021D09D78B5421ED01B7838000193FFF7E8
:1008D000F9FE2A00330007003100200000F06EFC12
:1008E0000C0005003300019A3100380000F066FC6E
:1008F000E6076A0832436308801859412A0023003A
:1009000000F03CFC0600300005B0F0BDC405000856
:100910000000264010B5041E04D1FFF767FF002831
:1009200006D008E0064B1B683F331B78834203D296
:100930002000FFF7C7FE10BDFFF79CFFEFE7C046A2
:10094000C4050008E02210B50124094B8000920084
:10095000C018835880589B069B0F9C400F2318405B
:10096000FFF7D8FF63081818210000F07BFB10BDCB
:1009700000002640144B30B51A68072413002C33AE
:100980001B781F2B15D883081D00A5432C1E0FD1E3
:1009900003342040A040814012689B002032D318CD
:1009A0000A00FF2181401C686240114061401960CB
:1009B00030BD802320401B06184380239B01126812
:1009C000C91889008850F3E7C4050008064B9A68E7
:1009D0000300064810339B00824202D19858995078
:1009E0007047034AD058FBE700ED00E00000000824
:1009F00000000010F8B506000D0000283AD00023D2
:100A0000C05E002828DB7188FFF7B4FF0024FF22B6
:100A1000032794460023F05E716883B21F40FF00F5
:100A20006646BA4089013140D243B940002815DBFF
:100A3000114E83089B009B19C026B6009F593A406F
:100A4000114399510D4B9A680D4B9A4202D12900DE
:100A5000FFF7BCFF2000F8BD0A4CD8E70F26334053
:100A6000083B064E9B089B009B19DE6932401143F0
:100A7000D961E7E7034CEDE700E100E000ED00E0BD
:100A80000000000801005600FEE7000002680A4B63
:100A900010B51A6042685A6082689A60C268DA606B
:100AA00002691A6142695A6182699A61C269DA61AE
:100AB000FFF7EAFF10BDC04690030008B0235B05B6
:100AC0005A782120002A01D05878C0B27047B0234C
:100AD0005B059A89002A02D0988980B270478020ED
:100AE0004000FBE77FB5274B86000D00F458042932
:100AF00001D0012927D100200FE0A3682B420BD1A0
:100B0000E36829001A685B6802920193039302A8C4
:100B1000236898471C4B1C606469002C0BD01B4B4E
:100B20009842EAD1012DE8D1174B18481A68184BA2
:100B30009A5104B070BD012DFBD1144B9842F3D0F3
:100B4000134B9C51F5E7022906D10F4B1B68181E69
:100B5000EFD01C6903E01C006369002BFBD100206F
:100B6000002CE6D0A3682B4209D1E36829001A685B
:100B70005B6802920193039302A823689847246953
:100B8000EEE7C046300400082C040008FF004200D5
:100B9000180400081A4B1B68190088311A68096884
:100BA00051180968016219008C31096852181268DD
:100BB00042621A0046321278002A1FD09A68E03248
:100BC0001268D2061AD5F222DB68D2019A58026066
:100BD000F022D2019A5842600A4A9A5882600A4A20
:100BE0009A58C260094A9A580261094A9A58426161
:100BF000084A9A588261084A9B58C3617047C046A8
:100C0000C405000804780000087800000C78000093
:100C10001078000014780000187800001A4B1B6848
:100C20001A008832196812688A18016A11601A005D
:100C30008C32196812688A18416A11601A004632AB
:100C40001278002A1ED09A68E0321268D20619D5AE
:100C5000F0224168DB68D201995081680B4A9950B3
:100C6000C1680B4A995001690A4A995041690A4A78
:100C700099508169094A9950C169094A9950016896
:100C8000E83299507047C046C40500080478000057
:100C9000087800000C78000010780000147800003C
:100CA00018780000F7B50700FFF708FF664D06004B
:100CB0006B68002B00D07DE0FFF70FFA6B680090A7
:100CC000002B00D089E0614C22681300BA331988E8
:100CD00007234B43126A9B181A68002AFCDADB6868
:100CE000DA0021D51B0F1B0759480193FFF752FF6C
:100CF0005849212E00D075E02268902013008833D7
:100D00001C68136800011C1923680B40034323600F
:100D100013008C3312681B68D3181A6811400843FB
:100D200018604B4B019A13438022484E920531685C
:100D300013430A00BA321088072200244243096A8A
:100D40005218D36054605368FFF7C1FE80235B00E4
:100D500098425DD1380000F05BFB32681300BA3373
:100D6000198807234B43126A9B181A68002AFCDA79
:100D7000DF68FB0003D538010009FFF74FFF364B52
:100D800032681F401300BA33198807234B43126A95
:100D900000989B180022DF605A60FFF7A2F9002C30
:100DA0000FD16B68002B03D008210120FFF79AFEBA
:100DB0002000FEBD01210800FFF794FE041E00D1B3
:100DC0007AE76B68002B03D002210120FFF78AFE2F
:100DD000224B9C42ECD0224CEAE704210120FFF791
:100DE00081FE70E720688022030088331C68036856
:100DF00052001C1923680B401343236003008C33FB
:100E000000681B68C318186801400A431A6088E725
:100E100033681A00BC32196A126852181168002926
:100E200010DBBA331B889A181368002B0ADB0423E3
:100E30000C4A11690B431361012F01D030BF8CE7BD
:100E400020BF8AE7054C88E730040008C405000885
:100E5000F0030008FF00FFFFFFFFFFDF0500420077
:100E6000FF00420000ED00E0C02280200649520051
:100E70008B58C0059B009B0803438B5080238858E8
:100E80001B0603438B5070470000264010B562B626
:100E9000034800F0C1F80020FFF704FFFBE7C0465D
:100EA0000020001010B50020FFF7F8FA10BD7047C1
:100EB00010B50020FFF746FD041E25D0134B186027
:100EC000FFF7BCFB411C200000F0CCF8104B0400E5
:100ED0001860FFF7A5FB411C200000F0C3F80D4B84
:100EE000441E18600C49200000F0BCF8FA210B4B9E
:100EF000013018708900200000F0B4F8084B013070
:100F00001860084BC003186010BDC046840000087C
:100F1000880000088000000840420F00940000088C
:100F2000900000088C00000810B52048FFF71CF95D
:100F3000B022E02130201E4CD200A35889005B0073
:100F40005B08A35063588343635080235B04A35022
:100F5000184B194AE250A02204339201E250FF22BA
:100F6000164BE250FFF780FFC02201215200A35828
:100F70008B43A350FFF79BFFFFF79AFF104B032013
:100F80001A681300BA33198807234B43126A802169
:100F90009B180022DA605A600A4AFFF7C7FA0A482B
:100FA000FFF79AF90948FFF7D3F910BD2014001094
:100FB0000000264084050000010002008C050000AE
:100FC000C40500088003000844040008E014001071
:100FD0009023034A5B01D058032318407047C04652
:100FE0000000204010B59024FFF777F8074B64010C
:100FF0001A5907491140074A0A431A5110225968E1
:101000001142FCD0FFF76DF810BDC0460000204033
:10101000FCFF00000100FA05F8B590250E4C6D01AB
:101020000700FFF75AF863590600DB439B0701D11D
:10103000FFF7D8FF80239B00E7506359074A1A4007
:10104000074B13436351102362681A42FCD03000EF
:10105000FFF747F8F8BDC04600002040FCFF000045
:101060000300FA05002243088B4274D303098B4224
:101070005FD3030A8B4244D3030B8B4228D3030C68
:101080008B420DD3FF22090212BA030C8B4202D30A
:101090001212090265D0030B8B4219D300E0090A32
:1010A000C30B8B4201D3CB03C01A5241830B8B423B
:1010B00001D38B03C01A5241430B8B4201D34B0324
:1010C000C01A5241030B8B4201D30B03C01A524189
:1010D000C30A8B4201D3CB02C01A5241830A8B420E
:1010E00001D38B02C01A5241430A8B4201D34B02F7
:1010F000C01A5241030A8B4201D30B02C01A52415B
:10110000CDD2C3098B4201D3CB01C01A524183090E
:101110008B4201D38B01C01A524143098B4201D348
:101120004B01C01A524103098B4201D30B01C01A73
:101130005241C3088B4201D3CB00C01A52418308ED
:101140008B4201D38B00C01A524143088B4201D31A
:101150004B00C01A5241411A00D20146524110467A
:101160007047FFE701B5002000F006F802BDC04659
:101170000029F7D076E770477047C046002B11D1A1
:10118000002A0FD1002900D1002802D00021C94334
:10119000081C07B4024802A14018029003BDC046D3
:1011A000D9FFFFFF03B4684601B5029800F030F89C
:1011B000019B9E4602B00CBC7047C046F0B5CE46BF
:1011C000474615042D0C2E0080B50704140C3F0C67
:1011D0009946030C7E435D43674363437F19340C98
:1011E000E4199C46A54203D980235B029846C44477
:1011F0004B4643435143250C36046544360C2404C6
:10120000A4195B19591820000CBC90469946F0BDF2
:10121000F0B54F464646D646C0B5040082B00D0034
:10122000914698468B422FD82CD04146484600F034
:10123000CFF829000600200000F0CAF8331A9C46B7
:10124000203B9A4600D576E04B46524693401F001D
:101250004B46624693401E00AF4228D825D05346E5
:10126000A41BBD41002B00DA7BE00022002300928A
:101270000193012352469340019301236246934018
:10128000009318E08242D0D90022002300920193FB
:101290000A9B002B01D01C605D600098019902B090
:1012A0001CBC90469946A246F0BDA342D7D9002265
:1012B0000023009201936346002BE9D0FB07984678
:1012C000414672080A437B0866460EE0AB4201D1F4
:1012D000A2420CD8A41A9D41012024196D4100217D
:1012E000013E24184D41002E06D0AB42EED9013EFE
:1012F00024196D41002EF8D1009801995346001928
:101300006941002B23DB2B005246D3402A00644660
:10131000E2401C0053461500002B2DDB26005746EB
:10132000BE40330026006746BE403200801A994115
:1013300000900191ACE7624620239B1A4A46DA40AE
:101340006146130042468A4017001F4380E7624609
:1013500020239B1A2A0066469A402300F340134339
:10136000D4E76246202300219B1A002200910192BB
:101370000122DA40019280E72023624626009B1A70
:10138000DE402F00B0466646B74046463B0033433A
:10139000C8E7C0461C2101231B04984201D3000C5E
:1013A00010391B0A984201D3000A08391B099842D8
:1013B00001D30009043902A2105C40187047C046EE
:1013C000040302020101010100000000000000000E
:1013D00010B5002903D1FFF7DDFF203002E0081C23
:1013E000FFF7D8FF10BDC04603001218934200D18A
:1013F000704719700133F9E7F8B5C046F8BC08BC6E
:101400009E467047F8B5C046F8BC08BC9E4670477B
:1014100001B40248844601BC604700BF6102000875
:1014200000002040000024400000004000000000B8
:1014300000002340000030400000314000009F4089
:10144000000022400000104000009D40202020208D
:1014500020101010101D1D8017007500FF030602DC
:1014600006003604102000007FC0000000040000C9
:10147000000000000019324B647D00000000008075
:101480004000080B100000000000FF012002001FB8
:1014900000800004FF081018001000140018001C41
:1014A0004044484C500000000810000008000000B4
:1014B00004000000041000000012000004210000DD
:1014C000002100000016000040114002C413001368
:1014D0008013A01340138813A81320001C000000E1
:1014E00003000000010000000100000000000000F7
:1014F000050360000400000001000000000000007F
:10150000010000000604600008000000A4050008B7
:10151000A50E001000000000F8FCFF7F0100000095
:1015200000000010000000088000000040150010BE
:1015300080000008F8020000B00300081802000054
:1015400000093D0000127A0000093D000000D007AC
:10155000A00F000004000000A9000010810000108E
:1015600080B230B5C00020D0104B07221C68230089
:10157000BA331B885A43236AD31819680029FCDA46
:101580003E210B4B062519600A4B0B491960A3211C
:101590000A4BC9005D500A4958505858206A121821
:1015A000002050605A58002AFCDA30BDC4050008FB
:1015B00004012640080126401E1F000000002640AE
:1015C0001C05000010B54378FF2B11D100F0ECF89A
:1015D0000400032000F0F8F8C3685A68012311687A
:1015E0001943116011681942FCD1200000F00CF978
:1015F00010BDF7B500900020019100F0E5F83F4DD7
:1016000006002B681A005033BC3214681B7804198A
:10161000002B5AD000F0E0F8070003281BD000F0A0
:10162000C3F8374A374B0500D358002B3EDA364A09
:101630000121300000F0F0F8002837D10198FFF7C1
:101640008FFF009B002B3ED02368002BFCDB00F0BB
:10165000B3F804002BE0062000F0B6F82B68BC338A
:101660001B68C0180368002B02DA284C2000FEBD5E
:10167000002000F0B9F8264B9842F6D00023254A06
:1016800019001268012000F0B7F80025A842ECD13B
:10169000002000F0A9F81E4A1F4B904203D09D4243
:1016A000E3D00135F4E79D42B9D1DEE7174C032FB3
:1016B00005D10121002000F0B7F80028F9D1280059
:1016C00000F0A2F8D2E7154CF1E700F06DF80E4AF1
:1016D00005000121300000F09FF8002809D1009B8F
:1016E000002B08D02368002BFCDB00F065F8040019
:1016F000E5E7064CE3E7094CE1E7C046C40500080E
:10170000000026401C050000CC0300080500520024
:1017100001018800DC030008F049020001005000CC
:10172000184BF7B51B68184A5C68042311690B4312
:101730001361012824D030BF2300FC331B69002B28
:101740001DD1A320114B1249124AC0000F681E5828
:1017500015680195104D0D6006251D503E20106046
:101760000E483E351D501D58002DFCDA0C48FC3447
:1017700020610F60A321C9005E50019B1360F7BD7B
:1017800020BFD9E7C405000800ED00E000002640B6
:1017900008012640040126401E1F00001C05000011
:1017A000AAAAAAAA0000000001B40248844601BC0B
:1017B000604700BFDB00001001B40248844601BC52
:1017C000604700BF3902001001B40248844601BCE2
:1017D000604700BF7501001001B40248844601BC97
:1017E000604700BFD10F001001B40248844601BC1D
:1017F000604700BFE905001001B40248844601BCFF
:10180000604700BFB903001001B40248844601BC20
:10181000604700BFE300001001B40248844601BCE9
:10182000604700BF9D02001001B40248844601BC1D
:10183000604700BF750500100000000000000000B8
:101840000000000000000000000000000000000098
:020000041000EA
:1020000000F80F08E72300100D0000003324001033
:10201000352400103724001039240010000000007F
:102020000000000000000000000000003B24001041
:102030003D240010000000003F2400104124001047
:1020400043240010432400104324001043240010B4
:1020500043240010432400104324001043240010A4
:102060004324001043240010432400104324001094
:102070004324001043240010432400104324001084
:1022E00000F002F800F06EF80AA090E8000C8244BA
:1022F0008344AAF10107DA4501D100F063F8AFF297
:10230000090EBAE80F0013F0010F18BFFB1A43F0D3
:102310000103184784440000B44400000A4410F844
:10232000014B14F00F0508BF10F8015B240908BF2A
:1023300010F8014B6D1E05D010F8013B6D1E01F821
:10234000013BF9D1641E03D0641E01F8015BFBD18F
:102350009142E4D370470000103A24BF78C878C196
:10236000FAD8520724BF30C830C144BF04680C609B
:10237000704700000023002400250026103A28BFE3
:1023800078C1FBD8520728BF30C148BF0B607047E7
:10239000642900F02981002070471FB503F07DFFFC
:1023A0000448054900F0D0FB00F01EFA00F082F965
:1023B0001FBD00002829000800E80F0810B500F034
:1023C0007CFA10BDDFF80CD0FFF7E7FF03F0EAFD61
:1023D00000F08EFB00F80F0803B4FFF7EFFF03BC1B
:1023E00002F0C2FF7047FFF7FDFF72B615491648AD
:1023F0004FF438720B680360001D091D521E002A3D
:10240000F8D1114811490860BFF34F8F1048804739
:1024100010488047FEE7FEE7FEE7042071460842C9
:1024200003D0EFF3098000F002F8EFF3088002F028
:102430009FF9F2E7F1E7F0E7EFE7FEE7FEE7FEE7F7
:10244000FEE7FEE7002000100020000808ED00E095
:102450007D4F0010E1220010801C800803D0401C3A
:10246000801EFCD100BF7047EFF3108072B670473A
:1024700080F310887047704753EA020C00F06980BF
:102480002DE9F04B4FF00006002B1FBFB3FA83F588
:1024900003FA05F424FA05F65E4012BF1643B2FAB9
:1024A00082F502FA05F4C5F120051EBF22FA05FCEB
:1024B00044EA0C04203556EA044C4FEA144418BF91
:1024C000641C4FF000084FF00009904271EB030CC0
:1024D00039D3002919BFB1FA81F701FA07F6B0FA2A
:1024E00080F700FA07F6C7F120071EBF20FA07FCA5
:1024F00046EA0C062037B6FBF4FCA7EB0507103FB5
:1025000007F01F0BCBF120062CFA06F60CFA0BFB9A
:1025100044BFB3460026202FA4BF5E464FF0000BF9
:102520005BEA060C08BF4FF0010B19EB0B0948EBF7
:102530000608ABFB027C06FB02CC0BFB03CCC01BEA
:1025400071EB0C01C1E70B46024641464846BDE827
:10255000F08B13B5084318BF4FF0FF300146AFF3BF
:102560000080BDE81C4070470FB4044910B503AAB1
:10257000029800F00BF910BC5DF814FB3C24000835
:102580002DE9F0410E460446002020622046E16815
:10259000884730B3252805D0D4E901219047206A27
:1025A000401CF2E7E168204600278847050018D064
:1025B000A5F14100192802D820354FF400673246B2
:1025C000294620462760FFF7E3FE40B1012804D0EA
:1025D000F61D26F007060836D8E7361DD6E728464A
:1025E000DAE7206ABDE8F0812DE9F04106460024D3
:1025F00010687529314616A510D0AFF30080002869
:1026000002DA404213A507E031688A0701D512A516
:1026100002E0490704D511A5012401E0AFF30080D1
:1026200000210A2206F1240709E0B0FBF2FCB0FB0E
:10263000F2F302FB1C00303078541846491C002885
:10264000F3D123462A463046BDE8F04100F045B8B4
:10265000000000002D0000002B0000002000000002
:102660004FF0000200B5134694469646203922BF2B
:10267000A0E80C50A0E80C50B1F12001BFF4F7AF76
:10268000090728BFA0E80C5048BF0CC05DF804EB58
:10269000890028BF40F8042B08BF704748BF20F8C6
:1026A000022B11F0804F18BF00F8012B70477047C4
:1026B0007047704770B5064C7C44064D7D4404E07D
:1026C0002046016808448047241DAC42F8D170BD03
:1026D0000C4100000C41000070472DE9F0470D4609
:1026E00099469246044600F124080168880604D5FC
:1026F000E06921F01001216000E00120A84201DD25
:10270000471B00E00027A1697A1902EB0900081AAB
:10271000A0612078C00602D42046AFF300800026D6
:1027200008E0D4E901211AF806009047206A401C0D
:10273000761C20624E45F4DB2078C0060AD5204680
:10274000AFF3008006E0D4E9012130209047206AF1
:10275000401C2062381EA7F10107F4DC07E0D4E931
:10276000012118F805009047206A401C2062281EAD
:10277000A5F10105F3DC2046AFF3008020780006C8
:1027800002D50220BDE8F0870120FBE7074B70B5BA
:102790000D467B4400F011F80446284600F020F86E
:1027A00010B14FF0FF3070BD204670BD4F300000BB
:1027B00001694A1C02610878704700B58FB0CDE905
:1027C00001310021059105497944CDE903101146F5
:1027D0006846FFF7D5FE0FB000BD0000E5FFFFFF24
:1027E000007B00F08000704710B542485421FFF78D
:1027F00037FF41485421FFF733FF40485421FFF78A
:102800002FFF3F493B483C4A3F4B08603D490A6027
:102810003A491960531C0365481C1065012008657E
:102820003B48344A39A1784400F0C4F820B938480C
:1028300078440A3800F065F937482F4A35A17844C2
:1028400000F0B8F820B9344878440A3800F059F953
:1028500032482A4A2FA1784400F0ACF820B92F481A
:1028600078440A3800F04DF940232248DC0000216A
:10287000224600F07CF820B125487844543800F016
:1028800040F91D4822464023002100F070F820B195
:1028900021487844543800F034F91848224610236F
:1028A000002100F064F8002806D01C487844BDE8F8
:1028B0001040563800F025B910BD104870B5006DB5
:1028C00020F001040B4800F0EDF80B4800F0EAF8A6
:1028D0000A4800F0E7F809E0206D20F001052046E5
:1028E00000F0E0F8204600F01BF82C46002CF3D155
:1028F00070BD0000E82300083C2400089024000874
:10290000EC220008F0220008F42200087200000007
:102910008A3A000077000000763A0000623A000030
:1029200070B50446051F00F0F3F80068002C14BFD2
:10293000446870BD002C18BFAC423CBF20466468A0
:10294000F8D301680A18AA4218BF456003D12A6863
:1029500005461144016028684119A1421CBF6C6002
:1029600070BD6168696021680844286070BD70B5F9
:10297000C468A50713D0650211D4B2F5807F09D0D1
:10298000B2F5007F06D0B2F5806F08D1012300F1C7
:10299000240106E05D1E6FF07F46B54201D30120A1
:1029A00070BD0161C361416024F470611143C16075
:1029B000002070BD2DE9F0410C461646070047D0B7
:1029C000104600F06FF82078611C61280AD0722848
:1029D00002D077283CD102E00125002405E0022541
:1029E000042402E0082448F2020511F8010B2B2808
:1029F00006D0622809D011F8010C74280AD00BE027
:102A000045F0030544F00204EFE745F0040544F007
:102A10000104EAE744F010043846214602F0AAFC1B
:102A2000411C15D00021316171604FF40071F560D7
:102A3000F1617061200704D530460222002100F0C8
:102A4000E1F8306D40F0010030653046BDE8F081BE
:102A50000020FBE72DE9F0410D460646104C206DA5
:102A6000C10704D0410804D020F00104F7E7224652
:102A70000EE0542000F097F807000ED0206D47F0CC
:102A800001010843542120653846FFF7E9FD3A4625
:102A900029463046BDE8F0418CE70020D6E700002B
:102AA000E82300082DE9F04704464FF000094FF0F5
:102AB000FF37C568D4E90486A80707D0204600F090
:102AC00051F9304602F04EFC002802DA3846BDE8E3
:102AD000F087280502D54046FFF722FF4C2120460B
:102AE000FFF7BEFD206D20F0010020654846EEE7AF
:102AF00010B50446AFF300802046BDE81040FFF754
:102B00006BBC10B500F078F9BDE8104000F06EB96C
:102B100000487047EC2400087047704770477047C2
:102B200038B504460A4600206946AFF30080002805
:102B300008BF38BD02460099204600F085F9012003
:102B400038BD012000F072B9F8B5AFF3008005463A
:102B500000200C46102000BF0646A819A0420DD93F
:102B6000324669460020AFF30080070008BF00F03E
:102B70005DF90098A04218BF0546C419FFF7C8FFC9
:102B800005600746F01D20F007004619284600F0B2
:102B900054F9B44208BFF8BDA21B31463868BDE8FD
:102BA000F84000F051B970B50646FFF7B1FF05686F
:102BB00006F10B0020F00704B4429CBF002070BD5A
:102BC0002B466A68BAB11068A04210D304F108011C
:102BD00088423CBF5068586007D351681019416063
:102BE0001168091B016058601460101D70BD134608
:102BF0005268002AE7D121462846FFF791FF0028B6
:102C0000DED170BD2DE9F041044616460D464769F8
:102C1000007B80072ED0384602F0AAFB50BB3EB3A3
:102C2000012E02D0022E25D104E0204600F026F924
:102C300005441DE0384602F099FBE168002841F0A8
:102C40001001E16005DA204600F058F80120BDE8E7
:102C5000F081C9030BD56268E16A914200D8114640
:102C6000A26911442269891A814200DD084605449F
:102C7000002D01DA0220EAE7E16A6068E268814239
:102C800006D29103E06203D522F4003141F0100234
:102C9000A6690027AE4213DCE16A814201D90B46E6
:102CA00000E0034603EB060C2369ACEB030CAC45D8
:102CB00006DD814201D98C4600E084469C4505D161
:102CC000A760276042F02000A5620DE0AD1BE66919
:102CD000AE1B8142A66000D90846C01A281A20609F
:102CE0005819606022F0200003490840E06000208D
:102CF00084F84870ABE70000BFCFD7FFC16821F46C
:102D0000001141F08001C1600021816001607047C5
:102D10002DE9F047814614460E464FF0FF38324801
:102D2000D5685769054209D03846A16902F024FBED
:102D3000002811DB2C48C0430540E5602B46324695
:102D40004946384602F01CFBA16920F00042B21A45
:102D500011440028A16103D02046FFF7CFFF404671
:102D6000BDE8F08770B504460569C06A61688842AD
:102D700000D80846E16821F42011E160C90312D5AA
:102D8000A84208D02246411B2846FFF7C1FF10B1D8
:102D90004FF0FF3070BD0020E562C4E90150E068EB
:102DA00020F48030E060002070BD10B50446C0689B
:102DB00020F02000E060A16AA06988420DD0204682
:102DC000FFF7D0FFE06820F4405040F01000E060D2
:102DD000A06AA0612069E062606044F24001E0689E
:102DE0008843E06010BD000010000200002801D000
:102DF00002F0BABA7047000010B5014602A000F018
:102E00005EF8012010BD000053494752545245441A
:102E10003A2052656469726563743A2063616E2773
:102E200074206F70656E3A200000000010B500F04D
:102E30005FF8BDE81040FFF7D9BF00210160C0E98D
:102E40000110704710207047034640688C460028E8
:102E500018BF88423CBF03464068F8D3186818443E
:102E6000884207D00CF1030020F00700001D411A32
:102E7000521A0146081D0A60FFF752BD10B50146FF
:102E8000C268900703D0900607D5886A0AE000F070
:102E900057F801210160881E10BD8B6948681844ED
:102EA0000B69C01A91F848301BB191F84910401ACB
:102EB00010BD1103FCD50028FADD401E10BD70B511
:102EC00005460C460A2000E06D1C02F05BFA35B1A5
:102ED00028780028F8D102E0641C02F053FA14B1FB
:102EE00020780028F8D1BDE870400A2002F04ABAE4
:102EF00010B5012805D0002103A0FFF7E0FF012055
:102F000010BD09A1F8E7000053494752544D454D03
:102F10003A204F7574206F662068656170206D657A
:102F20006D6F7279000000003A2048656170206D75
:102F3000656D6F727920636F72727570746564006D
:102F400000487047E424000802F05CBC082900D364
:102F500001BE0F2A4AD822F0080CBCF1010F45D05F
:102F6000F0B5DDF814C0022B46D2BCF1200F47D2D9
:102F7000082948D21CF0E00F00D001BE42F2B87E12
:102F8000C0F6000EDEF800E06FF00F06DEE9055433
:102F90000429A0EB040406EAD4042C446FF01F05B6
:102FA00005EBC10534BFCD00043426681F27AF40B0
:102FB000BE430CF01F07AF40374327600768012668
:102FC0008E4003F00103B7438B403B4303609EF800
:102FD000813089001F580F268E4002F00F02B74340
:102FE00002FA01F139431950F0BD00BF01BEF0B53E
:102FF000DDF814C0022BB8D301BEBCF1200FB7D34B
:1030000001BE0829B6D301BE1CF0E00FB5D1B5E76B
:1030100001230028C0F25A0318BF002A02D1184623
:10302000704700BF082909D22DE9F0431368022B2D
:103030000AD253680F2B0BD90EE000BF01BE2DE959
:10304000F0431368022BF4D301BE53680F2B03D84F
:1030500043F00803092B00D101BE137A202B80F026
:103060008D80D368042B80F08E801369022B80F052
:103070008F805369022B80F09080136A022B80F0BE
:103080009180536A022B80F09280936A022B80F029
:103090009380D36A042B80F09480136B082B80F00C
:1030A0009580D369042B80F096809369022B01D31D
:1030B00001BE936942F2B87CC0F6000CDCF8005007
:1030C000012606FA01FE102695F8835006EB41040E
:1030D0000326A6402F5846EA0E0627EA060603F006
:1030E0000103D7698B40334307F0030606FA04F463
:1030F00023432B505468082900D301BE0F2C03D85A
:1031000024F00803012B00D101BEDCF800304FEAA7
:10311000810893F881500F272E5807FA08F704F01A
:103120000F04BE4304FA08F434432C50147A0829DF
:1031300000D301BE14F0E00F00D001BEDCF8005057
:103140006FF00F07D5E905560329A0EB060607EA3D
:10315000D606354446D82E68CF001F23BB4004F066
:103160001F0426EA0303BC4023432B60D4684FF0BE
:103170000109042C4FEA410653D253E001BED36843
:10318000042BFFF472AF01BE1369022BFFF471AF81
:1031900001BE5369022BFFF470AF01BE136A022B0C
:1031A000FFF46FAF01BE536A022BFFF46EAF01BE96
:1031B000936A022BFFF46DAF01BED36A042BFFF4B8
:1031C0006CAF01BE136B082BFFF46BAF01BED3696C
:1031D000042BFFF46AAF01BE9369022BBFF468AF02
:1031E00068E700BF6FF01F066B6806EBC1061F277C
:1031F000B74004F01F04BB43B44023436B60D46862
:10320000092907D24FF00109042C4FEA410608D2E0
:1032100008E000BF4FF0000901BE042C4FEA410650
:1032200000D301BEDCF80030032593F88030B540B0
:103230001F5804F0030427EA0505B4402C431C5032
:103240001469B9F1000F00D101BE022C00D301BEF8
:10325000836904F0010423EA0E038C402343836155
:103260005469082900D301BE022C6FEA0E0500D371
:1032700001BEDCF80030082993F8827093F884903E
:103280003E5806EA050604F0010505FA01F546EA8E
:1032900005063E5059F80070D2E9086527F0FF0C8A
:1032A000D2E90A47136B06F0010665F3410604F004
:1032B000010446EA840407F003054FEA431344EA95
:1032C000C504DBB2234408F47E7403FA04F343EA32
:1032D0000C0349F80030126800D301BE022A03D261
:1032E0001AB9043002E000BF01BE08300023C0F864
:1032F00000E0BDE8F04318467047000042F2B872A3
:10330000C0F600021268D2F8BC201258B2F1FF3F9A
:10331000C2BF0120C0F28A007047B1F5803F00D3E0
:1033200001BE89B2416000207047000001B901BEB2
:1033300042F2B872C0F600021268D2F8BC201258ED
:10334000B2F1FF3FC2BF0120C0F28A007047C068DF
:1033500008600020704700000368B3F1FF3FC2BF60
:103360000120C0F28A007047B1F5803FC26000D3EF
:1033700001BE89B2816000207047000042F2BC713A
:10338000C0F600010A68002A08BF08607047000004
:1033900070B582B00446002001905CB1206968B12C
:1033A000606978B1206A88B16069C668B6F5803F07
:1033B00012D23BE001BE20690028F1D101BE606954
:1033C0000028EFD101BE206A0028EDD101BE60695E
:1033D000C668B6F5803F29D34FF6FF7126EA010192
:1033E0000160006842F2B870C0F600000168206910
:1033F000D1F8BC100958B1F1FF3F17DC01A9FFF764
:1034000095FF08B100250DE00198E3690268D1B28B
:103410008B424FEA124505D9226A52F82110002941
:1034200018BF884720692946FFF768FFB0B278B116
:103430006269616A1060106821B18847002060628B
:1034400004E000BFA06A002818BF80470020A061E8
:103450006069006802B070BD42F2BC72C0F6000242
:10346000116829B12C2200FB0210FFF791BF00BFA9
:1034700001BE11682C2200FB0210FFF789BF00007B
:1034800000B901BE2DE9F04F85B08169082980F0AF
:10349000D780C16A002900F0D880016B002900F0B4
:1034A000D98042F2B87AC0F6000ADAF80040818A80
:1034B000278FC26807EB010B42F2BC71029282694E
:1034C000C0F600010F68D0F81080066A436A856A6A
:1034D0000492C26A01950092ADF80CB01FB901BE0A
:1034E0000F68DAF800402C2206FB027CD9B2724346
:1034F00094F83390B950C3F3072265464FEA134E50
:10350000634645F8042F494543F808EF03D301BE4D
:10351000DAF800402A68256AB4F8BA4001FB045181
:10352000CCF81010DAF8001091F83450AA4202D307
:1035300001BEDAF80010096A1B6801EB42122C2167
:1035400006FB0171DDF808E002F58055B3F5803F18
:103550004D6101D301BE01BEC3EA034341F2080736
:10356000D35100228A61009A019B0A6242F2BC7226
:10357000C0F60002D2F800C0CB61BCF1000FA1F888
:103580000CB002D101BED2F800C0DAF800402C2104
:103590000EFB01C394F833605FFA88F70EFB01F16C
:1035A0004CF80170C8F307211A464FEA1845B74294
:1035B0001E4642F8041F46F8085F03D301BEDAF83E
:1035C00000401168226AB4F8BA5007FB05221A615C
:1035D000DAF8002092F83430994202D301BEDAF8CA
:1035E0000020126A336802EB41112C220EFB02C24A
:1035F00001F58057B3F5803F576101D301BE01BE8D
:10360000C3EA034341F20807CB51016B002303A82F
:10361000C2E90633136201F063F8BDF90C0000281B
:103620000BD400F01F01012202FA01F14EF2001248
:103630004009CEF2000242F8201005B0BDE8F08F3C
:1036400001BEC16A00297FF428AF01BE016B0029C9
:103650007FF427AF01BE24E770B5002908BF002A18
:103660000CD040F20115C0F28A05002905F10203D1
:1036700018BF002A1AD1184670BD00BF42F2B872B6
:10368000C0F60002116891F83330834201D801BEC0
:1036900011680A6AB1F8BA10002301FB002042F653
:1036A0006001C0F600010860184670BD42F2E426D1
:1036B000C0F60006CC0631607260DCD142F2B8760A
:1036C000C0F60006366896F833408442D3D9336A90
:1036D000B6F8BA60C90806FB003442F66006C0F6C8
:1036E000000610463460FEF7BBFF20460021FFF7BE
:1036F00005FE306842F2E422C0F600020021FFF726
:103700002BFE00282B46B6D130680021FFF7F6FDCE
:10371000002808BF05462B46184670BD42F2B87116
:10372000C0F600010860704742F2B872C0F60002AD
:1037300011688B6CC340DB0701D101BE11680969B8
:1037400001EB80204FF48041405800F00F0070479B
:103750000268D0F8083212054FF080026FF35F2341
:1037600058BF40229A420EBF0020C0F840120120EC
:1037700070470000022800D301BE0021C4F22701D7
:103780000A6860F309220A607047000042F2B870CC
:10379000C0F6000000680168D0F88C004058C0F303
:1037A0000720704742F2B871C0F6000109680A6844
:1037B000D1F88C108B5823F47F4343EA00208850C3
:1037C00070470000B0B542F2B872C0F6000211684E
:1037D00091F84010814203D801BE116891F8401061
:1037E00040F28032C4F2260252F820308142C3F304
:1037F000011400D801BE52F82000012100F00F0092
:1038000001FA04F500F05CF800EB5500E040B0BDB3
:1038100042F2B871C0F60001096891F84010814287
:1038200000D801BE40F28031C4F2260151F82000D8
:1038300000F00F007047000001220329C0F24A0285
:1038400013D842F2B873C0F600031B6893F84030F7
:1038500083420AD940F28032C4F2260252F8203064
:1038600061F3051342F82030002210467047000033
:1038700001220F29C0F24A0214D842F2B873C0F6EE
:1038800000031B6893F8403083420BD940F280322A
:10389000C4F2260252F8203023F00F03194342F8F5
:1038A0002010002210467047042800D301BE40F2C9
:1038B0000051C4F226010A6860F301020A607047F1
:1038C000B0B542F2B875C0F600052968044691F813
:1038D0003E10814200D801BE54B1286890F83F10D4
:1038E000A1420AD3204600F0CDFD28B1B0BD00BFF3
:1038F00000F02EFB0028F9D1286890F83E00A04285
:1039000003D801BE286890F83E00A04200D801BE4E
:1039100040F23051C4F226014FF6106201EB8400F0
:10392000CFF6FF72825802F00702042A07D14FF641
:10393000D052CFF6FF728258082060F35F12B2F5C2
:10394000887F4FF000000FDAF2B1012A2AD0022A54
:10395000CCD1086800F00300032833D142F2B05004
:10396000C0F60000C068B0BD14D040F211139A42F6
:103970001ED040F213139A4218BFB0BDC8684FF46E
:10398000004101EA1040B0BD41F20020C0F27A00CF
:10399000B0BD00BF51F8240C4FF4004101EA1040C3
:1039A000B0BD00BF42F2B050C0F600008068B0BDAC
:1039B0001020C4F2270000684FF4004101EA4030B3
:1039C000B0BD00BF08680020B0BD000042F2B87171
:1039D000C0F60001096891F83E10814200D801BE8E
:1039E00040F20032C4F2260202EB8001096C01F0C1
:1039F0000701042904D152F82010082060F35F1158
:103A000088B2704742F2B872C0F60002126892F8AB
:103A10003E300246834240F20100C0F24A000AD919
:103A2000052909D201F0070040F24031C4F2260115
:103A300041F8220000207047A1F58073132B88BF46
:103A4000704701F01F0040F24031C4F2260101EB43
:103A5000820343F8400C042041F822000020704704
:103A600042F2B870C0F6000000680168D0F8880023
:103A70004058000E7047000042F2B871C0F60001D5
:103A800009680A68D1F888108B5823F07F4343EA0D
:103A9000006088507047000042F2B871C0F6000123
:103AA00009680A68D1F888108B5823F47F4343EAE9
:103AB00000208850704700002DE9F04F40F2020EC0
:103AC000C0F2420E013907290EF1FD0000F2C38158
:103AD000DFE811F008001600C1011E00C101C1019C
:103AE000C1015A0042F2B051C0F600010A78002A22
:103AF00040F0B181012048700020BDE8F08F00BF88
:103B000042F2B051C0F6000100204870BDE8F08FCD
:103B100042F2B05940F2305AC0F60009002042F299
:103B2000B873C4F2260AC9F80200C0F60003186888
:103B3000DAF85010B1F1FF3F00F38B8090F83E00AF
:103B400000B901BE4FF61060CFF6FF705AF80010B2
:103B500001F00702042A6FD0022A73D1DAF8581054
:103B6000022262F31D71CAF85810196891F83E10CC
:103B700000291CBF00214AF80010B9F8020040F0EB
:103B80000100A9F8020064E042F2B05CC0F6000C4B
:103B9000BCF8025075B340F23051C4F226010868F7
:103BA00044F2402300F003000328C0F20F0300F0AA
:103BB000BF8000BF0868002B00F04981086800F052
:103BC0000300032800F0AC800868086800F00300D8
:103BD000032800F0A7800868086800F003000328A5
:103BE00000F0A28008680868043B00F00300032886
:103BF000E0D19AE040F23050C4F22600016DB1F1FC
:103C0000FF3F00F322814BF6C051CFF6F071026EF8
:103C1000002900F0158112F0010240F01181026EBE
:103C2000D20704BF026E5FEAC27240F00A81026EE0
:103C30000431D207EBD004E14FF6D050CFF6FF703D
:103C40005AF80000DAF85800022161F31D70CAF832
:103C50005800186890F83F200020002A08BFBDE8EF
:103C6000F08F4FF6D45EAAF5F6770AF1D0064FF042
:103C700001084FF0020CCFF6FF7E00240EE000BFDB
:103C80000AEB8402D2F8D010651CB1F1FF3F09DDC8
:103C900019682C4691F83F2095423DD29442EFD3CB
:103CA00001BEEDE7196891F83E108D4200D301BEC8
:103CB00057F8241001F00701022905D00429E7D1A3
:103CC00052F80E10E4E700BF56F8241011F0405FE0
:103CD00006D056F8241001F04051B1F1805F06D1B2
:103CE000B9F8041008FA05F21143A9F8041056F8BF
:103CF000241008FA05F26CF31D7146F824101968B7
:103D000091F83E108D4238BF47F82400B9F80210F0
:103D10001143A9F80210BBE70020BDE8F08F00BFF7
:103D2000013B02E0023B00E0033B002B00F08F80F0
:103D300042F2B870C0F6000006684FF61068002224
:103D40004FF0010ACFF6FF784FF002090AFA02FBA2
:103D50001BEA050F58D000BF96F83E40A2423CBF78
:103D600001EB820444F80890A2B1551E01F5887455
:103D700096F83F60B54200D301BE54F825604BB3BE
:103D800016F0010626D10668013B96F83F60B54261
:103D9000F2D2F2E70C6EEBB114F001041AD10C6E02
:103DA000012B15D014F0010412D10C6E022B3BD064
:103DB00014F0010438D10D6E032BA3F1040403D0D9
:103DC00015F001032346E5D0631C23B930E000BFA2
:103DD000013B00BF63B38AB1BCF80470561E01F109
:103DE000D00555F826401BEA070F0CBF44F040579A
:103DF00024F0405745F8267004E000BF8F6D47F06F
:103E000040578F654FF0000E066896F83F40A2427B
:103E10001DD2BCF8025001320AFA02FB1BEA050F60
:103E20007FF49AAFF0E700BF023B002BD3D100BF75
:103E30000023066896F83F40A242EAD307E000BF9D
:103E400029B1816D41F0405181654FF0000E002095
:103E50008CF801007046BDE8F08F000040F2805100
:103E6000C4F226018868022262F31D708860086827
:103E700020F000400860C86820F000420020CA60BE
:103E80007047000070B540F28855C4F22605696895
:103E9000044641F000406860A868002C214618BF25
:103EA000012115D010F00400204612D1204600BF99
:103EB0000646012000F054FCAA68711E18BF0121BB
:103EC000012EA6F1010004D012F00402F0D000E0AF
:103ED00020462A68022363F31D722A6004B129B1C7
:103EE00055F8081C41F0004145F8081CAA68002854
:103EF000014618BF012110D012F001020DD1464237
:103F0000012000F02DFCA868B6F1FF3118BF012197
:103F1000013602D010F00100F2D0286894B189B9BE
:103F2000022161F31D70286055F8080C20F0004054
:103F300045F8080C686820F0004068600220C0F274
:103F40004A0070BD40F040502860002070BD000065
:103F500010B540F23052C4F22602D2F850C0546D6F
:103F6000916D6FF35F34D06D136D002C4FF0000036
:103F700000F07F8001F04051B1F1005F79D0B3F1E2
:103F8000FF3FC8BF10BD42F2B870C0F60000016824
:103F900091F83E1029B901BE006890F83E0000B9C2
:103FA00001BE4FF61060CFF6FF70105800F0070307
:103FB000042B07D14FF6D050CFF6FF7013580820CE
:103FC00060F35F130CF080706FF39F4CB3F5887F44
:103FD0004FF0000E10DADBB1012B27D0022B3AD1C3
:103FE000116801F00301032932D142F2B051C0F649
:103FF0000001D1F80CE02EE010D040F211118B42FC
:104000001CD040F213118B4225D1D16808E000BFCB
:1040100041F2002EC0F27A0E1DE000BF52F8241CBF
:104020004FF4004202EA114E15E000BF42F2B051D7
:10403000C0F60001D1F808E00DE000BF1021C4F285
:10404000270109684FF4004202EA413E03E000BF45
:1040500011684FF0000E0221002808BF0121A1FBCA
:1040600004235FEA53014FEA3200EEFB0C01FEF736
:1040700003FA10BD00B901BE10B540F28C5CC4F269
:10408000260C5CF80C2C002A62D40268B2F5802F52
:1040900001D301BE0268C3796FF39F42002B18BFA2
:1040A00002F180724CF80C2C8288B2F5005F00D3CC
:1040B00001BE0289B2F5007F01D301BE0289838867
:1040C0006FF35F3362F318434CF8083C827A102A8E
:1040D00042D2C27A102A43D28289B2F5005F01D35C
:1040E00001BE8289817AC37A01F00F0163F307115F
:1040F0004FF60073847BC0F21F0390F806E003EADA
:104100000222114404F0030241EA0271BEF1050FDC
:104110004CF8041C00D301BE028A0023B2F5007FD4
:10412000C0F2FF1301D301BE028ADCF800108079CF
:1041300060F30A21CCF80010DCF8000003EA024129
:104140006FF318400844CCF80000002010BD00BFF9
:104150000320C0F24A0010BD01BEC27A102ABBD3B0
:1041600001BE8289B2F5005FBAD2BBE740F20C50C3
:104170004FF67441C4F22600CFF6FF714158C907CB
:104180001EBF0320C0F24A007047016821F00041C1
:10419000016000207047000040F20C50C4F226007D
:1041A000016841F0004101607047000040F20C518D
:1041B000C4F226010A6822F0010210440860704728
:1041C00080B5844601200329C0F24A0019D842F282
:1041D000B873C0F60003D3F800E09EF842306345A0
:1041E00098BF80BD09B9082A0CD3012901D1102A32
:1041F00008D3022901D1042A04D3032908BF002AC5
:1042000000D080BD9EF875009EF8743001FA00F071
:1042100003EA0201DEF80820084302EB8C01C1F832
:10422000000C002080BD00000246032840F201007F
:10423000C0F24A0088BF70470AB908290CD3012A86
:1042400001D1102908D3022A01D1042904D3032A59
:1042500008BF002900D0704742F2B870C0F60000D5
:10426000006890F875C090F8743002FA0CF21940AA
:104270001143806841F08041C0F80014002070476D
:1042800001220328C0F24A020ED808B908290DD32A
:10429000012801D1102909D3022801D1042905D30D
:1042A000032808BF002901D01046704710B542F21C
:1042B000B872C0F600021268032392F877C092F831
:1042C00076E003FA0CFC92F8743092F875401940CD
:1042D00003FA0EFE41EA0C01A04041EA0E01084338
:1042E000916840F00040C1F80004D1F800040022B9
:1042F000BDE81040104670470346012840F2010017
:10430000C0F24A0006D01BB9072998BFFF2A19D965
:10431000704700BF0F29FBD80023B3EB124F18BF23
:10432000704742F2B870C0F6000000688368B0F8C9
:104330007A00184450F8213062F3172340F82130F6
:104340000020704742F2B870C0F600000068836831
:10435000B0F87800184450F8213062F30F2340F889
:104360002130002070470000B0B542F2B871C0F6AD
:1043700000010968441E91F83F108C4216D240F2A9
:104380000065C4F2260555F82400022161F31D7072
:1043900045F82400012000F0E3F955F8240020F04E
:1043A000004045F824000020B0BD00BF0120C0F24D
:1043B0004A00B0BD2DE9F04381B00D4642F2B8711C
:1043C000C0F600010968461E91F83F1040F201094D
:1043D0008E42C0F24A0939D240F20068C4F226087F
:1043E00058F8260008F1400740F0004048F8260041
:1043F00057F82610002D284618BF012012D011F0C2
:1044000001010FD16C4200BF012000F0A9F957F85B
:104410002610B4F1FF3018BF0120013402D011F092
:104420000101F1D058F82610A5B198B9022060F327
:104430001D71012048F8261000F092F958F8260066
:1044400009F1010920F0004048F82600484601B073
:10445000BDE8F08301F04050B0F1005F0CD158F896
:1044600026004FF0000940F0405048F8260048462A
:1044700001B0BDE8F08300BF4FF00009484601B02D
:10448000BDE8F08370B500284FF000013CD042F247
:10449000B874C0F60004236893F83F20A2B393F8E1
:1044A0003E10814203D801BE216891F83F2082422C
:1044B00002D20021084670BD411E40F2305E91429A
:1044C000C4F2260E10D20EEB8102D2F8D05005F0C5
:1044D0007F0CC5F30423C5F3044205F04055B5F144
:1044E000005518BF012505E00022012500234FF0EB
:1044F000000C01BE0EEB8101D1F8D060002A4FF014
:10450000000118BF002B01D1084670BD002DFBD063
:10451000B6F1FF3FF8DC216891F83E10814203D8E4
:1045200001BE216891F83E10814200D801BE0EEB19
:1045300080014FF61060CFF6FF70085800F00700BA
:10454000042807D14FF6D050CFF6FF700858082145
:1045500061F35F10B0F5887F4FF0000410DAD8B136
:10456000012827D0022838D1DEF8000000F003002F
:1045700003282FD142F2B050C0F60000C4682CE0EE
:1045800010D040F2111188421AD040F21311884223
:1045900023D1DEF80C0007E041F20024C0F27A04D7
:1045A0001BE000BF5EF8240C4FF4004101EA104408
:1045B00013E000BF42F2B050C0F6000084680CE087
:1045C0001020C4F2270000684FF4004101EA403493
:1045D00003E000BFDEF800000024A3FB02235FEA33
:1045E00053014FEA3200E4FB0C01FDF745FF0146A1
:1045F000084670BDF0B542F2B872C0F6000212680B
:1046000092F83F300246834240F20100C0F24A0075
:104610003CD3013A9A4200D301BE40F2006CC4F28E
:10462000260C5CF82230002B32D48B789E1E0E2E86
:104630002CD891F801E0AEF10104112C26D8CC78E9
:104640000D781327002C4FF0380608BF162708BF37
:104650007026AF421AD8AE4238BFF0BD08790228A2
:104660000DD04FEA0E2141EA034141F67F73294400
:10467000C0F21F03194041EAC4614CF822105CF8F3
:10468000221060F31D7100204CF82210F0BD00BF15
:104690000230F0BDB0B50024C4F227042168002820
:1046A00041F0080121602269014618BF012110D0A4
:1046B00012F004020DD14542012000F051F82069AA
:1046C000B5F1FF3118BF0121013502D010F004000F
:1046D000F2D00220C0F24A00002918BF0020B0BD6D
:1046E00010B578B34368082B01D301BE4368B0F915
:1046F00000204EF6085C02F00F04CEF2000C043CE1
:1047000064444FEA431E103402F16043B2F1FF3FAC
:10471000C8BF03F5644484F800E0DCF8002042F2EE
:104720000003C0F600039A4209D1B0F90000DCF89A
:1047300000209A4203D149B103EB800001640020BC
:1047400010BD00BF0120C0F2560010BD01BE03EB3A
:1047500080000164002010BD0120FEF77DBE000036
:1047600042F2F821C0F6000109784843FDF774BE13
:1047700080B542F6940190E80C50C0F6000181E843
:104780000C50D0E90423C1E90423D0E90623C1E990
:1047900006234EF62452CEF2000253680B62936851
:1047A0004B6213688B621369CB6252690A63F1EE44
:1047B000102A12F0900F21D0026A4A63426A8A637B
:1047C000826ACA63C26A0A64026B4A64426B8A6480
:1047D000826BCA64C26B0A65026C4A65426C8A6568
:1047E000826CCA65C26C0A66026D4A66426D8A6650
:1047F000826DCA66C26D0A67006E4867BDE8804078
:1048000000F02EB80C20C1F200600188002914BF0E
:1048100000884FF4807070470120C1F20060017879
:10482000002914BF007821207047000040F60401E1
:104830000422C4F22601C4F2260251F8040C1268C4
:1048400012060A6818BF40F480200968120418BFD5
:1048500040F48030B1F5803F28BF40F4003070470D
:10486000FEE770474820C4F227004FF00041016086
:1048700000680321C0F2460101EAE07070470000C1
:1048800010B542F2B8726423C0F60002002818BFC7
:104890001923D2F800C08B42DCF800E0BCF8AC4031
:1048A0004FF000025EF8043038BF012223F003030A
:1048B00013444EF80430DCF800E05EF8043023F4D2
:1048C00040734EF80430DCF800E0BCF8AE405EF80F
:1048D000043023F003031A444EF80420DCF80020CF
:1048E000135923F44073135140B10220222938BFD9
:1048F0000120112938BF00201FE000BF9CF855009F
:10490000884213D29CF85600884211D29CF8570076
:1049100088420FD29CF8580088420DD29CF859204A
:1049200004208A4238BF052007E000BF002004E0D1
:10493000012002E0022000E00320DCF804100A68F5
:1049400022F00F021044086010BD00002DE9F0476E
:104950000446022800D301BE42F2B87AC0F6000A2B
:10496000DAF8000003250168D0F89C00C0F2420587
:104970004658FFF747FFB0F5807F0BD10E20FEF7BA
:10498000D3FE0646FFF748FFF6B122281CD828467A
:10499000BDE8F087DAF800000168D0F89C20535891
:1049A00023F4406353500168D0F89C204FF44063D7
:1049B0005758B3433B4353500168D0F89C004058CC
:1049C000704010F4406FE2D047F6307540F2407707
:1049D000C4F22605C1F20067FDF746FD80469CB390
:1049E0000020C4F22600016800220068C5F20422FB
:1049F000090258BF02F18072104041F610094FF6CB
:104A00001C769042C1F2006914BFD9F80000502012
:104A1000C4F2260628607C7830680B2161F304001C
:104A200030600320FFF79CFEFFF7ECFEB0F5807FBF
:104A30001AD1DAF8000004230168D0F89C0042582B
:104A400063F30E32425021E0002028603E780120BE
:104A500000F092F90546002852D04046FDF708FDC7
:104A60002846BDE8F08700BFD9F84000DAF800100A
:104A70000A68D1F89C309F583F0A67F30920985084
:104A8000D9F83C000A68D1F8A0108850306864F367
:104A9000040030600720FFF763FEFFF7B3FEB0F5B8
:104AA000807F11D1DAF8000003270168D0F89C203C
:104AB000535867F3030353500168D0F8A0004258DD
:104AC00067F30302425011E0D9F81400DAF800103D
:104AD0000A68D1F89C309F583F0A67F30920985024
:104AE000D9F810000A68D1F8A0108850002000F012
:104AF00043F905464046FDF7BBFC2846BDE8F08774
:104B000041F61005C1F20065FFF77CFEB0F5807F2D
:104B100012D1DAF8000002270168D0F89C2053581F
:104B200067F3030353500168D0F8A000425867F3BD
:104B30000302425010E000BFA86BDAF800100A68C8
:104B4000D1F89C309F583F0A67F309209850686B52
:104B50000A68D1F8A01088504FF61C70C4F22600E5
:104B6000016866F304010160FFF74CFEB0F5807F39
:104B700010D1DAF8000006230168D0F89C00002567
:104B8000425863F30E3242504046FDF771FC28460E
:104B9000BDE8F087E868DAF8001000250A68D1F867
:104BA0009C108B581B0A63F3092088504046FDF780
:104BB0005FFC2846BDE8F0874420C4F22700016866
:104BC00001F47F41B1F5685F18BF704701684CF28E
:104BD000FF52CDF6FF72114001F568510160704738
:104BE0004420C4F2270001683A2262F30F210160D9
:104BF0007047000080B5002856D0C168002953D006
:104C00000168002950D0017942F2C452C0F6000276
:104C100002EB810CDCF80810002947D00B1A18BFF2
:104C20000123814231D04A697AB390F818E000BF7D
:104C3000137E734598BF1146131A18BF0123824291
:104C400023D052690AB3137E734598BF1146131AD5
:104C500018BF0123824218D05269B2B1137E734546
:104C600098BF1146131A18BF012382420DD0526912
:104C70005AB1137E734598BF1146131A18BF01230A
:104C8000824202D05269002AD2D16BB10A69AAB914
:104C9000027E0B7E9A4211D20022C0E904210861F3
:104CA000CCF80800012080BD002080BD0021CCF898
:104CB0000800C0E90411012080BD00BF4A690161FC
:104CC000002A426118BF10614861012080BD0000C8
:104CD00010B50024C4F2260420684FF6FF71C00D01
:104CE000CAF6FB41226860F3186102EA0100206005
:104CF0000820FFF735FD6FF0630000BF216878B131
:104D0000B1F1FF3F0CDD216800290AD42168002998
:104D100007D421680430B1F1FF3FEFDC01E000BFB0
:104D200030B3206820F0806020600120FFF718FD7C
:104D3000206800020DD44FF61C70C4F2260040F229
:104D400040710068C1F20061097800F01F008842DC
:104D500002D1002010BD00BF41F61000C1F200607A
:104D6000006847F63071C4F226010860002010BDCB
:104D70000220C0F2420010BD2DE9F0410546022894
:104D800000D301BEFFF748FD0746FFF73BFD06468F
:104D90000E20FEF7C9FC042442F2B878C0F24204A7
:104DA000222FC0F600080DD8B6F5807F0AD148B989
:104DB000D8F800004FF2180140680024425865F30B
:104DC00018624250222F05D8B6F5807F02D12046C6
:104DD000BDE8F081D8F8000090F83310012902D81E
:104DE00001BED8F80000016AB0F8BA00002D01EB4E
:104DF000000740F20100C0F6004040F20111C3F28A
:104E0000000100F1020208BF00F1105104BF0122AD
:104E1000C0F60042B6F5807F08BF0A463846012139
:104E2000FEF79AFA0028D2D1D8F80000D0F8BC00DA
:104E3000395800290AD53958B1F1FF3F06DC3958F5
:104E4000B1F1FF3F02DC39580029F1D4F86800F0D5
:104E50007F40B0F1204008BF04462046BDE8F08105
:104E60004EF21000CEF20000016841F00201016034
:104E7000016841F001010160704700004EF2180026
:104E8000CEF2000000687047B1F1807F00D301BE10
:104E900080B542F22063C0F6000300224EF2100CEF
:104EA000C3E90022C3E902221A6142F2000244F679
:104EB0003173CEF2000CC0F60002C1F200030428E8
:104EC000D36309D1DCF8000040F00400B1F1807F29
:104ED000CCF8000017D315E042F2B872C0F6000219
:104EE00012684FF0407E1368D2F8A4200EEA0060EA
:104EF000D050DCF8000020F00400B1F1807FCCF845
:104F0000000000D301BE21F07F40CCF80400002057
:104F1000CCF80800DCF8000040F00200CCF80000FB
:104F2000DCF8000040F00100CCF8000080BD00007B
:104F300010B54EF21000CEF200000068C00358BF5A
:104F400010BD42F22064C0F600042068002818BF9B
:104F500080476068002818BF8047A068002818BFF5
:104F60008047E068002818BF8047206910B1BDE87D
:104F70001040004710BD00007047000080B5FDF7ED
:104F800073FA4EF68851CEF200010A6842F47002BC
:104F90000A60BFF34F8FBFF36F8FBDE88040FDF70E
:104FA00067BA0000B0B50020FEF70CFC002808BF6F
:104FB000B0BD42F2F825C0F600050446A860FEF731
:104FC0004FFD0130B4FBF0F0E860FEF7DFFB01308D
:104FD000B4FBF0F04DF68362411EC4F21B32A1FB1C
:104FE000022344F6D352C1F26202A1FB02126860AE
:104FF000012000EB934100EB92102970C103C5E939
:105000000401B0BDB0B546F24050C1F20000FEF759
:1050100085FBFFF7B1FF0020FEF7D4FB38B342F267
:10502000F825C0F600050446A860FEF719FD01301A
:10503000B4FBF0F0E860FEF7A9FB0130B4FBF0F040
:105040004DF68362411EC4F21B32A1FB022344F6DB
:10505000D352C1F26202A1FB02126860012000EB90
:10506000934100EB92102970C103C5E904010320AC
:1050700000210022FEF7F0FA42F23460C0F6000090
:10508000FEF77CF946F2FC40C1F20000BDE8B040FA
:10509000FEF7F6B942F24450C0F6000000787047BF
:1050A0002DE9F04F83B042F21C62C0F60002528834
:1050B0004468FF27C0F24207E6B23AB1012905D1A0
:1050C000022E03D1384603B0BDE8F08F08460191A7
:1050D00000F03CF9804642F21030C0F60000B8F112
:1050E000020F00F1040105D0B8F1080F02D00A4602
:1050F000014610460068D1F8009040F2897188425C
:1051000002903DD0B8F1010F20D1DDF808B040F297
:10511000897A03E0DBF80CB0D34531D0DBF80030FE
:10512000002BF7D09BF804002040C0B2B04204BF6F
:105130009BF805005FEAC070ECD1DBF80820304630
:10514000012198470028E5D14D463CE0029D40F200
:10515000897702E0ED68BD4212D02B68002BF9D0B0
:1051600028792040C0B2B042F4D1687900EA080042
:105170004045EFD0AA68304641469847EAE700BF6D
:1051800040F2897081455DD0B8F1010F3CD140F209
:1051900089774D4603E000BFED68BD4252D02B68D1
:1051A000002BF9D028792040C0B2B04204BF687902
:1051B0005FEAC070F0D1AA68304601219847002804
:1051C000EAD140F2897BFF27C0F24207B8F1010F14
:1051D00002D0A4E0D9F80C90A94500F09D80D9F840
:1051E0000030002BF6D099F804002040C0B2B04245
:1051F000F0D199F805008007ECD4D9F808203046A2
:1052000002219847E6E700BF40F2897504E000BF3D
:10521000D9F80C90A94515D0D9F80030002BF7D05B
:1052200099F804002040C0B2B042F1D199F80500CD
:1052300000EA08004045EBD0D9F808203046414646
:105240009847E5E701200027102E08BFB8F1040FAA
:105250002AD0082E08BFB8F1080F37D0711E0022DF
:10526000012980F0010088BF012210437FF42AAF9A
:10527000019808283CD004287FF424AF4EF2100097
:1052800042F21C63CEF20000C0F6000301681A78F7
:10529000114059703FF416AF016821F0010101601F
:1052A000384603B0BDE8F08F0020FEF78BFA4DF6CC
:1052B0008361C4F21B31A0FB0101890C0120FFF7BF
:1052C000DFFA384603B0BDE8F08F00BF0020FEF7DC
:1052D00079FA4DF68361C4F21B31A0FB0101890C00
:1052E0000020FFF7CDFA384603B0BDE8F08F00BFCD
:1052F00042F21C60C0F60000407800283FF4E2AEA5
:105300004EF21000CEF20000016841F00101016090
:10531000384603B0BDE8F08F029D5D4506D1002000
:1053200092E700BFED6800205D458DD02B68002B13
:10533000F8D028792040C0B2B042F3D16879800714
:10534000F0D4AA68304602219847EBE7082805D830
:105350000121814011F48B7F18BF7047012001BEED
:105360007047000000207047FEE7000000207047F3
:1053700000207047012070474FF0FF307047000059
:10538000002070477047000080B5D0F800E00A01A7
:10539000011D11F802C09EF8003083EA0C038EF85C
:1053A0000030D0F800E002F1010C11F80CC09EF8BA
:1053B000013083EA0C038EF80130D0F800E002F1EE
:1053C000020C11F80CC09EF8023083EA0C038EF830
:1053D0000230D0F800E002F1030C11F80CC09EF886
:1053E000033083EA0C038EF80330D0F800E002F1BA
:1053F000040C11F80CC09EF8043083EA0C038EF8FC
:105400000430D0F800E002F1050C11F80CC09EF851
:10541000053083EA0C038EF80530D0F800E002F185
:10542000060C11F80CC09EF8063083EA0C038EF8C7
:105430000630D0F800E002F1070C11F80CC09EF81D
:10544000073083EA0C038EF80730D0F800E002F151
:10545000080C11F80CC09EF8083083EA0C038EF893
:105460000830D0F800E002F1090C11F80CC09EF8E9
:10547000093083EA0C038EF80930D0F800E002F11D
:105480000A0C11F80CC09EF80A3083EA0C038EF85F
:105490000A30D0F800E002F10B0C11F80CC09EF8B5
:1054A0000B3083EA0C038EF80B30D0F800E002F1E9
:1054B0000C0C11F80CC09EF80C3083EA0C038EF82B
:1054C0000C30D0F800E002F10D0C11F80CC09EF881
:1054D0000D3083EA0C038EF80D30D0F800E002F1B5
:1054E0000E0C11F80CC09EF80E300F3283EA0C033C
:1054F0008EF80E300068895CC27B5140C17380BD5C
:1055000010B500F023F8044618B900F025F9044658
:1055100020B100F005FB204610BD00BF002040F682
:10552000E44100F041F900F0FBFA42F2CC30C0F661
:105530000000FFF75FFB0024C0F20264002818BFE0
:105540000024204610BD0000FEE700000020704748
:105550002DE9F04F81B00446FCF786FF237846F230
:105560001E6E627894F802B0042BC1F2000E4FF068
:10557000010440F6283602BF93460D2205231C2B5A
:105580009ABF0EEB4307B7F802A040F2311A3EF87B
:1055900013C09C40C0F6004640F2001914EA060809
:1055A000C0F2024920D0DC1E182C21D846F2006639
:1055B0001A27C1F20006DFE804F00D1B321B1B0D99
:1055C000231B2D1B1B1B1B1B1B1B1B1B1B1B1B1B11
:1055D0001B810D0046F297760127C1F20006D4B276
:1055E000BC4206D21EE000BF5CFA82F725E000BF95
:1055F00001BEFCF73DFF484601B0BDE8F08F00BF9B
:1056000046F21A660227C1F20006D4B2BC42F0D2BA
:1056100008E000BF46F230561027C1F20006D4B2AF
:10562000BC42E6D2355D5CFA8BF10134BC4201EB41
:10563000050702D2315D0CEB010A1FFA8AF1BCB2F8
:105640008C42D6D242F66C05C7F3C701C0F60005FE
:10565000695C07F00704E140C90707D009F10109B7
:10566000FCF706FF484601B0BDE8F08F1C2B9ABF3F
:105670000EEB4301B1F802E040F2311EB8F1000F29
:1056800026D0DC1E182C27D846F200661A23C1F259
:105690000006DFE804F00D213A21210D35212921F2
:1056A000212121212121212121212121212F0D0011
:1056B00046F297760123C1F2000626E046F21C6608
:1056C0000227C1F20006D4B2BC42BFF492AFA9E7F0
:1056D0005CFA82F127E000BF01BEFCF7C9FE484634
:1056E00001B0BDE8F08F00BF46F230561023C1F282
:1056F00000060AE046F21C660223C1F2000604E03E
:1057000046F21A660223C1F20006D2B29A42BFF4F0
:1057100070AFB15C5CFA8BF401329A42214402D240
:10572000B25C0CEB020E1FFA8EF28BB29342BFF406
:1057300060AF01F00702C1F3C70101236F5C03FAF8
:1057400002F23A434FF000096A54FCF791FE4846D2
:1057500001B0BDE8F08F000010B542F21034C0F681
:10576000000404F10800FFF745FAC0B104F1240079
:10577000FFF740FA98B104F14000FFF73BFA70B12F
:1057800004F15C00FFF736FA48B142F2B030C0F6DF
:105790000000FFF72FFA00281CBF002010BD41F2C7
:1057A0000170C0F2024010BD00B101BE42F2B472FD
:1057B000C0F6000242F8201070470000B0B50C4659
:1057C0000546FFF767FC28B141F20370C0F20240C2
:1057D000B0BD00BF28682146FDF7BAFF0028F9D008
:1057E0000020B0BD10B50446C1B242F2C070C0F690
:1057F0000000FFF7E3FF002818BF4FF0FF342046FA
:1058000010BD0000F0B581B004460068217902782F
:1058100046F25A665140017020686179427801274A
:10582000514041702068A1798278C1F20006514050
:1058300081702068E179C2785140C1702068217A76
:105840000279514001712068617A42795140417179
:105850002068A17A8279514081712068E17AC27909
:105860005140C1712068217B027A51400172206849
:10587000617B427A514041722068A17B827A51401B
:1058800081722068E17BC27A5140C1722068217C1C
:10589000027B514001732068617C427B514041731F
:1058A0002068A17C827B514081732068E17CC27BAF
:1058B0005140C17320680178715C017020684178A3
:1058C000715C417020688178715C81702068C1785A
:1058D000715CC17020680179715C01712068417947
:1058E000715C417120688179715C81712068C17936
:1058F000715CC1712068017A715C01722068417A23
:10590000715C41722068817A715C81722068C17A11
:10591000715CC1722068017B715C01732068417BFE
:10592000715C41732068817B715C81732068C17BED
:10593000715CC1732068427941784270437A226871
:10594000407B537122685072206841732068827ACC
:1059500081788270837B226880799371226891724A
:10596000216888732068C27BC178C2702268C379BD
:10597000C07AD1712168CB722168C873204600F0CB
:1059800025FBFDB220462946FFF7FEFC092D07F155
:1059900001078FD320680178715C0170206841781D
:1059A000715C417020688178715C81702068C17879
:1059B000715CC17020680179715C01712068417966
:1059C000715C417120688179715C81712068C17955
:1059D000715CC1712068017A715C01722068417A42
:1059E000715C41722068817A715C81722068C17A31
:1059F000715CC1722068017B715C01732068417B1E
:105A0000715C41732068817B715C81732068C17B0C
:105A1000715CC1732068427941784270437A226890
:105A2000407B537122685072206841732068827AEB
:105A300081788270837B2268807993712268917269
:105A4000216888732068C27BC178C2702268C379DC
:105A5000C07AD1712168CB722168C873206894F82C
:105A6000A410027851400170206894F8A510427883
:105A700051404170206894F8A6108278514081709E
:105A8000206894F8A710C2785140C170206894F83B
:105A9000A810027951400171206894F8A910427948
:105AA00051404171206894F8AA1082795140817167
:105AB000206894F8AB10C2795140C171206894F805
:105AC000AC10027A51400172206894F8AD10427A0D
:105AD00051404172206894F8AE10827A5140817230
:105AE000206894F8AF10C27A5140C172206894F8CF
:105AF000B010027B51400173206894F8B110427BD2
:105B000051404173206894F8B210827B51408173F8
:105B1000206894F8B310C27B5140C17301B0F0BD4E
:105B200080B500F0C1F800F009F800F0B5F800F019
:105B30001BF8BDE8804000F01DB8000080B50020D3
:105B40000021FEF771FB00200021FF22FEF7D4FBAD
:105B500000200021FEF794FB46F2CF20C1F20000A6
:105B6000BDE88040FFF7F4BC2F2000210022FEF7A3
:105B700027BB0000B0B540F20034C4F23104A4F5F4
:105B8000407546F28C32C1F2000228460021FDF732
:105B90003FFA46F2C030C1F20000FFF7D9FC46F2EE
:105BA000C432C1F2000228460121FDF731FA46F263
:105BB000F830C1F20000FFF7CBFC46F2E120C1F261
:105BC0000000FFF7C5FC46F25432C1F20002204645
:105BD0000421FDF71DFA46F28830C1F20000FFF7FC
:105BE000B7FC46F21C32C1F2000220460621FDF746
:105BF0000FFA46F25030C1F20000FFF7A9FC46F25E
:105C0000E422C1F2000220460721FDF701FA46F224
:105C10001830C1F20000FFF79BFC46F2C020C1F231
:105C20000000FFF795FC46F2C320C1F20000FFF729
:105C30008FFC46F2C620C1F20000FFF789FC46F255
:105C4000C920C1F20000FFF783FC46F2CC20C1F26C
:105C50000000FFF77DFC46F2D220C1F20000FFF702
:105C600077FC46F2D520C1F20000FFF771FC46F246
:105C7000D820C1F20000FFF76BFC46F2DB20C1F236
:105C80000000FFF765FC46F2DE20C1F20000BDE82F
:105C9000B040FFF75DBC000042F20800C4F23000E3
:105CA0003321016081607047B0B582B00020962139
:105CB000FEF7E6FDFEF7BAFDE0B94FF60074C4F258
:105CC00027042568FEF7CEFD50B10120FEF748FD00
:105CD0004820C4F227000068B0F1FF3F40F3F28093
:105CE00005F03F002060FEF741FAFEF755FA01206B
:105CF000FEF75CFA0120FEF729FEFEF7E9FFFEF74A
:105D00006FFFFEF759FF00200021FDF795FD0020F1
:105D1000FDF748FD0120FDF7AFFE0020FDF7BCFEBA
:105D200042F2B870C0F60000006890F83F4024B11D
:105D30002046FEF719FB013CFAD101200021002585
:105D4000FDF760FE0020FDF763FD50B90020FDF770
:105D50003DFE40F21111884203D100200121FDF7E0
:105D600087FDFEF77BF800200021FDF74BFE0020A9
:105D70000021FDF77DFD0024C4F2310420460021FE
:105D8000002200230095FDF7E1F8204601210022C2
:105D900000230095FDF7DAF844F24020C0F20F002E
:105DA000FEF778FC002840F089800120FDF77CFD9B
:105DB0000020FDF7F7FC0020FDF75EFE0020FDF758
:105DC0006BFE01200021FDF71DFE00200021FDF7E4
:105DD00019FE02200021FDF715FE03200021FDF72A
:105DE00011FE04200021FDF70DFE05200021FDF726
:105DF00009FE46F25C70C1F20000FEF73BF9002894
:105E000054D140F64050C0F20300FEF73BF80028A2
:105E10004CD100200021FDF72BFD00200021FDF7D3
:105E20000BFD46F28271C1F200010120FEF7E2FB98
:105E300000283FD1012042F21071FEF7BBFAC8BB27
:105E40000020FDF797FCFEF7A7F90120FEF7AEF959
:105E500000206421FEF714FDFFF7A4F846F27070ED
:105E6000C1F20000FFF774FB46F27370C1F200004C
:105E7000FFF76EFB46F27670C1F20000FFF768FB99
:105E800046F27970C1F20000FFF762FB46F27C70C7
:105E9000C1F20000FFF75CFB46F27F70C1F2000028
:105EA00002B0BDE8B040FFF753BB00BF0420FFF7CE
:105EB0004BFB00BF0320FFF747FB00BF0520FFF7A8
:105EC00043FB00BF0620FFF73FFB00002DE9F04732
:105ED000D0F8B41046F25A6E0A7846F2FB3C0271D2
:105EE0004A78C1F2000E42718A78C1F2000C8271C8
:105EF000CA78C2710A7902724A7942728A798272C8
:105F0000CA79C2720A7A02734A7A42738A7A8273AF
:105F1000CA7AC2730A7B02744A7B42748A7B827497
:105F2000C97BC174002122E0DD791A7975401E7A9F
:105F30005F7982EA0A021A7572405E7A9C7987EA72
:105F400009071A7687EA06029E7A84EA08049C7595
:105F50005A7684EA0602DC7A02319A7685EA0402ED
:105F600028295F75DD75DA7608BFBDE8F08700EB9C
:105F700081030F1D93F810A093F8119093F81280ED
:105F8000DE7CBA07D0D41EF809201EF808901EF84F
:105F90000680BE081CF806701EF80A6087EA020A2E
:105FA000C2E7000080B504206FF07F41FEF76CFF70
:105FB000FEF756FFFFF7A4FA00F0EAF846F2877002
:105FC000C1F20000FCF7D0FA002080BD70B5016876
:105FD00091F800E04B788A7891F803C083EA0E04C8
:105FE000624065B282EA0C034FF01B0C0CEAD5123A
:105FF0008EEA440462405A400A7001684A788C78FC
:10600000544065B25A400CEAD51582EA44026A400F
:106010004A7001688A78CC78544065B25A400CEADC
:10602000D51582EA44026A408A700168CA7882EA19
:106030000E056CB25A400CEAD41482EA4502624062
:10604000CA70016891F804E04B798D79CC7983EAC4
:106050000E0256B282EA050363400CEAD6148EEAB9
:10606000420262405A400A7101684A798C79544070
:1060700065B25A400CEAD51582EA44026A404A7178
:1060800001688A79CC79544065B25A400CEAD5153A
:1060900082EA44026A408A710168CA7982EA0E067D
:1060A00075B25A400CEAD51582EA46026A40CA71B6
:1060B000016891F808E04B7A8E7A83EA0E04CD7A73
:1060C00062B284EA06030CEAD2128EEA44046B4000
:1060D00062405A400A7201684A7A8C7A544065B22A
:1060E0005A400CEAD51582EA44026A404A720168B5
:1060F0008A7ACC7A544065B25A400CEAD51582EAC5
:1061000044026A408A720168CA7A82EA0E0675B24F
:106110005A400CEAD51582EA46026A40CA72016802
:1061200091F80CE04B7B8E7B83EA0E04CD7B62B250
:1061300084EA06030CEAD2128EEA44046B40624001
:106140005A400A7301684A7B8C7B544065B25A40BE
:106150000CEAD51582EA44026A404A7301688A7BD8
:10616000CC7B544065B25A400CEAD51582EA440211
:106170006A408A730068C17B81EA0E0256B25940B8
:106180000CEAD61681EA42017140C17370BD00006D
:106190002DE9F041ECB047F62B60C1F21560689034
:1061A0004AF64570C5F28E1067904BF29E70CAF6A3
:1061B0006F40669040F21E30C9F6AC40659042F6E2
:1061C000AE504CF609784FF2AB774AF62866C5F226
:1061D0008A7036ADC3F64F48C8F61507CAF2D266C4
:1061E0006490281DB021CDF8AC816A976996FCF7C0
:1061F00037FA64A8369068A86390FEF73FFE04461D
:106200002846FFF763FEFEF739FE211A46F2957421
:10621000C1F200042046FCF7A7F92846FCF794FEDB
:1062200033A880E8C0014DF61B60C1F215603290C2
:1062300044F2AC50C8F6AF60319049F69C60C6F6A7
:10624000B770309041F65760CAF603402F904AF677
:106250005160C8F62D206D462E90281DB021FCF708
:10626000FFF92EA8009032A82D902846FFF72EFEA9
:10627000FEF704FE06462846FCF766FEFEF7FEFD26
:10628000311A2046FCF770F946F28770C1F200001F
:10629000FCF76AF96CB0BDE8F081F1EE100A4FF638
:1062A000FF71C0F2C03120EA010040F04070E1EE21
:1062B000100A70473A7474003A7474003A747400A7
:1062C0000B07010B07020B07070B08010B08020560
:1062D00000000B08030B08040B08050B08060B084D
:1062E000070B0100010000000B0000001D00000072
:1062F000000000000000000000000000000000009E
:10630000010000000000000000000000000000008C
:1063100000000000000000000B0607000100000064
:106320000A0000001D000000000000000000000046
:10633000000000000000000001000000000000005C
:10634000000000000000000000000000000000004D
:106350000B06060001000000060000001D00000002
:10636000000000000000000000000000000000002D
:10637000010000000000000000000000000000001C
:1063800000000000000000000B06040001000000F7
:1063900000000000000000000000000000000000FD
:1063A00000000000000000000100000000000000EC
:1063B00000000000000000000000000000000000DD
:1063C0000B000000010000000000000000000000C1
:1063D00000000000000000000000000000000000BD
:1063E00001000000000000000000000000000000AC
:1063F00000000000000000000B00018D01020408F5
:10640000102040801B366CD8AB4D9A2F5EBC63C603
:1064100097356AD4B37DFAEFC5913972E4D3BD6183
:10642000C29F254A943366CC831D3A74E8CB8D0114
:10643000020408102040801B366CD8AB4D9A2F5EAA
:10644000BC63C697356AD4B37DFAEFC5913972E45F
:10645000D3BD61C29F254A943366CC831D3A74E84C
:10646000CB8D01020408102040801B366CD8AB4D48
:106470009A2F5EBC63C697356AD4B37DFAEFC59197
:106480003972E4D3BD61C29F254A943366CC831D23
:106490003A74E8CB8D01020408102040801B366C52
:1064A000D8AB4D9A2F5EBC63C697356AD4B37DFADC
:1064B000EFC5913972E4D3BD61C29F254A9433661A
:1064C000CC831D3A74E8CB8D010204081020408073
:1064D0001B366CD8AB4D9A2F5EBC63C697356AD419
